:020000040800F2
:1000000048140020850100088902000881020008C8
:100010008502000879020008D905000800000000E8
:10002000000000000000000000000000590300086C
:100030007D02000800000000550300085D03000871
:100040009F0100089F0100089F0100089F01000810
:100050009F0100089F0100089F0100089F01000800
:100060009F0100089F0100089F0100089F010008F0
:100070009F0100089F0100089F0100089F010008E0
:100080009F0100089F0100089F0100089F010008D0
:100090009F0100089F0100089F0100089F010008C0
:1000A0009F0100089F0100089F0100089F010008B0
:1000B0009F0100089F0100089F0100089F010008A0
:1000C0009F0100089F0100089F0100089F01000890
:1000D0009F010008390400089F0100089F010008E3
:1000E0009F0100089F0100089F0100080000000018
:1000F0000000000000000000000000000000000000
:10010000000000009F0100089F010008000000009F
:100110009F0100089F01000800000000000000008F
:100120009F0100089F0100089F0100089F0100082F
:1001300000000000000000000000000000000000BF
:100140000000000000000000000000009F01000807
:1001500000000000000000009F0100089F0100084F
:100160000000000000000000000000009F010008E7
:10017000DFF80CD000F018F800480047C11500085F
:10018000481400200648804706480047FEE7FEE77F
:10019000FEE7FEE7FEE7FEE7FEE7FEE7FEE7FEE737
:1001A00065030008710100081CB509480090094862
:1001B00001900546009C06E0E06840F0010394E8E9
:1001C000070098471034AC42F6D3FFF7D5FF000084
:1001D00040220008602200082DE9F05F054600205B
:1001E00092469B4688460646814640241BE02846A8
:1001F00041464746224600F02FF853465A46C01A59
:10020000914110D311461846224600F016F82D1AD7
:1002100067EB01084F4622460120002100F00DF84F
:1002200017EB00094E41201EA4F10104DFDC484613
:1002300031462A464346BDE8F09F202A04DB203A97
:1002400000FA02F1002070479140C2F1200320FA29
:1002500003F3194390407047202A04DB203A21FA27
:1002600002F00021704721FA02F3D040C2F12002CF
:100270009140084319467047FFE7FEE770470000CA
:10028000FFE7FEE7FFE7FEE77047000086B0059056
:10029000049100200390059800F007000290029856
:1002A000C0F10700052802D3FFE7042003E002980D
:1002B000C0F10700FFE7019002980430062802D839
:1002C000FFE7002002E002980338FFE7009004985F
:1002D0000199012202FA01F1013908400099884090
:1002E000039B02FA01F101391940084306B0704737
:1002F00086B0059004910392059800F007000290E3
:100300000298C0F10700052802D3FFE7042003E0AC
:100310000298C0F10700FFE7019002980430062818
:1003200002D8FFE7002002E002980338FFE70090C0
:1003300004980199012202FA01F10139084000995B
:100340008840039B02FA01F101391940084306B0C5
:1003500070470000704700007047000080B501F052
:10036000DBFE80BD41F21C00C4F20200016841F0D6
:100370008051016047F25001C4F200010A7842F056
:1003800004020A70016821F08051016041F200000E
:10039000C4F20200016841F001010160FFE741F28F
:1003A0000000C4F202000068C0F34000012801D040
:1003B000FFE7F4E741F20400C4F20200016821F013
:1003C00003010160FFE741F20400C4F2020000688B
:1003D0008008800708B1FFE7F5E741F20000C4F2AA
:1003E000020001684FF6FF72CFF6F2621140016021
:1003F00041F20400C4F202000021016041F22C002D
:10040000C4F2020041F61071016041F23000C4F202
:1004100002004FF48011016041F20800C4F20200B2
:100420004FF41F0101604EF60850CEF200004FF06D
:10043000006101607047000010B582B001F04EFC11
:10044000002800F0C680FFE701F016FB40F20C0127
:10045000C2F200010880087840F20801C2F20001EF
:100460000A8840F62043C2F20003985408880130FD
:100470000880088840F20C41884240F0A980FFE7DC
:1004800040F20800C2F200000021018040F6204046
:10049000C2F200000078D12840F09680FFE740F6D5
:1004A0002040C2F2000090F80B04F02840F08C804D
:1004B000FFE740F62044C2F20004204640F2064125
:1004C00000F0F6F94FF4817000F09EFA019000F010
:1004D000C1FA94F807049DF80710884270D1FFE72D
:1004E00040F62040C2F2000090F808049DF8061083
:1004F000884265D1FFE740F62040C2F2000090F844
:1005000009049DF8051088425AD1FFE740F62040C3
:10051000C2F2000090F80A049DF8041088424FD1FE
:10052000FFE740F20A00C2F20000007858B9FFE786
:10053000002000F031FA40F20A00C2F20000017817
:10054000013101701EE040F20A00C2F200000078A2
:10055000012816D1FFE74FF4806000F01DFA40F249
:100560000004C2F20004206800F008FE206800F5D4
:100570000060206040F20A00C2F200000021017019
:10058000FFE7FFE701F024FA40F62040C2F2000046
:100590008078042813D1FFE744F20700C0F600007A
:1005A00000784FF00061B1EB006F07D1FFE740F238
:1005B0000E00C2F2000001210170FFE7FFE702E038
:1005C00001F0B2F9FFE702E001F0AEF9FFE7FFE763
:1005D000FFE702B010BD0000FFE7FEE781B08DF835
:1005E00003009DF9030000280FD4FFE79DF90300E5
:1005F00000F01F01012202FA01F140094EF28022AF
:10060000CEF2000242F82010FFE701B07047000070
:1006100081B08DF803009DF90300002813D4FFE793
:100620009DF9030000F01F01012202FA01F14009C7
:100630004EF28012CEF2000242F82010BFF34F8F2C
:10064000BFF36F8FFFE701B07047000081B08DF8F6
:1006500003009DF9030000280FD4FFE79DF9030074
:1006600000F01F01012202FA01F140094EF20012CE
:10067000CEF2000242F82010FFE701B07047000000
:100680004EF60C50CEF200000068C0F30220704716
:100690004EF60C50CEF200000068C0F30220704706
:1006A00082B08DF8070000919DF9070000280AD458
:1006B000FFE7009800019DF907104EF20042CEF2CC
:1006C000000288540BE0009800019DF8071001F02B
:1006D0000F014EF61452CEF200028854FFE702B02A
:1006E0007047000082B08DF8070000919DF9070067
:1006F00000280AD4FFE7009800019DF907104EF288
:100700000042CEF2000288540BE0009800019DF8F0
:10071000071001F00F014EF61452CEF20002885479
:10072000FFE702B07047000083B00290029800F02B
:10073000070000904EF60C50CEF2000001680191C7
:1007400001994FF6FF02114001910199009A41EA87
:1007500002210022C0F2FA52114301910199016075
:1007600003B0704770B582B044F20000C0F60000DC
:1007700000900098006800F16040B0F5004F00F272
:100780009580FFE70124C0F21C042046002100F000
:10079000EBFB0E25C0F218052846002100F0E4FB13
:1007A0000226C0F218063046002100F0DDFB0620CC
:1007B000C0F21400002100F0D7FB4FF4A01000217C
:1007C00000F0D2FB4FF4C010002100F0CDFB30460A
:1007D000002100F0C9FB0320C0F21800002100F046
:1007E000C3FB0420C0F21800002100F0BDFB05206F
:1007F000C0F21800002100F0B7FB0720C0F218007B
:10080000002100F0B1FB0920C0F21800002100F027
:10081000ABFB0C20C0F21800002100F0A5FB28461D
:10082000002100F0A1FB4FF4E010002100F09CFB40
:100830002046002100F098FB1120C0F21C0000218E
:1008400000F092FB1220C0F21C00002100F08CFB93
:100850001320C0F21C00002100F086FB252000F0D0
:10086000FFFE1D2000F0FCFE262000F0F9FE2820EF
:1008700000F0F6FE2620FFF7B1FE2820FFF7AEFEBF
:100880002520FFF7ABFE1D20FFF7A8FE009840686B
:1008900040F21001C2F20001086000980068019067
:1008A000019880F3088808688047FFE702B070BDB0
:1008B0008BB0099040F61800C2F2000008900120A9
:1008C00007900691099818B1FFE7089818B9FFE753
:1008D00000200A905EE007980699884203D9FFE756
:1008E00000200A9056E006980799401A01300590BA
:1008F0000998079908440490002002900390FFE7AC
:1009000003980599B0EB910F11D2FFE704980068A6
:1009100000BA0899029A531C029341F822000498E5
:1009200004300490FFE7039801300390E8E79DF856
:100930001400800758B3FFE700200190059901F0EB
:1009400003018DF803108DF80200FFE79DF8020007
:100950009DF80310884212DAFFE704989DF8021010
:10096000405C1822A2EBC101884001990843019024
:10097000FFE79DF8020001308DF80200E6E70198DC
:100980000899029A531C029341F82200FFE702984B
:100990000A90FFE70BB0704787B040F62041C2F2E3
:1009A0000001069140F21401C2F2000105910721F5
:1009B000ADF81210ADF810004FF48060ADF80E00E5
:1009C0000698BDF81210084402900598BDF8101062
:1009D000084401900020ADF80200FFE7BDF80200D6
:1009E000BDF80E1088420DDAFFE70298BDF802103C
:1009F000405C019A5054FFE7BDF802000130ADF8A9
:100A00000200EBE707B0704783B040F61801C2F26E
:100A1000000102910190002000900090FFE70098F3
:100A2000019988420ED2FFE70298009950F8210000
:100A300043F20001C4F202010860FFE700980130B0
:100A40000090ECE743F20000C4F20200006803B03B
:100A50007047000043F20800C4F20200016841F050
:100A6000010101607047000081B04FF0FF3000903D
:100A7000009843F21001C4F20201086001B070470F
:100A800081B000208DF803009DF8030043F20801B7
:100A9000C4F202010A6800F0030022F0180242EAE0
:100AA000C000086001B0704781B041F6B750C0F295
:100AB000C1400090009843F21401C4F202010860A2
:100AC00001B0704781B000208DF803009DF803004D
:100AD00043F20801C4F202010A6800F0030022F0A8
:100AE000600242EA4010086001B0704781B0002007
:100AF0008DF803009DF8030043F20801C4F20201DF
:100B00000A6800F0010022F0800242EAC01008608A
:100B100001B0704781B000208DF803009DF80300FC
:100B200041F20401C4F202010A6800F00F0022F051
:100B3000F00242EA0010086001B0704781B0042062
:100B40008DF803009DF8030041F20401C4F2020194
:100B50000A6800F0070022F4E06242EA0020086020
:100B600001B0704781B004208DF803009DF80300A8
:100B700041F20401C4F202010A6800F0070022F405
:100B8000605242EAC020086001B0704781B08DF821
:100B900003009DF80300012809D1FFE741F254004A
:100BA000C4F20200016841F03001016008E041F246
:100BB0005400C4F20200016821F030010160FFE737
:100BC00001B0704781B08DF8030001208DF802005C
:100BD0009DF80300042843D8DFE800F0030E1D2C25
:100BE00037009DF8020041F20001C4F202010A68D8
:100BF00060F300020A6034E09DF8020041F2000157
:100C0000C4F202010A6800F0010022F4803242EAD4
:100C10000040086025E09DF8020041F20001C4F2A6
:100C200002010A6800F0010022F0807242EA0060CE
:100C3000086016E09DF8020041F22001C4F20201B2
:100C40000A6860F300020A600BE09DF8020041F2BE
:100C50002401C4F202010A6860F300020A6000E0A5
:100C6000FFE701B07047000080B58CB00B9000200A
:100C70000A900990089007900690059004900390C0
:100C8000029000F073FA8DF807009DF8070030B16C
:100C9000FFE7012824D0FFE7022828D0C1E041F275
:100CA0005400C4F202000068400AC00780B1FFE7A8
:100CB00041F23000C4F202000068400EC00738B1B3
:100CC000FFE70B9846F60041C0F2DC21016006E028
:100CD0000B9841F20021C0F27A010160FFE7A7E022
:100CE0000B9841F20021C0F27A010160A0E041F2CC
:100CF0000400C4F202000068C0F30040089041F212
:100D00002C00C4F2020000680021B1EBD07F47D173
:100D1000FFE741F20400C4F202000168C1F383411D
:100D20000A910068C0F341700990099820B9FFE763
:100D30000A980F2807D1FFE709980A9901EB0010DC
:100D400001300A9003E00A9802300A90FFE7089801
:100D500048B9FFE70A9840F60011C0F23D01484348
:100D60000B9908601BE041F20400C4F20200006825
:100D7000400CC00748B1FFE70A9840F60011C0F2E6
:100D80003D0148430B99086008E00A9841F20021B0
:100D9000C0F27A0148430B990860FFE7FFE73FE0A4
:100DA00041F22C00C4F202000168C1F30311049166
:100DB0000168C1F308210391006800F00700029068
:100DC000089830B9FFE740F60010C0F23D000590EA
:100DD00015E041F20400C4F202000068400CC007B4
:100DE00030B1FFE740F60010C0F23D00059005E08D
:100DF00041F20020C0F27A000590FFE7FFE7059876
:100E00000399A0FB0101DDF810C0029B01229A406A
:100E10000CFB02F20023FFF7DFF90B990860FFE7F4
:100E200006E00B9841F20021C0F27A010160FFE771
:100E300041F20400C4F202000168C1F303110791FA
:100E4000079942F22022C0F60002515C06910B99EC
:100E50000A68069BDA404A600168C1F302210791E3
:100E6000079942F2302CC0F6000C1CF801100691D4
:100E70000B994B68069A23FA02F2CA600168C1F323
:100E8000C221079107991CF8011006910B994A6835
:100E9000069BDA408A600168C1F3007107910799E7
:100EA0000068C0F3813040EA81000790079842F261
:100EB0003821C0F60001085C06900B988168069AFC
:100EC000B1FBF2F101610CB080BD000082B0019075
:100ED00000208DF80300BDF8060041F20001C4F2C5
:100EE00002014058019901F01F01C840C00720B914
:100EF000FFE700208DF8030003E001208DF80300D8
:100F0000FFE79DF8030002B07047000080B582B093
:100F1000002001908DF80300FFE71120FFF7D6FFB6
:100F20000021012807D0FFE701980021B0F5405FBC
:100F300038BF0121FFE7C80720B1FFE70198013062
:100F40000190EAE71120FFF7C1FF012804D0FFE775
:100F500000208DF8030003E001208DF80300FFE777
:100F60009DF8030002B080BD82B001908DF803109F
:100F70009DF8030001280FD1FFE7019800F01F0141
:100F8000012202FA01F1000C41F20002C4F2020255
:100F90008358194381500FE0019800F01F0101228E
:100FA00002FA01F1000C41F20002C4F2020283587D
:100FB00023EA01018150FFE702B0704782B00020B0
:100FC0008DF807009020ADF804000120ADF8020074
:100FD00002208DF801009DF8070088B9FFE741F273
:100FE0000400C4F20200016821F48031016041F282
:100FF0003000C4F20200016841F0007101601FE09E
:1010000041F20400C4F20200016841F48031016041
:101010009DF80700012809D1FFE741F20400C4F25E
:101020000200016821F40031016008E041F204008F
:10103000C4F20200016841F400310160FFE7FFE7FC
:10104000BDF8040041F22C01C4F202010A686FF3FA
:101050005F206FF3102242EA00200860BDF8020012
:101060000A6800F00F0022F0F00242EA0010086067
:101070009DF801000A6860F302020A60086840F007
:101080000040086002B0704741F20000C4F2020064
:10109000016841F001010160FFE741F20000C4F284
:1010A00002000068C0F34000012801D0FFE7F4E728
:1010B00041F20400C4F20200016821F00301016062
:1010C000FFE741F20400C4F20200006880088007D4
:1010D00008B1FFE7F5E741F20000C4F20200016841
:1010E0004FF6FF72CFF6F2621140016041F2040048
:1010F000C4F202000021016041F22C00C4F202009F
:1011000041F61071016041F23000C4F202004FF468
:101110008011016041F20800C4F202004FF41F0187
:101120000160704781B002208DF803009DF8030034
:1011300041F20401C4F202010A6860F301020A608C
:1011400000BF00BF00BF00BF00BF00BF00BF00BFA7
:1011500000BF00BF00BF00BF00BF00BF00BF00BF97
:1011600000BF00BF00BF00BF01B0704741F20400E4
:10117000C4F202000068C0F38100704780B584B0FB
:10118000039040F21400C2F20000029000F0E6F872
:10119000039800F0BFF84FF2E070C1F6FF700068EE
:1011A000FF2806D8FFE7039800F5806000F0B2F84A
:1011B000FFE70020ADF80600FFE7BDF80600B0F538
:1011C000006F19DAFFE70298BDF80610421852784E
:1011D000405C40EA0220ADF804000398BDF804101A
:1011E00000F00EF8039802300390FFE7BDF8060008
:1011F0000230ADF80600E0E700F022F804B080BD50
:1012000010B582B00190ADF8021003208DF80100F6
:1012100042F21004C4F20204206840F00100206091
:10122000BDF80200019908804FF4801000F046F8E4
:101230008DF80100206820F00100206002B010BD90
:1012400042F21000C4F20200016841F08001016026
:101250007047000081B003208DF8030042F20C00BB
:10126000C4F202000068C00720B1FFE700208DF83B
:1012700003001FE042F20C00C4F202000068800884
:10128000C00720B1FFE701208DF8030011E042F212
:101290000C00C4F2020000680009C00720B1FFE79B
:1012A00002208DF8030003E003208DF80300FFE720
:1012B000FFE7FFE79DF8030001B0704780B582B0FB
:1012C000019003208DF80300FFF7C4FF8DF80300A1
:1012D000FFE79DF80310002029B9FFE701980028D7
:1012E00018BF0120FFE7C00740B1FFE7FFF7B2FFDB
:1012F0008DF80300019801380190EAE7019820B9C0
:10130000FFE704208DF80300FFE79DF8030002B01B
:1013100080BD000010B582B0019003208DF803005D
:1013200042F21004C4F20204206840F0020020607F
:10133000019842F21401C4F202010860206840F0F2
:10134000400020604FF08040FFF7B8FF8DF80300A9
:10135000206820F00200206002B010BD42F20400BC
:10136000C4F2020040F22311C4F26751016048F652
:10137000AB11CCF6EF5101607047000081B043F62D
:101380000000C0F60000006844F63831C4F2541181
:10139000884204D1FFE701208DF8030003E000201C
:1013A0008DF80300FFE79DF8030001B070470000CF
:1013B00081B0009000984FF6FF7101600098002105
:1013C00081710098017100980421417100980121F8
:1013D000C17101B07047000084B00390029102987F
:1013E0000068ADF8000002988079032804D1FFE777
:1013F0000020ADF802002FE002988079E0B9FFE705
:101400000298407900F00F00ADF802000298407990
:10141000182805D1FFE7BDF80000039908610AE02C
:1014200002984079282805D1FFE7BDF8000003990C
:101430004861FFE7FFE70EE0029801798279C07901
:1014400002F0080201F00401114400F00300084416
:10145000ADF80200FFE7FFE79DF8000048B3FFE7A3
:1014600000200190FFE70198072821D8FFE70198A5
:10147000BDF8001021FA00F0C007A0B1FFE7019805
:1014800080000F2101FA00F003990A6822EA0000A7
:101490000860BDF8020001998900884003990A6834
:1014A00010430860FFE7FFE7019801300190DAE799
:1014B000FFE7BDF80000B0F5807F2DDBFFE79DF86A
:1014C0000100ADF8000000200190FFE70198072817
:1014D00021D8FFE70198BDF8001021FA00F0C007FD
:1014E000A0B1FFE7019880000F2101FA00F00399F5
:1014F0004A6822EA00004860BDF8020001998900AC
:10150000884003994A6810434860FFE7FFE7019865
:1015100001300190DAE7FFE704B0704785B040F290
:101520000230C3F21000049001208DF80F009DF8E6
:1015300013000021C4F2010108430290BDF812001B
:101540008DF803000498000A8DF8020004988DF8C5
:1015500001009DF802009DF803100844C0F120002E
:101560004FF0FF3101FA00F0019001989DF8021050
:101570009DF803201144C1F12001C8400190019859
:101580009DF80310C840019001989DF80310884011
:101590000190019802990A6822EA000008609DF80B
:1015A0000F0050B1FFE79DF801009DF8031088403F
:1015B00002990A6810430860FFE705B07047000011
:1015C00080B582B00020019000F056FD00F022FDB1
:1015D00000F08EFC00F0D2FC00F0AAFD00F08CFCC4
:1015E00000F0D0FD00F076FCFFF7C8FE78B9FFE709
:1015F00044F20700C0F6000000784FF00061B1EB44
:10160000006F03D1FFE7FFF7ADF8FFE7FFE7FFF754
:10161000B5FE18B1FFE700F0DBF9FFE7FFE740F2A6
:101620000E00C2F200000078012817D1FFE740F257
:101630000E00C2F200000021017044F20700C0F663
:10164000000000784FF00061B1EB006F05D1FFE7BB
:10165000FFF71AFDFFF786F8FFE7FFE7DFE7000077
:1016600080B582B08DF807009DF90700FEF7D0FF26
:1016700002B080BD80B584B025208DF80F00002019
:10168000029001900090FFF703F80299019AFEF78B
:101690002FFE00909DF90F000099FFF723F89DF9A8
:1016A0000F00FEF7D3FF04B080BD000080B582B00C
:1016B00003208DF807009DF80700FFF735F802B00A
:1016C00080BD000080B58AB0002009900890079086
:1016D000069005900490039002900190FFF746FD5C
:1016E0008DF803009DF8030030B1FFE701282AD0F0
:1016F000FFE7022831D0D6E041F25400C4F20200E4
:101700000068400AC00798B1FFE741F23000C4F218
:1017100002000068400EC00750B1FFE740F204002D
:10172000C2F2000046F60041C0F2DC21016009E08F
:1017300040F20400C2F2000041F20021C0F27A013E
:101740000160FFE7B9E040F20400C2F2000041F29C
:101750000021C0F27A010160AFE041F20400C4F25E
:1017600002000068C0F30040079041F22C00C4F270
:10177000020000680021B1EBD07F50D1FFE741F2B9
:101780000400C4F202000168C1F3834109910068BA
:10179000C0F341700890089820B9FFE709980F2816
:1017A00007D1FFE70898099901EB00100130099073
:1017B00003E0099802300990FFE7079860B9FFE756
:1017C000099840F60011C0F23D01484340F204017F
:1017D000C2F20001086021E041F20400C4F20200FC
:1017E0000068400CC00760B1FFE7099840F600119F
:1017F000C0F23D01484340F20401C2F2000108601A
:101800000BE0099841F20021C0F27A01484340F20E
:101810000401C2F200010860FFE7FFE742E041F285
:101820002C00C4F202000168C1F3031103910168A6
:10183000C1F308210291006800F0070001900798A9
:1018400030B9FFE740F60010C0F23D00049015E00B
:1018500041F20400C4F202000068400CC00730B13D
:10186000FFE740F60010C0F23D00049005E041F2B1
:101870000020C0F27A000490FFE7FFE70498029985
:10188000A0FB0101DDF80CC0019B01229A400CFB7A
:1018900002F20023FEF7A0FC40F20401C2F20001B4
:1018A0000860FFE709E040F20400C2F2000041F2E4
:1018B0000021C0F27A010160FFE741F20400C4F2A6
:1018C00002000068C0F303100690069842F220213F
:1018D000C0F60001085C059040F20400C2F200006E
:1018E0000168059AD14001600AB080BD81B0042032
:1018F0008DF803009DF80300042809D1FFE74EF29C
:101900001000CEF20000016841F00401016008E01F
:101910004EF21000CEF20000016821F004010160D7
:10192000FFE701B070470000B0B582B00025019517
:1019300041F22C04C2F20004D12020700220607019
:10194000A070E570257165710A20A0711820E07102
:1019500025726572A572E57225736573A573E573CB
:10196000257420461021FEF7A3FF0420FFF74CF852
:101970000190FFF76FF89DF807006074BDF806004E
:10198000A0740198000AE07401982075F020607539
:101990008DF80350FFE79DF80300152816DCFFE7DC
:1019A0009DF8030041F22C01C2F20001085C00F036
:1019B0006FF8FFE700F092F808B9FFE7FAE7FFE7F2
:1019C0009DF8030001308DF80300E4E702B0B0BDDC
:1019D000B0B582B00025019541F22C04C2F200049A
:1019E000D120207002206070A070E57020716571B8
:1019F0000A20A0711D20E07125726572A572E57242
:101A000025736573A573E573257420461021FEF7D1
:101A10004FFF0420FEF7F8FF0190FFF71BF89DF839
:101A200007006074BDF80600A0740198000AE07415
:101A300001982075F02060758DF80350FFE79DF840
:101A40000300152816DCFFE79DF8030041F22C0186
:101A5000C2F20001085C00F01BF8FFE700F03EF85E
:101A600008B9FFE7FAE7FFE79DF8030001308DF8BA
:101A70000300E4E702B0B0BD81B043F60000C4F259
:101A8000010000900098406880B201B070470000EB
:101A900082B043F60001C4F201010191ADF80200E9
:101AA000BDF802006FF35F200199486002B07047F3
:101AB00082B043F60000C4F20100019001208DF8CD
:101AC00003009DF803000199CA6800F0010022F4A8
:101AD000005242EA4030C86002B0704783B043F61B
:101AE0000000C4F2010001904020009001980068BD
:101AF0000099084204D0FFE701208DF80B0003E0B5
:101B000000208DF80B00FFE79DF80B0003B0704735
:101B100082B043F60000C4F20100019000208DF86D
:101B200003009DF8030058B9FFE70198416921F4CB
:101B3000807141610198416921F40071416132E095
:101B40009DF8030001280BD1FFE70198416941F49A
:101B5000807141610198416921F40071416121E086
:101B60009DF8030002280BD1FFE70198416921F499
:101B7000807141610198416941F40071416110E057
:101B80009DF8030003280BD1FFE70198416941F458
:101B9000807141610198416941F400714161FFE741
:101BA000FFE7FFE7FFE702B07047000010B58AB01B
:101BB00043F60004C4F2010409944FF4E1300890A4
:101BC00000208DF81F008DF81E0002A8FFF74CF8CA
:101BD0000998A04203D1FFE70498019002E005981C
:101BE0000190FFE7019800EB800040000899B0FBEE
:101BF000F1F0009000984CF6CD41CCF6CC41A0FB22
:101C00000112D10801EB8101A0EB410004280AD8A0
:101C1000FFE700984CF6CD41CCF6CC41A0FB01018A
:101C2000C80800900BE000984CF6CD41CCF6CC41B2
:101C3000A0FB0101012000EBD1000090FFE7BDF8FF
:101C4000000009998A684FF6FF739A431044886030
:101C50009DF81F000999CA6800F0010022F4805223
:101C600042EA0030C8609DF81E0009990A6900F038
:101C7000030022F4405242EA003008610AB010BD6D
:101C800083B043F60000C4F2010002900520C0F2C8
:101C90000C00019001208DF803009DF8030001283D
:101CA0000CD1FFE7019800F01F01012202FA01F1B7
:101CB000029A000C1358194311500CE0019800F0DF
:101CC0001F01012202FA01F1029A000C135823EAC3
:101CD00001011150FFE703B07047000084B043F6E4
:101CE0000000C4F2010002902020019000208DF835
:101CF0000300019801285FD0FFE7022855D0FFE7D5
:101D0000042852D0FFE7082837D0FFE7102845D035
:101D1000FFE720282AD0FFE7402820D0FFE78028CF
:101D200016D0FFE7B0F5807F0BD0FFE7B0F5007F5E
:101D300049D1FFE702984069C0F380208DF8030085
:101D400045E002980069C0F380108DF803003EE082
:101D50000298C068C0F3C0108DF8030037E0029805
:101D6000C068C0F380108DF8030030E00298C068AE
:101D7000C0F340108DF8030029E00298C0684109C3
:101D80000120C90729B9FFE70298406900F0010066
:101D9000FFE700F001008DF8030018E00298C0682A
:101DA000C0F300108DF8030011E00298406900F0C4
:101DB00001008DF803000AE00298C068C0F300201B
:101DC0008DF8030003E000208DF80300FFE79DF885
:101DD0000300012804D0FFE700208DF80F000DE07C
:101DE000029800680199084204D0FFE701208DF8AD
:101DF0000F0003E000208DF80F00FFE79DF80F00B3
:101E000004B0704782B043F60000C4F201000190B4
:101E100000208DF803009DF8030058B9FFE70198F2
:101E2000C16821F40071C1600198C16821F480612A
:101E3000C16021E09DF8030001280BD1FFE7019864
:101E4000C16821F40071C1600198C16841F48061EA
:101E5000C16010E09DF8030002280BD1FFE7019854
:101E6000C16841F40071C1600198C16841F48061AA
:101E7000C160FFE7FFE7FFE702B0704782B043F6BB
:101E80000000C4F20100019001208DF803009DF8CC
:101E900003000199CA6800F0010022F0040242EA3E
:101EA0008000C86002B0704782B043F60000C4F200
:101EB0000100019001208DF803009DF803000199B5
:101EC000CA6800F0010022F0080242EAC000C860BF
:101ED00002B0704780B5FEF7C7FDFEF7D1FDFEF7F3
:101EE000E3FDFEF7EFFDFEF701FEFEF7B3FD80BD5B
:101EF00080B5FFF713FB80BD70B582B06C462046FD
:101F0000FFF756FA03258DF806504FF46040009015
:101F100004268DF8056041F20000C4F2010021465C
:101F2000FFF75AFA8DF8065049F6FF1000908DF829
:101F3000056040F60000C4F201002146FFF74CFAAC
:101F40008DF806504FF6FF7000908DF8056040F652
:101F50000040C4F201002146FFF73EFA8DF806501A
:101F6000C02000908DF8056041F60040C4F20100E9
:101F70002146FFF731FA02B070BD000080B5FFF7CF
:101F800095FBFEF77DFB0021FEF780F901466FF01F
:101F90000B00FEF785FBFEF773FB0021FEF776F9D9
:101FA00001466FF00A00FEF77BFBFEF769FB00219C
:101FB000FEF76CF901466FF00900FEF771FBFEF7C2
:101FC0005FFB0021FEF762F901466FF00400FEF7A7
:101FD00067FBFEF755FB0021FEF758F901466FF04D
:101FE0000300FEF75DFBFEF74BFB0021FEF74EF909
:101FF00001466FF00100FEF753FBFEF741FB0F2196
:10200000FEF744F901464FF0FF30FEF749FBFFF7BA
:1020100031FB80BD80B50620C0F214000121FEF71F
:10202000A3FF4FF4C0100121FEF79EFF0220C0F273
:1020300018000121FEF798FF0320C0F218000121CB
:10204000FEF792FF0420C0F218000121FEF78CFF7A
:102050000520C0F218000121FEF786FF0720C0F21C
:1020600018000121FEF780FF0E20C0F218000121A8
:10207000FEF77AFF80BD000080B5FFF705F842F259
:102080000000C4F20200142101600420FEF79AFD52
:10209000FFE70120C0F22400FEF718FF012801D05D
:1020A000FFE7F6E70120FEF78DFDFFE7FEF72EFFC5
:1020B00008B9FFE7FAE70020FEF784FDFFE70120FB
:1020C000FEF704FF012801D0FFE7F8E7FEF776FFEF
:1020D0000220FEF777FDFFE71920FEF7F7FE012843
:1020E00001D0FFE7F8E7FEF715FDFEF73BFDFEF731
:1020F00025FD0120FEF74AFDFFF714F8FFE7FFF783
:1021000035F8022801D0FFE7F9E70020FEF73EFD91
:10211000FFF7D8FA80BD000080B500F001F880BD5F
:1021200040F61400C2F200000168013101607047FE
:1021300010B586B00024009401A8FEF795FD029822
:102140000090FFF7D3FB009844F6D351C1F262012F
:10215000A0FB01014FF0FF3000EB91104EF2140193
:10216000CEF2000108604EF21800CEF200000460CA
:102170004EF21000CEF20000016841F00301016050
:1021800006B010BD2DE9F04182B06C462046FFF745
:102190000FF94FF002088DF8078000278DF80470C2
:1021A00008208DF806004FF40070009004268DF88A
:1021B000056040F60005C4F2010528462146FFF7F8
:1021C0000BF98DF807808DF804708DF806704FF4C8
:1021D000806000908DF8056028462146FFF7FCF8E6
:1021E000FFF7E4FCFFF760FEFFF748FEFFF70AFE8B
:1021F000FFF78EFCFFF744FDFFF75AFC02B0BDE885
:10220000F08102E008C8121F08C1002AFAD1704705
:102210007047002001E001C1121F002AFBD1704766
:102220000000000000000000010203040607080986
:10223000000000000102030402040608020C08105A
:1022400060220008000000200800000002220008B0
:102250006822000808000020401400001222000834
:082260000040000800127A00A2
:04000005080001717D
:00000001FF
