:020000040800F2
:104000004828002089410008EF4F0008154B0008A0
:10401000ED4F00087B490008896800080000000097
:1040200000000000000000000000000047530008EE
:104030007D4900080000000045530008AD4100081C
:10404000A3410008A3410008A3410008A3410008C0
:10405000A3410008A3410008A3410008A3410008B0
:10406000A3410008A3410008A3410008A3410008A0
:10407000A3410008A3410008A3410008A341000890
:10408000A3410008A3410008A3410008A341000880
:10409000A3410008A3410008A3410008A341000870
:1040A000A3410008A3410008A3410008A341000860
:1040B000A3410008A3410008A3410008A341000850
:1040C000A3410008A3410008A3410008A341000840
:1040D000A341000829680008A3410008A341000883
:1040E000A3410008A3410008A3410008000000000C
:1040F00000000000000000000000000000000000C0
:1041000000000000A3410008A341000800000000D7
:10411000A3410008A34100080000000000000000C7
:10412000A3410008A3410008A3410008A3410008DF
:10413000000000000000000000000000000000007F
:10414000000000000000000000000000A341000883
:104150000000000000000000A3410008A341000887
:10416000000000000000000000000000A341000863
:10417000DFF810D000F070F900F026FA0048004790
:10418000B9840008482800200648804706480047B0
:10419000FEE7FEE7FEE7FEE7FEE7FEE7FEE7FEE7F7
:1041A000FEE7FEE7356700087141000830B410B53E
:1041B0000348804730BCAE4630BC024800477047D9
:1041C0000D940008495300082DE9F05F05460020D2
:1041D00092469B4688460646814640241BE0284678
:1041E00041464746224600F05EF953465A46C01AF9
:1041F000914110D311461846224600F045F92D1A78
:1042000067EB01084F4622460120002100F03CF9EF
:1042100017EB00094E41201EA4F10104DFDC4846E3
:1042200031462A464346BDE8F09F2DE9FE4F8046C1
:1042300081EA0300C00F0C46009021F0004123F0FA
:104240000045B8EB0200A94105D240462146904600
:104250001C460B46024623F00040104347D0270D72
:10426000C7F30A00C3F30A510290401A0190402894
:104270006BDAC3F3130040F4801B0098924620B120
:104280000023D2EB030A63EB0B0B01985946C0F1F4
:104290004002504600F0F8F806460D465046594692
:1042A000019A00F010F910EB08006141002487EA40
:1042B000115284EAE7731A4340D0009A62B3019A1C
:1042C000012A4FEA075215DC001B61EB02014FF097
:1042D000004202EA0752CDE90042001C41F580117C
:1042E00032462B4600F010F903B0BDE8F08F40468F
:1042F0002146F9E7001B61EB0201001C41F5801328
:1043000000185B412018A2F5001747EB030140EAB3
:10431000D570B6196D4111E06D084FEA360645EAD1
:10432000C0754FEA0752001B61EB0201001C41F50A
:10433000801149084FEA30000019514132462B469E
:1043400003B0BDE8F04F00F0D0B800980122400063
:104350000023D0EB020263EBE073009821464FEAA2
:10436000E074B8EB000061EB0401E9E783F000437F
:104370005BE781F0004158E72DE9F04D81EA030445
:1043800004F0004B21F0004514464FF0000A23F0E2
:10439000004150EA050220D054EA01021DD0C5F3C5
:1043A0000A570246C5F31303C1F31300C1F30A56BB
:1043B00040F4801543F48013A7EB0608101BD64683
:1043C00008F2FD3873EB050002D308F1010801E0A3
:1043D00092185B41B8F1000F03DA00200146BDE8F6
:1043E000F08D00204FF48011064684460EE0171B26
:1043F00073EB050705D3121B63EB050306434CEA79
:10440000010C49084FEA300092185B4150EA01075D
:10441000EDD152EA030012D082EA040083EA0501DA
:10442000084305D0101BAB4106D20122002306E051
:1044300000224FF0004302E06FF0010253101AEB2C
:1044400006004CEB085110EB0A0041EB0B01BDE8F4
:10445000F04D00F04AB800001CB50948009009482A
:1044600001900546009C06E0E06840F0010394E8F6
:10447000070098471034AC42F6D3FFF77DFE0000EA
:104480009C600108BC600108202A04DB203A00FA85
:1044900002F1002070479140C2F1200320FA03F39B
:1044A000194390407047202A04DB203A21FA02F099
:1044B0000021704721FA02F3D040C2F1200291405E
:1044C000084319467047202A06DBCB17203A41FAE9
:1044D00002F043EAE07306E041FA02F3D040C2F191
:1044E0002002914008431946704710B5141E73F11D
:1044F000000408DA401C41F1000192185B411A43A4
:1045000001D120F0010010BD2DE9F04D92469B46EF
:1045100011B1B1FA81F202E0B0FA80F22032904695
:10452000FFF7B2FF04460F4640EA0A0041EA0B01DA
:1045300053465A46084313D0114653EA010019D096
:10454000C8F140025046FFF7AEFF05460E46504602
:1045500059464246FFF798FF084305D0012004E082
:1045600020463946BDE8F08D0020054346EAE07656
:104570002C4337430A986305E40AA0EB08000022A5
:10458000FD0A44EA47540A3002D500200146E9E713
:10459000010510196941DDE9084500196941BDE8C7
:1045A000F04DA2E7D2B201E000F8012B491EFBD288
:1045B00070470022F6E710B513460A46044619462E
:1045C000FFF7F0FF204610BD7CB507480090074874
:1045D00001900546009C04E020460168084480479D
:1045E000241DAC42F8D17CBDBC600108C06001084C
:1045F000F0B480EA0102D40F4200B2EB410F02D2C4
:104600000246084611464A0042D0C30DDDB2C1F34E
:10461000C752AD1A202D35DAC1F3160141F400025C
:1046200004B15242C5F1200602FA06F12A411044B3
:10463000B3EBD05F23D0C4B1012DA0EBC35009DC94
:10464000F0BC4FF0004202EAC352DBB200F50000BA
:1046500000F065B9400000F1807000EBC350A0F19C
:10466000807040EAD170490009E0490841EAC07110
:10467000A0EBC35000F50000400800EBC350F0BCB5
:1046800000F044B96142012202EB4101001BF6E750
:10469000F0BC704781F00041AAE780F00040A7E736
:1046A00080EA010210B502F00043400022D04A0027
:1046B0001FD0010E01EB1261C0F35600C2F3560287
:1046C00040F4000042F40002A0FB022000047F3905
:1046D000140400D0401C50EA124001D44000491E8E
:1046E000C2B20C0604EBD010401C4008802A02D055
:1046F00003E0002010BD20F00100002900DA0020B6
:10470000184310BD30B480EA010202F0004530F0D9
:10471000004221F0004013D090B1C30DD40DC2F37C
:104720001601C0F31600E41A41F4000140F400023F
:104730007D34914201D3641C00E04900002C02DA70
:1047400030BC002070474FF400000023914201D399
:10475000891A034340084FEA4101F7D151B1914210
:1047600002D14FF0004105E002D24FF0010101E01B
:104770006FF0010103EBC450284430BC00F0C6B810
:10478000002801DBC0F10040002901DBC1F100413C
:10479000814201D80120704700207047002801DBCA
:1047A000C0F10040002901DBC1F10041814201D28A
:1047B0000120704700207047002801DBC0F1004055
:1047C000002901DBC1F10041814201D30120704782
:1047D00000207047002801DBC0F10040002901DB08
:1047E000C1F10041814201D901207047002070478A
:1047F000002801DBC0F10040002901DBC1F10041CC
:10480000814201D101207047002070479623002289
:10481000114600F084B800F0004220F00040C10DC5
:10482000C0F3160040F400007F2901DA0020704731
:10483000962903DCC1F19601C84001E09639884011
:10484000002AF4D04042704720F00040C10DC0F370
:10485000160040F400007F2901DA002070479629F5
:1048600003DCC1F19601C840704796398840704713
:1048700070B5C1F30A5201F000450024C1F31301E1
:1048800040F2FF3341F480119A4201DA002070BDFA
:1048900040F233439A42A2F2334203DC5242FFF722
:1048A00002FE00E090402C43F1D0404270BD00F089
:1048B000004230F000400AD0C10D01F56071C0F334
:1048C000160042EA0151C208400711437047002018
:1048D0000146704701F0004330B421F0004150EA36
:1048E000010206D00A0DA2F56072C1F31301002A7D
:1048F00002DC30BC00207047440F44EAC104C10010
:10490000E01830BC00EBC250AFF300800029A8BF14
:104910007047401C490008BF20F00100704710B4E8
:10492000B0FA80FC00FA0CF050EA010404BF10BC9D
:10493000704749B1CCF1200421FA04F411FA0CF1CA
:1049400018BF012121430843A3EB0C01CB1D4FEA03
:1049500000614FEA102042BF002010BC704700EBFE
:10496000C35010440029A4BF10BC7047401C49002C
:1049700008BF20F0010010BC7047FEE77047000040
:10498000B0B54E4CA1690D4603F0D2FC85420FD95B
:10499000EFF3108272B6A169A94205D12369A06123
:1049A00001332361BFF35F8F02B962B6A94211D010
:1049B00054E8061FA94208D1BFF35F8F44E80602FE
:1049C0002AB9BFF35F8F012202E0BFF32F8F0022CD
:1049D000002AD8D0B0BD00BF2DE9F04F4FF0805570
:1049E0004FF00054DFF8D8C04FF0070805EAD105B2
:1049F00004EA9204284320434FF0804404EA53041D
:104A000040EA040E2D4C04F10C0BB8F1000F4BD012
:104A100054E8010F451C44E80156002EF8D100F47B
:104A2000707500F03F000CEB00194EEA853A4F46D6
:104A300057F80C5F28466D0116D400F0004545EA92
:104A40000A0545F0406657E8005F854206D147E811
:104A5000006028B9BFF35F8F012002E0BFF32F8F02
:104A600000200028E6D002E0A8F10108CDE723F0FD
:104A7000004086F0004322F0004221F0004104F1A2
:104A8000080B03F0004528442A442944C9F80800CB
:104A9000C9E9001223F08060BFF35F8F57E8001F61
:104AA00047E800010029F9D15BE8000F01304BE82D
:104AB00000010029F8D1BDE8F08F00BF001F0020E1
:104AC000801A00202DE9F041DFF8448000234FF0E8
:104AD000010E4FF0000CBCF1040F08BFBDE8F081DF
:104AE00020FA0CF7FF070FD00F4697420CD803EBC4
:104AF000D70407F00706013718F804500EFA06F637
:104B0000354308F80450F0E70CF1010C2033E2E7DC
:104B1000801E0020FEE700002DE9F843DFF82C900E
:104B200007462A20984615460E46C847084C384680
:104B3000A0472846A0472B20C8473046A0474046FC
:104B4000A0472C204946BDE8F8430847814F00089C
:104B5000654F00082DE9FE4F0C46A3EB010B111A1F
:104B600005460029029101DD012008E005D00298E8
:104B7000404202904FF0FF3001E000200290BBF174
:104B8000000F019001DD012607E019BFCBF1000BFA
:104B90004FF0FF364FF0000B002602985F464FF0B3
:104BA00000084FF000094FF0000A584588BF07463B
:104BB0001FFA88F08742B8BFBDE8FE8FA8B2A1B245
:104BC00002460B46FFF7A8FF0C9800F0CBF90AEB62
:104BD0000B0008F10108B842C8BF34440299019A99
:104BE0004944B942C8BF1544B0EB070AD8BF824652
:104BF000B1EB0709D8BF8946DAE700002DE9F04F8D
:104C000089B00746129815461C460E46ADF80A00B4
:104C1000501E82B2581E83B23846FFF77DFFF1491D
:104C20004FF480500DF10C084860A11B3D4C3C4EE8
:104C3000E81B4FF6FE7501FB00F706F10C0004F1CE
:104C4000440904F1580A0190306840F40060306073
:104C5000484602F0EDFF504602F0EAFF00204FF612
:104C6000FE7B4146ADF814000DF12200AF4238BF83
:104C7000BB46ADF816B00490019803902A48069000
:104C80004FF44070ADF81C00484602F093FF10202E
:104C90004146ADF816B0ADF8140003208DF81D00A4
:104CA0004FF48070ADF819000DF10A0004905046E1
:104CB00002F080FF706840F002007060706840F0A1
:104CC00001007060606C40F001006064A06D40F015
:104CD0000100A06520688004FCD54FF400504FF619
:104CE000FE7560607F1B606C20F001006064A06D49
:104CF00020F00100A065706820F00200706070680C
:104D000020F001007060306820F4006030609BD8B3
:104D1000B4494FF48050086009B0BDE8F08F00BF7F
:104D20000038004000000240000001012DE9F04F72
:104D300087B0119D1C46904600EB55024B1900F0C0
:104D4000E0F9012029096F08109E4FF0000B7A0747
:104D500018BF00EB151101FB05F00690A8F120002B
:104D600033490023C2B2C2EB0210059201EB80105E
:104D70000490344800EB02100390304800EB82109E
:104D800002902C4800EB02200190069883424CD000
:104D9000782D23D0102D1FD00598182D00EB400042
:104DA0000BD0202D14D0382D0BD0402D12D00C2D2F
:104DB0003BD1254901EB800011E0214901EB0010B6
:104DC0000DE005981C49C0EBC00001EB401006E067
:104DD000029804E0019802E0039800E004981D4660
:104DE00018440BF108084FF0000A90F80090BAF14F
:104DF000080F13D029FA0AF0C007204608BF304632
:104E000000F0B0F80BF1010B5FFA8BF0B0FBF7F19B
:104E100001FB170020B10AF1010AE8E7C34601E0EF
:104E20004FF0000B6B1C119DAFE707B0BDE8F08F92
:104E3000BC9E00087C460108BC2F0108FC17010835
:104E40002C0601083C000108489A00082DE9FE4F95
:104E500007460D98994692460E4600254FF00A08DF
:104E60004FF0000B4408032D08BFBDE8FE8FC5F1CD
:104E700002000121020604D001EB81010138490042
:104E8000F8E7BAFBF1F0BBF1000FB0FBF8F101EB72
:104E90008101A0EB410105D1012D03D8080411D0F7
:104EA0004FF0010BDDE90C2041F030014B46CDE91C
:104EB000002005FB0470CAB2314680B2FFF736FF0E
:104EC0000135D0E7DDE90C1030224B46CDE900106A
:104ED00005FB0470314680B2FFF728FF4FF0000B4E
:104EE000EEE72DE9FC47DDF82880994615460E4689
:104EF00007464FF0000A4FEA58042A784AB1B8B280
:104F000031464B46CDE900A8FFF710FF2744013595
:104F1000F3E7BDE8FC8700002DE9FE4F1C469046F4
:104F2000894683465D0800260FF2300A0027072FC6
:104F300008BFBDE8FE8F781EC0B205280BD81AF84E
:104F400000200BEB060049464FF6FF73CDE90084C5
:104F500080B2FFF7EBFE2E440137E8E756312E31E1
:104F60002E30000010B504460A484FF480710160ED
:104F7000200A00F011F8E0B2BDE8104000F00CB8D3
:104F8000B0B5044C4FF48075656000F005F82560FD
:104F9000B0BD00BF1008014010B512494FF4805257
:104FA0004A60114A136823F002031360136823F068
:104FB0000103136000235468A40704D45C1CC82BAD
:104FC0002346F8D90AE0906000205368DB0704D13B
:104FD000431CC8281846F8D900E090684FF4805068
:104FE000086010BD100C014004380040FEE7704717
:104FF0000246182043F286114FF6FF73CDE90010E8
:1050000070474B218B22762300905A2001F0CCBBB5
:1050100099F84B0200F0FE0102297047064620462F
:10502000FFF7E6BA012202FA01F148F20C0211423E
:105030007047302000214FF4A0721A230090002006
:1050400001F0B2BB002000214FF4A072F023CDF894
:10505000009001F0A9BBC9E98C00C9F83802C9F871
:105060002002C9F81802C9F810020020704705464E
:1050700020462946FFF792BB05462046FFF7B8BAFF
:105080000246102043F28611CDE9001040F21510BF
:105090005A2170472046FFF79DBB0090EC2063210A
:1050A0001322132301F080BBBB2142222323009053
:1050B000802001F079BB0421242213230090C32017
:1050C00001F072BB9BF84B02811E02297047024619
:1050D000202042F2E401CDE90010BE2021217047DA
:1050E0000068FFF798BB00210025FFF773BB98F815
:1050F0000800FFF78BBB2046FFF78DBB2946FFF763
:1051000001BB013A013B92B29BB2FFF705BDEC2017
:10511000832113221323009401F046BB01208AF857
:105120001C0070472846FFF763BA2046FFF744BBD0
:105130002046FFF733BB2146FFF7B2BA2146FFF7FF
:1051400057BB99F80002012870474FF04241002EEA
:105150007047C6F81C0204F110002847C6F8140274
:1051600004F10E0028474FF08441FFF741BAC6F81A
:105170000C0204F10C00284786F8040204F10A002E
:10518000284786F8020204F108002847BE21402281
:10519000282301F009BB8C1A60EBE27503F0C8B854
:1051A000B85B00BA000CFFF7DDBE42F224121823F0
:1051B000FFF7B2BE206820F00100206010BD80F82B
:1051C000421280F84012704790F84B1202200F29CB
:1051D000704700908020BB214222232301F0E4BAD3
:1051E00090F84B128A1E022A7047012088F80700A7
:1051F0009BF8000201287047BE214022282300901E
:1052000070472846FFF74CBA0138346C8AF8110011
:1052100040B2002870475946FFF774BA014620464D
:105220003847012101FA00F048F20C0108427047AA
:10523000012180F84312122180F84B12704701219E
:1052400080F84612152180F84B1270479AF8110029
:1052500001388AF8110040B20028704700BF00BF33
:1052600000BF00BF00BF00BF00BF00BF00BF00BF46
:10527000704748F20F4300952047064620464FF0FE
:105280007E51FFF7B5B98AF81C000A208AF8110090
:105290007047FEB5044608461146FFF7FBF960610A
:1052A0006069E169FFF7A4F9E061E069616AFFF70D
:1052B00075FA08B9606AE061E069FFF714FF00B9A8
:1052C000E561D4E9005760692169FFF7E3F9A0615E
:1052D00038466669E169FFF7E3F9616A0290019176
:1052E00002980199FFF74CFA08B9019802900298C8
:1052F000019981F00041FFF75FFA18B9019880F039
:105300000040029028463146FFF7CAF90299FFF79C
:105310006FF90546A068A169FFF7C2F92946FFF7B2
:1053200067F9206260692061206AA16AFFF728FAA4
:1053300008B9A06A2062206AFFF7D5FE00B925628D
:10534000206AFEBD704770472DE9F84FDFF8048CE6
:1053500098F80100013888F80100000634D1DFF820
:10536000405D142088F8010095F8020201282BD135
:10537000DFF8304D207FB0B1012803D0022814D1CE
:10538000667F06E001F002FB607F461CF0B2042855
:1053900006D201F0FBFA701C6077C0B20F2804D36C
:1053A0000020A08301E001F0E9FA95F8FE0158B170
:1053B00098F80300013888F80300000604D10220A1
:1053C0002077282088F8030098F80200013888F830
:1053D0000200000640F05A84DFF8C8AC0F2088F8BD
:1053E00002009AF8480070B99AF8490058B99AF83A
:1053F0004A0040B99AF84B0028B99AF84C0010B905
:105400009AF84D0060B1DFF8980C90F8F811022975
:1054100004D029B9022180F8F81101E00021C1640B
:105420009AF8100048BB0120DFF87C5C00211422B0
:105430008AF8100008F13C00A84708F1500000214C
:105440001422A84708F1640000210022A847DFF8D1
:105450005C4C002100222046A84704F114000021E2
:105460000022A84704F128004FF496710022A847B3
:1054700004F13C0000210022A84700200FF6304133
:105480004FF0020B4FF0040E4FF080794FF0030CF9
:105490000026072E00F08A8051F826502B68AC8831
:1054A0009F68EB79042B59D827403C1BAF79B4FA9D
:1054B00084F46409DFE803F003311A2A0D00A742DF
:1054C00004D1E873288185F807B0A88100236B8197
:1054D00045E0A74232D1AA89EC7C531CAB81ECB3E6
:1054E0009AB2A2423AD3A881042338E0A7422BD132
:1054F0002A892B7C01322A8192B29A422ED3AA7B2E
:1055000001232881EB710132AA7328E0A7421ED142
:10551000002385F807B0AB6021E0A74225D12A8996
:105520006B7C01322A8192B29A4217D3EA7BAAB9E4
:1055300085F807E0C5F80C90032310E0002385F8F8
:1055400007B0EB732B810AE00023EB7107E06A8957
:10555000AB7C01326A8192B29A4219D200230AEBE3
:105560000602013682F8483093E76A7C2B8968810D
:1055700085F807B0934214D2AB7BA3B1012B07BFD0
:1055800085F807C00023E871A87318BF05230AE057
:10559000AA7BE871A873013AB2FA82F25209530069
:1055A000DDE70223A873E8732881D8E79AF848005A
:1055B000022810D0042821D1DFF8E40AFFF710FEFA
:1055C00005D3122900F0DC800F2940F0E78001208C
:1055D00088F8070012E0DFF8C80A90F84B120F298C
:1055E00000F2C980012248F20C038A401A4200F0FE
:1055F000C280002088F80700FFF790FD9AF8490064
:10560000042815D0022821D1DFF8940A90F84B1213
:105610000F2900F2AB80012248F20C038A401A42A3
:1056200000F0A480022088F80700FFF777FD0DE066
:10563000DFF86C0AFFF7D4FD05D3122900F0A7802C
:105640000F2940F0B580032088F807009AF84A0037
:1056500002280BD003280FD1DFF8440AFFF7B4FD6E
:1056600008D8FFF7DFFC05D00F2101E001200B2156
:1056700088F807108AF81C009AF84B0002280BD013
:1056800003280FD1DFF8180AFFF79EFD08D8FFF7AF
:10569000C9FC05D0102101E001200C2188F8071079
:1056A0008AF81C009AF84C0002280BD003280FD16E
:1056B000DFF8EC09FFF788FD08D8FFF7B3FC05D049
:1056C000112101E001200D2188F807108AF81C0043
:1056D0009AF84D00052832D0032825D0022840F042
:1056E0002F82DFF8BC5995F84B020438162800F2D7
:1056F0002582DFE810F017001101F80039013B01A5
:10570000FD00130118013F013D01CA0023020201FF
:10571000DB009F001D012C01510141019700F600A3
:105720005D019D00102007E2DFF8740990F84B023C
:105730000F2847D8FFF775FD44D0062043E0DFF877
:105740006009FFF74DFD06D20121FFF738FD0F215B
:1057500080F84B12F4E10F2940F0F28190F8FB1130
:10576000002958D0012959D1032155E00A1F0A2ADE
:105770002FD8092057E70A1F0A2A3BD8082039E703
:1057800090F8430201287FF439AF182020E790F801
:10579000430201287FF45AAF192055E715297FF4F9
:1057A0002DAF90F8460201287FF428AF20200FE7A4
:1057B00015297FF44BAF90F8460201287FF446AFDD
:1057C000212041E70A20022188F807008AF81C10EE
:1057D000B6E1103908293FF628AFDFE811F00900DB
:1057E0001001F1000501ED001F01280107013A0138
:1057F000122018E7103908293FF6FEAEDFE811F055
:1058000009000C01EA000101DE0020013201030160
:105810003B011220EEE6022180F84B120021FFF737
:10582000CEFC8DE195F84802012840F08781C1E067
:105830000D2081E195F84302012800F02581002820
:1058400040F07C810620D5E9094185F84B02D1481A
:105850006863E8626869FEF71DFF01462046FEF7AF
:10586000C7FECD490446FEF7A7FFCC4900281CBF60
:105870000024C4F2C8242046FEF782FF00281CBF83
:105880000024CCF2C8246C6258E195F8400201284B
:1058900000F00181002840F0518195F8FB010128BA
:1058A00000F0498100284FF0020045E1052085F80D
:1058B0004B0295F80002012885F84A0200F0ED80BD
:1058C000002840F03B810020C74985F80002686944
:1058D000FEF7E6FEC549FEF715FFFFF744FCE86159
:1058E0002CE10B2028E1012085F84302122023E15E
:1058F000012085F8460215201EE1042085F84B02A0
:1059000095F84002012885F8420200F0D680002870
:1059100040F014810020D1E011200DE1002085F835
:105920004702162008E1002085F84902182003E10B
:10593000072085F84B0295F80202002885F84402FA
:1059400000F0BF80012840F0F9800120BAE0082073
:1059500085F84B0295F84502012800F0B680002832
:1059600040F0EC800020B1E01320E5E01420E3E0FB
:105970001A20E1E01920DFE095F84702D0B10128B4
:1059800040F0DC80012085F84802172085F84B02A2
:10599000222088F80700D1E07E48686495F8460226
:1059A000012800F09680002840F0C8800920C3E05C
:1059B0000C20C1E00A20BFE01B2034E61B2019E6C2
:1059C00090F84312002900F0888001297FF42DAE61
:1059D000172028E690F84312002900F0848001295E
:1059E0007FF40AAE162005E61A201CE690F848124D
:1059F00001297ED000297FF418AE01217AE013201E
:105A000011E61A20F6E590F84812012975D0002910
:105A10007FF4F2AD012171E01320EBE590F846121E
:105A200000296ED001297FF400AE1F20FBE590F81D
:105A3000471201296AD000297FF4F7AD012166E001
:105A400090F84612002965D001297FF4D5AD1E20BB
:105A5000D0E590F84912012961D000297FF4E5AD25
:105A600001215DE090F8471201295CD000297FF404
:105A7000C3AD012158E090F84912012957D00029FF
:105A80007FF4BAAD012153E042486863E862002028
:105A900085F8430252E00F204EE001204FF04241D2
:105AA00085F80002E869FEF7A3FD5049FEF7F8FD0E
:105AB0004D49FEF727FE686140E0012085F840026D
:105AC0003CE0002085F8020238E0012085F804025D
:105AD00034E0002085F8460230E0FFF7A9FB2D49AD
:105AE0004163C162A1E5FFF7A3FB2A494163C1629B
:105AF00082E5002180F8481297E5002180F84812DD
:105B00007AE5FFF79CFB234941648EE5002180F88C
:105B100047128AE5FFF793FB1E4941646CE50021BB
:105B200080F8491281E5002180F8471264E50021E0
:105B300080F8491260E5032085F84B02FFF7EEFA82
:105B40009AF84E0002281CD1FFF7E8FA0E2088F8D8
:105B50000700DFF8904B94F808020130C1B2032926
:105B600088BF012084F80802C0B2032800F06C80CE
:105B7000022800F06680012840F07680D4F80C02FC
:105B800064E098F80700222800F280800FF21001EC
:105B9000D1E810F000007F430000C8420000C8C2F6
:105BA0002F00A30307032F037C007C00E9037C0084
:105BB000F302FC0285036E030A046F022E006202E8
:105BC00037049603DE032C047C007C00EC032102E6
:105BD000C00244043102B4027C007C0053025F0323
:105BE0003D028C04700400BF000010410000A04082
:105BF000AFE7DFF8900C0021DFF8E85A8166DFF8A4
:105C0000280BC16195F80002012800F0A684002845
:105C100040F01E856C69CB4F20463946FEF7BEFD2D
:105C2000FFF72BFBC849002E08BF38466861FEF716
:105C300037FDC649FEF766FDFFF795FAE86100F00B
:105C400007BDD4F8140201E0D4F81C0294F8001245
:105C50006061012908D1BC49FEF722FDBB49FEF76E
:105C600051FDFFF780FAE061DFF8180C0021C166F2
:105C700081660166C1658165DFF8AC0A0162C161B8
:105C800041610161C160242088F8070098F8000094
:105C9000013888F80000000640F00881AC49002077
:105CA000DFF844AA08606421D8F83400DAF8442008
:105CB0005B2AACBFDAF844205A22A0FB0110D317AC
:105CC000541A834109DAFFF766FA24184D4102F0AD
:105CD0002FFB001B71EB0500F9DB082002F0B4FA82
:105CE0000446FEF793FDDFF8FC9999F8FBB1C9F87B
:105CF0003800BBF1010F04D140F69800844207D868
:105D000009E0BBF1000F06D140F6FD00844202D34A
:105D1000042089F8FE01D9F81450DAF83C00D9F8CB
:105D20000440D9F824602946FEF762FD0746204664
:105D30003146FEF7AFFC47B9DFF8482B00219166EA
:105D4000DFF8E429CAF83C50D16198F8081082467F
:105D5000594518D0BBF1010F0AD0BBF1000F0ED18D
:105D6000DFF8200B00218166D8480421416006E05D
:105D7000DFF8B4090021C161D4480421016099F819
:105D8000FB0188F80800DFF8A079B7F85600092869
:105D90001BD897F8580002F057FAB7F856104E1C67
:105DA00007EB8104A7F85660FEF730FD0546E06278
:105DB000B7F85400FEF72AFD0146FFF7B3F9FEF7E6
:105DC0002AFDB1B2B0FBF1F111E0B7F854000A249A
:105DD000B0FBF4F1401AA7F8540097F8580002F00D
:105DE00033FAB7F85410084481B2B1FBF4F1A7F8C4
:105DF00054008808FEF70AFDC9F8040099F8FE016E
:105E000099F8F81130BB012924D1D9F81450B049C0
:105E1000FFF788F9064650463146FEF7DBFC38B9F5
:105E2000AC49FFF77FF901465046FEF7B7FCD0B109
:105E3000DFF8500A0025314685665046FD61FEF7C1
:105E4000C9FC434C10BB99F8FB01012814D0F8B9E8
:105E5000A14D1BE0002521B13D4C032916D0A8B966
:105E600016E03B4C12E099F8FB01394C30B10128A7
:105E70000ED1DFF8B40804E0984D07E0DFF8040A1B
:105E80004C3029465246FFF704FA0546C9F83C5003
:105E9000D9F83C00FEF7D8FC20604FF08040016844
:105EA00041F001010160052088F80000DFF8345856
:105EB00095F8FD01012802D020B9012000E003205F
:105EC00085F8F80195F8FA6126B3012E26D1DFF89E
:105ED0001878AC6C00200021F8742046FEF788FC8E
:105EE000D0BB012085F8F801B88D0130B88580B2AB
:105EF000B0F57A7F37D3397D0020B8850131397507
:105F0000C9B23C290AD3764938752046FEF770FBA2
:105F1000A86403E0DFF8D007C17C41B195F8F8012F
:105F2000022820D1DFF8C0070121817420E001217F
:105F300000228285A0F81310286C85F8F811A86457
:105F400011E000BF0000E143000010410000A0404C
:105F5000400000400000002095F8F8010128DFD142
:105F6000002085F8F801DFF88007807C012813D134
:105F7000E86C4FF07E51FEF73BFB5A49E864FEF7B0
:105F80000DFC48B9DFF860170020E8648874701EC3
:105F900018BF012085F8F801DFF84C07DFF8E44866
:105FA000416B013141632069804794F83500012835
:105FB00009D194F8340018B1013884F8340002E0B3
:105FC000022084F8350094F8440010B1013884F8B8
:105FD0004400BDE8F88FDFF80C7797F8000201283D
:105FE00040F02982F86940493C6BFEF701FBFFF75E
:105FF0003EF83B495EE3DFF8EC0690F80212012917
:1060000000F06B82002940F06D82012166E29AF86F
:106010001100DFF8D066FFF7F7F800F35B8201208C
:106020003249FFF730F9FFF783F83149FFF724F8D9
:10603000304C002D18BF04464BE2DFF8A8762D4DFA
:106040003C6C2946FFF774F8FFF717F9002E08BFDC
:106050002846B864386416E6DFF8881691F800021E
:10606000002800F0448201287FF40DAE01F509708C
:10607000D2E1DFF8704694F80012D4F81C0201292E
:10608000606108D11C49FEF70BFB1949FEF73AFB8A
:10609000FFF769F8E061DFF8EC070021032297E1E0
:1060A000F0210020000100208984000878000020F1
:1060B0003C000020500000206400002078000020F8
:1060C0008C000020A0000020B40000201008014037
:1060D0000000F0410000F0C10050504500401C4657
:1060E000000080BF00803B45000014C3008078445E
:1060F0000000A04000C0794400001041DFF8E40532
:1061000090F80412002900F0038201297FF4BBAD4E
:106110000021FEE1FFF79AF83FF7B5AD0120DFF867
:10612000C495FFF7B0F8FFF70CF800F05482002890
:106130007FF4A9ADD9F81460EE49D9F8284030466B
:10614000FEF7AEFAEC4DFEF7D9FFFFF70CF8EB497E
:10615000C9F830003046FEF74BFAE9490646FEF72B
:1061600047FA0146FEF7E4FF074620462946FEF7B8
:106170003FFA002F08BF30464CE2DFF8680590F880
:106180004B124A1C0D2988BF042207E0DFF8540592
:1061900090F84B124A1E052938BF0E2280F84B2278
:1061A00071E5DFF8E0060021DFF838558166DFF899
:1061B0007805C16195F80002012800F0B08100283F
:1061C00040F0C4816C69CF4F20463946FEF702FB90
:1061D000CD49FEF723FFC749002E08BF3846686146
:1061E000FEF75EFAC449FEF78DFAFEF7BCFFE861E0
:1061F000ACE1FFF72BF83FF746ADDFF8880600214A
:10620000DFF8E09481660A208AF81100DFF81805AB
:10621000C161FEF796FF00F00182002840F018826D
:10622000D9F81440B949FEF735FFB549FEF724FF08
:10623000B449002D08BF0846C9F81400AD49FEF75F
:106240002FFAAD49FEF75EFAFEF78DFFC9F81C0084
:10625000FEE1DFF890640021346CFEF71BFFAA49D1
:10626000FEF70AFF002D08BF2846B06430640AE537
:10627000DFF8704494F80012D4F80C020129606130
:1062800008D19C49FEF70CFA9B49FEF73BFAFEF752
:106290006AFFE061DFF8EC050021012298E0DFF8F9
:1062A000440490F84012012900F06E8100297FF427
:1062B000EAAC90F8FB210221012A08BF032164E126
:1062C000DFF8201491F80002002800F06281012814
:1062D0007FF4D9AC01F50B709EE0DFF8A815DFF86C
:1062E000482400208866D0619AF81130013B8AF872
:1062F00011305BB2002B3FF7C6AC88660A21DFF88D
:10630000E4938AF81110D061FEF71BFF00F0A4811E
:10631000002840F0BB81D9F81450F0492846FEF718
:106320003DFA754C064628462146FEF761F9EC49D0
:10633000002E08BF0846C9F81400EF49FEF7B0F96F
:106340002146FEF7DFF9FEF70EFFC9F81C009DE1BC
:10635000E44890F84012002900F01E8101297FF4E2
:1063600092AC002119E1DF4804210EE1DD4F97F8DE
:106370000002012800F0158100287FF484AC7D69BB
:10638000DD49BC6AFEF73DFFDA49FEF7BBF9FEF7CF
:10639000EAFED6493863FEF7C5FEFEF768FE0646FC
:1063A00020464FF07E515FE0CE4C94F80012D4F8B6
:1063B00014020129606108D1CF49FEF771F9CD4976
:1063C000FEF7A0F9FEF7CFFEE061D64800210222D9
:1063D000C16681660166C1658165D3480162C1619C
:1063E0004161016184F80822FFF74CBCBD4890F878
:1063F0000012002900F0E18001297FF444AC002163
:10640000DCE0B84991F80002002800F0DD800128A6
:106410007FF439AC01F50A701C31D8E0FEF716FFA5
:106420003FF731AC0120AF4FFEF72DFF97F8000288
:10643000012800F0328100287FF425AC7D69AE4947
:10644000BC6AFEF7DEFEAB49FEF75CF9FEF78BFE99
:10645000A7493863FEF766FE054620462946FEF743
:10646000B9F9AB4906462046FEF7C2F8002E08BF30
:10647000284630E19B48A149A34AC0F81C12A04914
:106480004261012280F84D2280F8042280F8022225
:10649000C0F814129B49C0F80C120021416280F828
:1064A000401280F800120164FFF7EDBB9AF811006A
:1064B0008C4EFEF7A9FE0DDC01208E49FEF7E3FEAF
:1064C000FEF7E8FD9149FEF7D7FD0446002D08BF11
:1064D0002C463464B464FFF7D6BB002180F8441224
:1064E00080F80212FF2180F80312FFF7CCBB01F500
:1064F00003706BE0000010410000A0400000C842A3
:106500000000A0C000004843000080BF00004D43D1
:10651000012180F8451280F80412FFF7B4BBEC6942
:10652000824F20463946FEF755F97949FEF776FD48
:10653000FEF70BFE08BF3846E861FEF759F86D49D3
:10654000FEF7AEF86C49FEF7DDF86861FEF7E6FD90
:10655000002085F80802FFF796BBEC69744F2046CF
:106560003946FEF71BF9FEF788FEFEF7EEFD08BF81
:106570003846E861FEF73CF85E49FEF791F85E495F
:10658000FEF7C0F8686163E00F2180F84B12FFF757
:106590007ABB01F5077019E00121FEF710FEFFF745
:1065A00072BBF8695D493C6BFEF722F8FEF75FFDB0
:1065B000064620464FF07E517EE0012180F84A12C7
:1065C00080F80012FFF75FBB01F505701431096810
:1065D0000160FFF758BBD9F81C005049D9F830408A
:1065E000FEF706F84E490546FEF702F80146FEF7AB
:1065F0009FFD4949FEF712FDFEF7A7FD08BF28469B
:10660000C9F83000FDF7F4FF3A49FEF749F83A4976
:10661000FEF778F8C9F82800FFF735BBD9F81C4019
:10662000424D20462946FEF7D5F83D49FEF7F6FCD7
:10663000FEF78BFD08BF2846C9F81C00FDF7D8FF00
:106640002C49FEF72DF82C49FEF75CF8C9F8140028
:10665000FEF764FDFFF717BBD9F81C40344D204608
:106660002946FEF79BF82C49FEF7D8FCFEF76DFD96
:1066700008BF2846C9F81C00FDF7BAFF1D49FEF700
:106680000FF81D49FEF73EF8C9F81400FEF746FD65
:10669000002089F80802FFF7F6BAF8691D493C6B3B
:1066A000FDF7A6FF1C490546FDF7A2FF0146FEF7D0
:1066B000F1FC164906462046FDF79AFFFEF745FD18
:1066C00008BF28463863FDF793FF0A49FDF7E8FF46
:1066D0000949FEF717F8B862FFF7D5BA0080DE4324
:1066E0000000E143F0210020000100200000C8422A
:1066F0000000C8C20000A040000010410000B443E8
:106700000000A04300008C430000AA430000A0C08A
:10671000000080BF000014C3000024420000544366
:10672000000024C278010020F00100200000C443D2
:10673000008052441848C16941F08051C161174935
:106740000A7842F004020A70C16921F08051C161E7
:10675000016841F00101016001688907FCD54168C9
:1067600021F003014160416811F00C0FFBD1016879
:106770000B4A114001600021416041F61071C16275
:106780004FF4801101634FF41F01816005484FF001
:1067900000610160704700BF00100240507000406F
:1067A000FFFFF2FE08ED00E02DE9F041069D02FB3F
:1067B00003F44FF000086400023DEEB20025352ED0
:1067C00002D8174D55F8265002440B44FEF799FCA9
:1067D000144F14B32846B8EB143F0BD1214602F0F6
:1067E00049FF0026A64203D2FEF7DAFC0236F9E79B
:1067F00000200FE04FF4805102F03CFF0026B6F578
:10680000805F03D2FEF7CCFC0236F8E7A4F5805097
:106810004FF4805425440446DBE7BDE8F08100BF17
:10682000589900084C020020BCB5154CE068800661
:106830000CD52068800609D56168124D05F1280045
:10684000C9B202F075FE4FF48270A886E068400677
:1068500010D5206840060DD50A4D6FF040000DF1AF
:106860000701206005F1380002F04FFE18B100204A
:1068700085F84500BCBD9DF807006060BCBD00BF49
:106880000038014078010020FEE700000648BFF311
:106890004F8F064A016801F4E06111430160BFF3C4
:1068A0004F8F00BFFDE700BF0CED00E00400FA05CC
:1068B000B0B54EF60451CEF200014FF00072EFF386
:1068C000108072B60A6080F3108840F20000C2F2B5
:1068D0000000816B4DF68362C4F21B32A1FB0223E0
:1068E00044F6D352C1F26202A1FB0212990C416339
:1068F00091090163EFF3108472B601F019FD40F2C3
:106900000015C2F20005C5E91401BFF34F8FBFF3B4
:106910006F8F01F00DFDD5E91412401A686440F242
:10692000781184F310880020C2F20001C5E9160036
:10693000C5E91800C5E91A00C5E91C00C1E9000055
:10694000C1E90200B0BD000010B500EB40010A280B
:106950004FF00702084B28BF1E3902FA01F14FF031
:106960000C0238BF1022D4582143D150596B21F06A
:106970001F010843586310BD0024014002484FF432
:1069800000410160704700BF1410014002484FF4FD
:1069900000410160704700BF1010014088B110B580
:1069A000104A01300021042909D000EB810302EBD9
:1069B000810401311B681BBAC4F80432F3E7BDE857
:1069C000104070470649074A0020042806D002EB11
:1069D00080030130D3F804320B60F6E70868704793
:1069E00000300240AC1F002032490A68C2F3810324
:1069F000314AF0B5DFE803F002380A380B6D9B0529
:106A000032D5CB6A9B0148BF2D4A2DE00B688C6ABA
:106A10001B0C002C13D40C680D68C5F34175C4F32E
:106A200083440DB90F2C43D12D0101352C44DB07D4
:106A300002D00B689B0300D5204A624314E08C6AA5
:106A40008D6A8E6ADB071D4BC4F30314C5F308255A
:106A500006F0070603D00F68BF0358BF134604FAB9
:106A600006F26B43B3FBF2F20260164C0B68C3F301
:106A70000313E35C144CDA4042600B68C3F3022357
:106A8000E35C22FA03F3C3600B68C3F3C223E35C45
:106A90000424DA4082600B68096804EA9363C1F356
:106AA0008131194409A3595CB2FBF1F10161F0BDD8
:106AB0000225BBE70410024000127A0000093D00E5
:106AC000006CDC027C6001088C600108020406088E
:106AD000020C08107CB5044600204FF6FF75C6B2C4
:106AE0000A2E09D8301901F015F9ADF80600B01CCE
:106AF000BDF80610A942F2D1BDF806007CBD000029
:106B00002DE9FE4FDFF8C48D98F8000001281FD052
:106B1000002840F0FF8798F81900DFF8B4BD01386D
:106B20009BF801429BF84B6288F819009BF8000221
:106B3000844200F02C85112E40F0FC84012800F0E6
:106B4000F184002840F0F6842A242B2000F0ECBCCD
:106B5000DFF87C9D99F8FB0118B101280AD1F249B0
:106B600000E0F249D9F83C00FDF7CCFDFDF753FEFB
:106B7000A8F81E0099F84B020F2840F08B8098F877
:106B8000020050B900202621EA22B72300901D20E0
:106B9000FEF734F8012088F8020099F8FE01002879
:106BA00040F0FD80D9F80460E14D30462946FDF7FC
:106BB00003FEDD4C00281CBF0026C4F2FA36304626
:106BC0002146FDF7DDFD00281CBF0026C4F2C826C3
:106BD000B8F81E70304621462A4602F06DFEA8F82D
:106BE0002E003846FDF712FE21460546FDF7E4FD6E
:106BF00000281CBF0025C4F2C82528460021002615
:106C0000FDF7BEFD002818BF0025284622460021BA
:106C100002F052FE4EF2284A4FF01F0B0025A8F852
:106C20003000CC2D3AD009EB050705F11D00009688
:106C300084B297F85C1097F85D3020462246FDF745
:106C400089FF97F8291197F82A31204622460096A5
:106C5000FDF780FFCB2D13D097F85E3097F85D10CD
:106C600020462246CDF800A0FDF774FF97F82B319F
:106C700097F82A1120462246CDF800B0FDF76AFFAA
:106C800097F85D00013587F85C0097F82A0187F8CE
:106C90002901C6E7002088F8020080E0B8F82E003D
:106CA000DFF830BC002448F20F4689F82801B8F814
:106CB000300089F8F5019F4880469F488246E0B23F
:106CC00005283DD8210621D0FDF7A0FD9B490746A8
:106CD000FDF7E6FC4146FDF78BFCFDF79CFD262108
:106CE0000246B7230096FDF735FF38464146FDF7CB
:106CF000D7FC5146FDF77CFCFDF78DFD01461D20BC
:106D0000EA2200960B46FDF725FF17E01D202621FD
:106D1000EA2226230096D8471D2026211D22B723CC
:106D20000096D8471D20B721EA22B7230096D847FE
:106D3000EA202621EA22B7230096D8470134BEE78D
:106D4000DFF8944B0C250FF6943240F25B102821AB
:106D5000FEF78FFA0FF6883240F253103C21FEF70F
:106D600088FA0FF6803240F253106421FEF781FA60
:106D70000FF6743240F253108C21FEF77AFA0FF6B8
:106D80006C3240F25B10B421FEF773FA0FF66032FA
:106D900040F26310DC21FEF76CFADFF8308B98F8D4
:106DA0000300D8BB0120D9F84010654CD9F8146015
:106DB00088F80300D9F80400C9F84810FEF7BBF9B9
:106DC000604DFEF79BF9FEF7CEF9C9F80800304692
:106DD000FEF7B1F9FEF792F9FEF7C5F9C9F81C0004
:106DE000D9F80C02FEF7A7F9FEF788F9FEF7BBF910
:106DF000C9F82402D9F81402FEF79DF9FEF77EF9CE
:106E0000FEF7B1F9C9F82802D9F81C02FEF793F988
:106E1000FEF774F9FEF7A7F9C9F82C0299F80002F9
:106E200099F80112814259D0012841D0002855D14A
:106E30004C46434954F8140F8A46FDF731FC41494A
:106E40008B46FDF75FFCFEF78EF92546A0605146A4
:106E500055F8100DFDF724FCFEF7DDF9FEF783F978
:106E600044F80C0CD4F8F801D4F80072D4F8086295
:106E70005146FDF715FCFEF7CEF9FEF774F9C4F89C
:106E8000100238465146FDF70BFCFEF7C4F9FEF739
:106E90006AF9C4F8140230465146FDF701FCFEF7CA
:106EA000BAF9FEF760F9C4F8180204F1140005E01D
:106EB00009F1080509F1300009F11C04DFF8D41CC0
:106EC00009F5037609F5077209F50573C1E904446C
:106ED000C1E90605C1E90856C1E90A3299F84B0231
:106EE0000F2800F29D80012148F20C0281401142DE
:106EF00000F0968099F8081299F80902884252D059
:106F000003280BD0022805D001281DD13120009084
:106F10003A2006E032200090822002E033200090E8
:106F2000CA20FEF733F920E00000C8420000044206
:106F30000000FA430000E84100001842000024422B
:106F4000000010410000A0403120DFF84C4CFEF75B
:106F500053F93A20A0473220FEF74EF98220A0478D
:106F60003320FEF749F9CA20A04799F80802032800
:106F70000BD0022805D001280CD1342000903A20F3
:106F800006E035200090822002E036200090CA20E2
:106F9000FEF7FCF8CC48FEF75EF888F8090099F88F
:106FA000080289F80902C8B3D9F81400D9F80C52BC
:106FB000FDF731FC04462846FDF72DFC84420BD03A
:106FC000D9F81402FDF727FC844205D0D9F81C0239
:106FD000FDF721FC844216D1D9F81C00FDF71BFCFB
:106FE0000446D9F82402FDF716FC844216D0D9F8DD
:106FF0002802FDF710FC844210D0D9F82C02FDF7CE
:107000000AFC84420AD098F8090038B9AE48FEF765
:1070100022F889F80802012088F8090099F84B0243
:107020000F2874D8FEF7FDF871D0D9E98340FEF738
:1070300085F830B1D9F82412D9F83002FDF7D8FB21
:10704000C8B9FEF77EF804D078B9DFF8480B406A7B
:1070500001E009F50970FEF743F8FDF7C9FF4A2082
:10706000CD21FDF7F3FED9F80C42D9F82402C9F876
:107070001042C9F83002D9E98540FEF75FF830B117
:10708000D9F82812D9F83402FDF7B2FBC8B9FEF7D7
:1070900058F804D078B9DFF8FC0A806A01E009F5F5
:1070A0000A70FEF71DF8FDF7A3FF9120CD21FDF733
:1070B000CDFED9F81442D9F82802C9F81842C9F807
:1070C0003402D9E98740FEF739F830B1D9F82C12EB
:1070D000D9F83802FDF78CFBC8B9FEF732F804D0B6
:1070E00078B9DFF8B00AC06A01E009F50B70FDF766
:1070F000F7FFFDF77DFFD820CD21FDF7A7FED9F8DA
:107100001C42D9F82C02C9F82042C9F8380299F873
:107110004D02012817D1DFF87C0A4189B1F5487F7B
:1071200004D140F21F31418117200AE00139418129
:10713000090408D1002189F84D124FF448714181AA
:107140000A2089F84B0298F8040099F8401298B97F
:1071500001290BD069B999F8FA01012809D899F8E1
:10716000FB210220012A08BF032000E00F2089F83C
:107170004B02012088F8040099F84B02002944D002
:1071800099F84C22824234D04F49FF2400900020CD
:107190004FF4A072D623002589F8094289F84142AC
:1071A00089F8014289F8054289F8FC4189F8F941DA
:1071B000C9F81012C9F84410C9F83410C9F82C10D5
:1071C000C9F80C10C9F81810C9F81812C9E98C11BF
:1071D000C9F83812C9F820121A21FFF7E5FA99F810
:1071E0004B0299F8401288F8195088F8054089F840
:1071F0004C0299F841228A422AD0102828D1C9B1DC
:10720000012922D12A242B2016E00F28B8D80122E8
:1072100048F20C0382401A42B2D099F8FA21012AAE
:10722000AED899F8FB210220012A08BF032089F873
:107230004B02A5E72B242A20FDF72FFFFDF767FF60
:1072400099F8401299F84B0200E0102089F8411299
:1072500013280FD199F80202012803D0B8B92A24C3
:107260002B2001E02B242A20FDF717FFFDF74FFF0D
:1072700099F84B0218280BD19B205621FDF795FF5A
:107280009B208821FDF791FF99F84B0200E0132025
:1072900099F8041299F805228A421AD0142818D1B4
:1072A00099F84502012803D080B92A242B2001E057
:1072B0002B242A20FDF7F1FEFDF729FF99F804128F
:1072C00099F84B0203E000BF00007F43142089F8C7
:1072D0000512A0F10C01CAB2022A0ED8C800CE498C
:1072E00058222223C0B221FA00F0B821C0B2009087
:1072F0007520FFF759FA99F84B02172809D8012190
:10730000814011F41B0F04D01F20FDF7CDFE99F82A
:107310004B0212280BD199F8430218B101283ED133
:107320001F2000E02020FDF754FF99F84B0215289C
:107330000BD199F8460218B1012830D11F2000E086
:107340002020FDF746FF99F84B02162814D199F832
:10735000470220B1012822D122241F2001E023244A
:107360002020FDF736FF8420842138221E2300943C
:10737000FFF71AFA99F84B02172809D12220842125
:1073800038221E2300908420FFF70EFA99F84B0252
:107390001838C0B2022802D82020FDF785FE99F8DF
:1073A000FE0199F8FF11814206D1881E032849D8B1
:1073B000DFE800F01E2A1236012189F8FF010528B6
:1073C00089F854103ED8DFE800F0033D131F072B67
:1073D000FF2089F84C0235E0FDF71AFE04D1372072
:1073E000FDF70FFE99F84B020F282BD1372022E032
:1073F000FDF70EFE04D11E20FDF703FE99F84B02A7
:107400000F281FD11E2016E0FDF702FE04D1212017
:10741000FDF7F7FD99F84B020F2813D121200AE060
:10742000FDF7F6FD04D12820FDF7EBFD99F84B029E
:107430000F2807D128200090412037218B22762366
:10744000FFF7B2F998F8010070B9FDF7F2FDFF20DF
:10745000052143F286121023FF24FDF75DFD012074
:1074600089F8034288F8010099F8530099F85410FC
:10747000814218D099F8F80140B101280AD12C2096
:10748000FDF719FEFF2089F8010208E02920FDF729
:1074900012FE04E0FDF7CDFDFF2089F8030299F804
:1074A000530089F8540099F84B020F281FD8012186
:1074B00048F20C028140114219D099F8F81199F85C
:1074C000F9218A4213D00F280CD059B91D204B2125
:1074D000C822722300904620FFF766F999F8F81148
:1074E00099F84B02012289F8F91189F8542099F88A
:1074F000022299F803320021934218BF132800F0AA
:1075000007832520012A08BF24200090EB200321B7
:1075100013221523FFF748F999F80202002189F890
:107520000302F5E22B242A20FDF7B7FDFDF7EFFD5E
:107530009BF80002012805D018BBFDF7C3FD0BD254
:107540002D2003E0FDF7BEFD0AD22E200090FA2088
:1075500058211322162312E0122812D11B2402E014
:1075600012280ED11C24E1205A2112221223009449
:10757000FFF71AF9E1208121122212230094FFF76C
:1075800013F99BF800429BF84B628BF801429BF881
:10759000F8712FB90F2E1CBFDBE90101CBE9030104
:1075A00098F91900002817DD9BF8FB019BF8FC11E6
:1075B000814200F0AD809BF84B1201F0FE010229E0
:1075C00040F0A680012800F08880002840F09580D7
:1075D0001020DFF8D02583E0012C1FD1DBF8045008
:1075E000C449DBF82490FDF70CFEC349FDF78AF887
:1075F000FDF7B9FD8246CBF8080048460021FDF7AB
:10760000F7F8A8B9BB494846FDF74AF8BA49FDF76B
:1076100079F8FDF7A8FD07E026262700DBF824907F
:10762000DBE9015A89F00040FDF7F5F888F8080019
:1076300032202946012E08BF0A200F2E08BF0A203B
:1076400088F81900DBF80C00FDF7D2F830B1DBF850
:1076500010005146FDF7CCF80028A5D1B01ECBE9AB
:10766000035A02282DD2012F9ED19BF80402002834
:1076700000F09680012897D128464946FDF70AF880
:10768000DBF814609D4981463046FCF7B1FF0146A6
:107690004846FDF791F89A4905463046FCF7A8FFA1
:1076A000002D7DD101464846FDF76AF8002877D1C4
:1076B000002C00F05082012C7FF476AFDBF81C0028
:1076C00032E20F2E7FF470AF9BF8FA01012872D1DD
:1076D000DFF8C004006A00687CE010200FF2BC42B2
:1076E00000904FF48C70B4214FF6FF73FDF7F9FB57
:1076F0009BF8FB018BF8FC010AE01020DFF8A424C2
:10770000B4214FF6FF7300904FF48C70FDF7E9FB46
:1077100098F8060088B1FDF7D5FC27D30F2832D0A2
:10772000122840F089809BF80002002860D00128D0
:1077300040F08280DBF81C005CE0DBE90510FDF71F
:1077400057F858B1DBE90710FDF752F830B19BF854
:10775000F8019BF8F911814200F092800120642128
:1077600088F80600DFF82C04818189E098F807008A
:10777000002861D1FDF739FD45D0002854D1DFF84C
:107780001404006941E098F80700002854D1FDF77F
:107790002CFD3FD0002847D1DFF8F80340693BE0DB
:1077A000002C00F0B981012C7FF4FEAEFDF79FFCA8
:1077B00001465046B6E19BF8040210B101287FF45F
:1077C000F3AEFDF794FC0146DFF8C803006A0068D9
:1077D000FCF70EFFFDF71FF80246102043F286115A
:1077E0004EF22843CDE9001040F21510A221A6E187
:1077F000DBF81400FDF70FF8FDF7FAFBBE20582167
:10780000FDF724FB18E00BF11C00FDF769FCFDF708
:107810005EFC05E00BF11C00FDF762FCFDF730FC9F
:107820004FF4FC63FDF712FBDBF81400DBF81C10CF
:10783000CBF81800CBF82010D64EB089471EDBE9F4
:107840000550B7812946FCF7D3FF30B1DBE907408B
:10785000FDF774FC002840F0E8809BF80002012846
:1078600009D1CA49FDF7CDFCC949FCF74BFFFDF72B
:107870007AFCCBF81C006420B081002088F8070057
:10788000DFF8109399F80400013889F80400000625
:1078900040F09380642089F804009BF8FB010128E4
:1078A0000BD078BBDBF83C00FDF701F8BE4ABF4BBC
:1078B000FCF762FDFDF70EF804E0DBF83C00B2498E
:1078C000FCF720FF0446C8F838001DE00001002046
:1078D000F0210020554B0008E34E00082500000071
:1078E00031303000373500003530000032350000CF
:1078F00030000000000010410000A0400000A04146
:107900000000A0C1D8F838402046FDF7ECFB10B9C4
:107910000024C8F8385098F80500FCF777FF0146B6
:107920002046FCF765FF002847D19BF84B0200F08A
:10793000FE0002283DD1FDF7DEFB42F2E4016228A1
:10794000009128BF6220052898BF052083212522A9
:10795000C0F164004843642180B2B0FBF1F5182007
:10796000282105F127042346FDF748F92F20214659
:107970000C220B2300901820FEF716FF43F69F50B1
:1079800005F132012422AF2300901820FDF736F9CB
:10799000D8F83800FCF73FFF0246102000214FF6D0
:1079A000FF73CDE900100820BE21FDF74FFAD8F88B
:1079B0003840FDF7A0FB88F805009BF84B020BF15F
:1079C00030050BF1280612281CD1DBE90A10FCF760
:1079D0000FFF20B1DBE90C10FCF70AFFB0BB9BF8EE
:1079E00043020BF134070BF12C04A0B101281AD18A
:1079F0009BF8000201282BD0A8B9D9F818004FF441
:107A0000FC692CE00BF11C010BF114022F463446EB
:107A100016460D4632E09BF8000201281CD010B932
:107A2000D9F8180019E0122028E038047FF428AFB4
:107A3000FDF748FB80F086809BF80002002800F0EC
:107A40008E80012840F09C8020468AE000251DE0C1
:107A50004FF4FC69284602E028464FF6FF79FDF70F
:107A60003FFB0246182043F286114B46CDE9001039
:107A7000BE207F21FDF7EAF99BF84B0231681538EB
:107A8000B0FA80F02160296845093960DBE91040CF
:107A9000FDF754FBC8BBC5B39BF84602012803D0D1
:107AA00088B94FF6FF7501E04FF4FC65FDF723FB45
:107AB0000246202043F286112B46CDE90010AA2071
:107AC0006721FDF7C3F93A4D00244FF0200943F236
:107AD0008616AA27042C14D0611EC8B202280ED81C
:107AE000C90007EB04104FF6FF73CDE90069C9B276
:107AF00080B225FA01F1CAB27B21FDF717F90134F2
:107B0000E8E7DBF84000CBF8440098F80000411C9F
:107B100088F80010BDE8FE8FFDF7E9FA01461D4820
:107B2000C0690068FCF764FDFCF775FE024678202A
:107B300000214FF6FF73CDE9001044204421FDF7EA
:107B400085F931E50F281BD19BF8000270B101289F
:107B500016D120460CE00F4800690068E4E7306960
:107B60000068FCF758FEFDF7B2FA05E0706900689E
:107B7000FCF751FEFDF784FA4FF4FC63FDF766F95C
:107B80000020A8F806007BE60000C8420000104173
:107B90000000A04000000020A967000853323435DF
:107BA00000000000946001080AD7A3703DAA40407D
:107BB0004D696E0002684BF6EF731A4002600A8945
:107BC00003681A4302604A7C036802F0030223F44C
:107BD000405343EA02320260CA7B036802F00302A8
:107BE00023F4406343EA822202608A7B036802F046
:107BF000030223F4407343EA022202604A7B0368D3
:107C000002F0010223F0800343EAC21202600A7B01
:107C1000036862F3861303600A7C036862F345130A
:107C200003604A8942600A6882604968C16070479F
:107C3000016821F001010160002101604160816063
:107C4000C16040F2FF4100EA01020B49B2F5816FC9
:107C500004D3D208902A0ED801F5806100F0FC0010
:107C600014220838B0FBF2F00F22800002FA00F074
:107C70000A68104308607047040002400448017815
:107C800009B90121017003484AF6AA210160704731
:107C90004C1A00200030004050B100220023282B55
:107CA00002D0C2500433FAE780F82C100021816220
:107CB0007047000010B52B4C226842F00102226090
:107CC00001804FF4801000F017F8FDF773BA00BF81
:107CD00008480168C9071CBF0020704701684907B0
:107CE00044BF012070470068C0064FF0020058BF33
:107CF000032070470C200240B0B50446FFF7E8FFB0
:107D00000025013C45F1000118B911B1FFF7E0FF72
:107D1000F7E7B0BD81B00168D0F801008DF8001020
:107D20008DF801009DF801009DF8001041EA002047
:107D3000ADF80200BDF8020001B0704710B5094C63
:107D4000216841F0020121606060206840F040003D
:107D500020604FF08040FFF7CFFF206820F0020046
:107D6000206010BD102002402DE9FE4FDFF804B75F
:107D70009BF80A00032800F28B80DFE800F0028BFA
:107D8000096A9BF80B00002800F03781012030E1E0
:107D9000AF48DFF89865AF4900F10A0481469BF8C7
:107DA0000F00884610F0010508BF01F10804D6F85D
:107DB0000C02FCF730FDDFF83874FDF72FFA09F1FB
:107DC0000C04002D08BF08F10A04D6F81402FCF7D1
:107DD00022FDFDF723FA09F10E04002D08BF08F17A
:107DE0000C04D6F81C02FCF716FDFDF717FA09F192
:107DF0001004002D08BF08F10E04306CFCF70BFDD9
:107E0000FDF70CFA09F11200002D08BF08F110006F
:107E100096F84012B84796F84002346CD6F81452DF
:107E20008BF80E00D6F80C02D6F81C62FCF7F3FCB7
:107E3000ABF824002846FCF7EEFCABF826003046F1
:107E4000FCF7E9FCABF82800FDF755F98BF80D00BD
:107E5000CCE07F489BF80F207E491430D20708BF42
:107E600001F11200BBF82A10FFF724FFDF48C168B8
:107E700041F08001C16001208BF80A00BBF82A00A4
:107E80000130ABF82A009BF80F0001308BF80F008F
:107E9000BDE8FE8FBBF82000FCF7B8FCDFF88C844F
:107EA0000146D8F81400FCF7A3FC002849D0BBF821
:107EB0002200FCF7ABFC0146D8F82400FCF798FC44
:107EC00000283ED098F800029BF80C10814238D16F
:107ED000C84898F8021242798A4232D198F80412BE
:107EE000807988422DD19BF80D00FCF78FFC01466C
:107EF000D8F84000FCF77CFC18B3BBF82400FCF772
:107F000085FC0146D8F80C02FCF772FCC8B1BBF83E
:107F10002600FCF77BFC0146D8F81402FCF768FC4D
:107F200078B1BBF82800FCF771FC0146D8F81C02B8
:107F3000FCF75EFC28B198F840029BF80E108142D5
:107F4000A6D0AA48AC49DF4E0160AC493446016076
:107F50009BF80F0010F0010708BF04F5806420466D
:107F6000FFF7ECFED8F81400FCF755FCA04D0146D5
:107F70002046A847B41C002F04BF4FF60244C0F6A9
:107F80000304D8F82400FCF746FC01462046A84725
:107F9000301D954C002F08BFA01C98F80012A84770
:107FA000B01D002F08BF201D98F80212A84706F147
:107FB0000800002F08BFA01D98F80412A84798F8E1
:107FC00000028C49D8F824408BF80C0098F8020283
:107FD000487198F804028871D8F81400FCF71BFC6B
:107FE000ABF82000FDF787F8ABF822009BF80A00F9
:107FF00001308BF80A00BDE8FE8FB24C2046FEF738
:1080000069FD4FF6FF75A84211D004F58060FEF7B8
:1080100061FDA8420BD004F11400FFF77BFE04467B
:1080200071481230FFF776FE844205D80DE02046F5
:10803000FEF750FDA84202D000F016F923E004F547
:108040008060FEF747FDA84206D000F03DF91AE037
:1080500000F8030802FC0308B4486A4A6849C0F8FB
:108060001422694AC0F81C124161C0F80C22012296
:1080700080F8042280F80222002280F80022426266
:1080800080F840220264A94E60497469FDF702F845
:1080900018B95F49FDF749F808B9594C746196F869
:1080A00000025C49022824BF002086F8000296F8EE
:1080B0000272022F24BF012786F80272019096F8FF
:1080C00004A2BAF1020F24BF4FF0010A86F804A2FD
:1080D000D6F840804046FCF77DFB20B940460021A1
:1080E000FCF76AFB18B94FF00008C6F8408096F814
:1080F0000602022824BF002086F8060296F807022E
:1081000010B1002086F80702D6F82490424948466C
:10811000FCF760FB20B941494846FCF74DFB18B914
:108120004FF00009C6F824900294D6F80C42374963
:10813000FCF7B0FF18B93649FCF7F7FF10B9324C1D
:10814000C6F80C420094D6F814423049FCF7A2FF5E
:1081500018B92F49FCF7E9FF10B92A4CC6F81442A8
:10816000D6F81C5229492846FCF734FB20B9284987
:108170002846FCF721FB10B9214DC6F81C5296F891
:108180004002022824BF002086F840028BF80E002F
:10819000019901208BF80B0086F84E0248468BF8B7
:1081A0000C10144981F806A04F71FCF734FBABF8B2
:1081B00022000298FCF72FFBABF820002846FCF7C2
:1081C0002AFBABF82800FCF796FFABF826000098D6
:1081D000FCF721FBABF824004046FCF71CFB8BF8B6
:1081E0000D00BDE8FE8F00BF02FC03080420024022
:1081F000B57C00080000002023016745AB89EFCD66
:108200000000BE430000AF430000A0430000E14374
:10821000000048430000C6420000C8420000C8C237
:1082200010B5074C0749206840F0010020609548D0
:1082300001604FF48010FFF75FFDFCF7BBBF00BF8C
:1082400010200240384B544180B5FEF77DFB0548B5
:10825000816841F48001816001688907FCD5C06CA8
:1082600080B280BD0024014070B5164C2E4D2046D2
:10827000A847FCF7CBFA2D4E7061A01CA847FCF76D
:10828000C5FA7062201DA84786F80002A01DA84705
:10829000FCF777FFFCF770FFFCF7B8FAFCF767FF15
:1082A000FCF7B4FAFCF75AFFFCF7B0FAFCF751FF01
:1082B000FCF7ACFA306404F11200A84786F84002DB
:1082C00070BD00BF00F8030870B5164C164D20466F
:1082D000A847FCF79BFA154E7061A01CA847FCF755
:1082E00095FA7062201DA84786F80002A01DA847D5
:1082F000FCF747FFFCF740FFFCF788FAFCF737FF75
:10830000FCF784FAFCF72AFFFCF780FAFCF721FF60
:10831000FCF77CFA306404F11200A84786F84002AA
:1083200070BD00BF00FC0308157D0008F02100208F
:1083300010B54EF21403CEF20003EFF3108C72B6B8
:1083400018685968D3F8F02C401A4FF0000E6EF1FF
:10835000000152010BD518685968401A19686EF16E
:108360000002401842F10001013041F1000140F2E9
:10837000001EC2F2000EDEE916238018DEE91C247E
:108380005941821A71EB040204DADEE91C018CF314
:10839000108810BDCEE91C018CF3108810BDF0B51B
:1083A0008B790A88032B0AD05BB94979282913D025
:1083B000182912BF01F00F01026108210EE000210F
:1083C0000CE00C79C97903F0080304F0040401F00F
:1083D00003012344194401E042610821130616D029
:1083E00000230F240025082D11D022FA05F6F607E8
:1083F0000AD0076804FA03F627EA0606066001FABF
:1084000003F607683E43066004330135EBE7B2F537
:10841000807F17D3120A00230F240025082D11D0C6
:1084200022FA05F6F6070AD0476804FA03F627EAA7
:108430000606466001FA03F647683E434660043389
:108440000135EBE7F0BD00000A48C07E022818BFE6
:10845000704710B5084C0948206009482060094859
:10846000FFF76CFCFFF7DCFEE06840F08000E060A6
:1084700000F04CFE0001002004200240230167456B
:10848000AB89EFCD00380008A0B110B5142444F634
:108490000133038202F11303002A18BFB3FBF4F285
:1084A000C27401F11302002918BFB2FBF4F1817408
:1084B000BDE810407047000088B05C4F5C485D4CE0
:1084C0007860206840F00100206020688007FCD5BB
:1084D000606820F003006060606810F00C0FFBD152
:1084E000206855490840142120600020606041F652
:1084F0001070E0624FF4801020634FF41F00A06002
:108500004E480160606A40F001006062606A800766
:10851000FCD5206840F48030206000202168890369
:1085200004D4411CB0F5405F0846F7D320688003AF
:108530004FF00000F2D5206840F001002060206874
:108540008007FCD56068482140F480306060606836
:1085500020F400306060E06A61F310200121E062E5
:10856000E06A61F307100221E062E06A61F3020051
:10857000E062E06A40F00040E062206840F0807015
:10858000206020688001FCD56068042120F0F000A4
:108590006060606861F3CD206060606861F30A200C
:1085A00002216060606D40F030006065606861F3DA
:1085B000010060607046FCF751FE86467046FCF78D
:1085C0004DFE8646606800F00C000828FAD1606D08
:1085D00020F0300060656068C0F38101184802290E
:1085E00009D000294BD1616D890548D5216B8901DE
:1085F00048BF144843E06168E26A090C002A25D4A8
:1086000062686368C3F34173C2F3834213B90F2AEC
:1086100040F02F851B0101331A44C90702D061685D
:10862000890300D50848504329E000BF04ED00E06D
:108630000040000800100240FFFFF2FE0020024050
:1086400000127A00006CDC0200093D00E26AE36A75
:10865000E56AC9070449C2F30312C3F3082305F00E
:10866000070507D002E000BF00093D006668B603B9
:1086700058BF014602FA05F05943B1FBF0F0DFF8AC
:10868000FC39DFF8FC294FF0000A4FF00408FC4DDC
:1086900098636168C1F30311515CFA4AC84093467C
:1086A00098630223606940F001006061606940F0F6
:1086B00040006061A06940F00100A061A06940F045
:1086C0000400A061A06940F00800A061A06940F02A
:1086D0001000A061A06940F02000A061A06940F0F6
:1086E0008000A061A06940F40070A061A06940F41E
:1086F0008050A061A06940F48040A061E06940F032
:108700000100E061E06940F48040E061DE4811581A
:1087100063F3124111504FF6FF014FF0FF32B8687A
:108720000840DA490843B860B86887F814A0B86808
:1087300087F815A0B86887F816A0B86887F81BA056
:10874000B86887F81CA0B86887F81EA0B868C0F39E
:108750000220C11E80F0070038BF5146042828BF00
:10876000404602FA00F0C04388400001F877B8683C
:10877000C74880F800A02020C5F8F40001A8FEF743
:1087800033F92868DFF8FC9840F0040028604FF4C3
:108790007A700299B1FBF0F001386860C5F808A062
:1087A000286840F003002860BA4802904FF4104057
:1087B000019001AE58463146C847B749C020ADF8D0
:1087C0000980019001F540600D463146C847B34F1E
:1087D0004FF45E703146ADF8098001903846C847C5
:1087E0004FF40041AE4A28464FF4C058BB46696179
:1087F00040F61415BD50C7F81480AA4FCDE90117F3
:108800003146C8479F483146CDE90157C8475846C9
:108810003146CDE901875F46C8474FF4C0404FF469
:108820004175314601909C48ADF80950C847012078
:108830003146ADF80950019092488346C84740F24E
:1088400086403146ADF809503D4601903846C8474C
:10885000954E3046FFF7ECF940F20110CDF80CA030
:10886000CDE901AAADF814A004904FF48040ADF812
:108870000C0001A93046FFF79DF9C6F804A0C6F820
:1088800008A0C6F80CA0306840F0010030604FF43A
:10889000007006908548079006AE07465846314658
:1088A000C8474FF480603146069081480790804663
:1088B0005846C84701A8FEF797F803987D4A4FF439
:1088C000E1314FF6FF7300EB80004000B0FBF2F2A5
:1088D000B0FBF1F102EB8200A1EB400004287648E6
:1088E00088BF013250F8041C9943114440F8041C1D
:1088F000016821F480510160416821F440514160D8
:10890000016841F008010160016841F00401016063
:10891000016821F400710160016821F48061016047
:10892000816821F480718160816821F40071816027
:10893000016841F020010160016841F040010160DF
:10894000016841F40051016020200297019001AEBE
:1089500058463146C84740203146CDE901085846BF
:10896000C84780203146B846CDE901075846C84778
:10897000524F012040F2011B4FF480768DF81CA06D
:108980008DF81F00ADF81DB0069606A9384600F018
:10899000FBFD386840F0400038604FF40050CDF8DF
:1089A0000880019001AF28463946C8474FF48040FF
:1089B000394601903E4802902846C8474FF400408F
:1089C0003946CDE901082846A846C84706963C4ED8
:1089D0008DF81CA04FF0010AADF81DB08DF81FA056
:1089E00006A906F5006000F0CFFDD6F8000840F0BB
:1089F0004000C6F80008334802900220019001AF01
:108A0000204839468346C84703203946CDF804A09C
:108A100001258DF80A004046C847606865F38F302D
:108A20006060606820F080506060274C54F8040C4F
:108A300020F4807044F8040C206820F002002060CC
:108A4000206820F400602060606A20F4700060629A
:108A50000820FDF779FF206820F000702060206872
:108A600040F460202060206840F48010206054F8BA
:108A7000040C20F4006044F8040C00F027B800BF98
:108A800010E000E00008014030F8FFFF0003FA05A5
:108A900025E400E00004000100100140000C01404A
:108AA00014FCFFFF0004100208000240000408024A
:108AB00000040002009411000C3801400030014015
:108AC000003000400004030108240140206840F009
:108AD00001002060206840F0080020602068000746
:108AE000FCD4206840F00400206020684007FCD4DB
:108AF00008200190F848029001A95846FFF74FFC62
:108B00004FF0804042F20F724FF000084FF0010921
:108B1000DFF88435DFF88455DFF88845DFF8E8783A
:108B2000016821F070010160016821F44071016069
:108B3000016821F080010160E8498A6240F21F1259
:108B40004A620A6942F001020A614A6822F0800220
:108B50004A600A6822F070020A600A6822F4004241
:108B60000A600A680A600A6822F480420A600A6899
:108B70000A608A6922F440728A618A6942F4E0429A
:108B80008A61C1F83C808A6922F400628A61CA69FC
:108B900069F30F32CA618A6922F480628A610268CD
:108BA00042F001020260DFF8EC24886840F0010026
:108BB0008860CB484FF0FF318160016821F01801D7
:108BC0000160C849C160016821F06001016001686D
:108BD00021F080010160016841F00101016045F26E
:108BE0005550DFF8AC143060706820F007007060FA
:108BF0000920B0604AF6AA203060DFF8B80CDFF830
:108C0000A064C7E90821C7E90653C0E9042180F838
:108C10008480C0E90064C0E90253DFF88C04642159
:108C2000C7E90464A847BA69DFF880040A219047BD
:108C3000BA69DFF87C0405219047BA69DFF874044B
:108C400001219047BA69DFF8700401219047BA69A1
:108C5000DFF86804C8219047DFF86454012105F16A
:108C60002C00FFF719F8DFF85C040821FFF714F86F
:108C7000DFF8541407F1280000F038FCDFF84C143A
:108C800007F1380000F032FC9748984CC7F86C8028
:108C9000C7F86880C7F86080C7F85C80C7F858805C
:108CA0009349944A944BDFF828643867786793486F
:108CB00004F50064C5F82080C5F81C80C5F8148050
:108CC000C5F81080C5F80C806862C7E91243C7E98F
:108CD00014218B4A8B4BA960EC494FF40064C5E921
:108CE0000032A862E84804614450C820B0477820A8
:108CF000CBF81040B047DFF8DC531120A8477820AC
:108D0000B0473620A8473620A847DFF8CC6370204C
:108D1000B0473A20A8470520B047B220A8470C200A
:108D2000B0470C20B0470020B0473320B047332075
:108D3000B047B720A8473520B047BB20A847192027
:108D4000B047C020A8472C20B047C220A847012028
:108D5000B047C320A8470D20B047C420A847202013
:108D6000B047C620A8470F20B047D020A847A4206E
:108D7000B047A120B047E020A847D020B04700204E
:108D8000B0470520B0470F20B0471020B04728203B
:108D9000B0473420B0475020B0474420B0473A2075
:108DA000B0470B20B0470620B0471120B047202025
:108DB000B047E120A847D020B0470020B0470520A9
:108DC000B0470A20B0470B20B0471620B0473220EA
:108DD000B0474020B0474A20B0472B20B0471B2067
:108DE000B0471C20B0472220B0471F20B0472920A1
:108DF000A847002000214FF4A072F023CDF8008096
:108E0000FBF7FCFEFCF71EF9FCF71CF9B34D022042
:108E1000B34E4FF4CD71B92285F8F80140F201202C
:108E2000C5E90988A5F85080C5F84880C5F8408094
:108E3000EE616E61C5F8048085F8008085F8538086
:108E4000C5F83080C5F83880A5F8FD81A5F8FA018D
:108E500005F15C00FBF7A6FBA248874A4FF00071C2
:108E600085F83C9285F8049285F8029285F8008294
:108E7000C5F81C6285F80A82C5F8068285F840822A
:108E8000C5F83C80DFF8F4B1C5F814029648C5F87F
:108E90000C0240F20110C5F84B02EFF3108072B6DD
:108EA0001160924980F31088DBF83800B0FBF1F1D3
:108EB000CBF834104FF47A71B0FBF1F0CBF83000FE
:108EC000EFF3108472B6FFF733FADFF8689AC9E956
:108ED000140100F019B800BF0004080204000040AB
:108EE00008300240B71DC104005050450030014019
:108EF00000002041CDCCCC3D0000484200401C4643
:108F0000CDCCCC3E0000C842BFF34F8FBFF36F8F74
:108F1000FFF70EFAD9E91412DFF8D4A1401A802124
:108F2000C9F84400734884F31088C9E91688C9E970
:108F30001888C9E91A88C9E91C88C7E900888AF82D
:108F40000080C7E90288FBF734FB6B4A4FF6FF76D7
:108F5000182141F2210389B1147886EA04266FF0C2
:108F6000070444B135B27000002D48BF83EA4600C3
:108F700006460134F5E701390132ECE7DAF8200062
:108F80005E49884218D1BAF80210B0B2814215D1B8
:108F9000DAF81C00411CCAF81C10A0B15849002086
:108FA000B0F5806F21D00A18D3685C0144BF23F06C
:108FB0004063D3601030F3E7CAF820100120AAF80C
:108FC0000260CAF81C004E4800244FF48061CAE9D0
:108FD0000144CAF80C408AF80140FBF7EAFADBF8D2
:108FE0003800CAF81840CAE90440464C0020002165
:108FF000FE22A0470F20EF21EF22A0470420FE21F0
:10900000FE22A047FBF7BCFC3F4CDAF81430DAF83C
:109010001C2001462046FBF7DFFC9AF8000050B9FF
:1090200001208AF80000FBF7ABFC0146601C00221F
:109030000023FBF7D1FCDBF83000D9F8442040F6E0
:10904000B8315B2AACBFD9F844205A22A0FB0110EA
:10905000D317541A834109DAFCF79DF824184D41BF
:10906000FFF766F9001B71EB0500F9DB78698047B3
:10907000FCE70223FFF7D0BA04ED00E00000002077
:109080007C6001089F830008000C014014FCFFFF76
:109090003D98000869980008A99700087D97000886
:1090A00099980008099800087D7C00084984000808
:1090B000697D0008016B00085592000811910008B5
:1090C000F0010020C02100204C1200204C1600208E
:1090D0001D990008814F0008994F0008F0210020D9
:1090E0000000BE430000AF430000A04340420F0019
:1090F000001F0020801E0020309A00086B27A5E189
:10910000801A0020C54A000800FF0003FDF7BEFBDF
:10911000F8B54B48B74A0168C9050DD4D17D002385
:1091200013760131D175C9B2022916D3454C0121FC
:10913000D37584F8FA110FE0137E0021D175013345
:109140001376DBB2022B08D33E4B117683F8FA116B
:10915000937D012B08BF517691750168090705D5EC
:109160000168C90602D4012100270AE00168090745
:1091700002D40168C90602D40221012701E00027B8
:109180000021304E86F8FB110021006840064FF0A8
:10919000000007D497494A7D01324A75D1B20629A9
:1091A00004D3012186F8FD119249487596F8F8011B
:1091B000012821D174682449FBF76CFF054600287B
:1091C00018BF012509D12149FBF7AFFF002887F01F
:1091D000010118BF012008420ED1B6F8500001303D
:1091E000A6F8500080B20A280FD31FB91849FBF720
:1091F00051FF58B1052006E096F8FE110020A6F8B0
:109200005000042901D086F8FE01F8BD1049FBF793
:109210008FFF002818BF0120054201D00320F2E78C
:109220000A49FBF782FF0028EFD196F8FA010028DF
:10923000EBD196F8FE010428E7D00220E3E700BF57
:10924000080C0140F0210020008009440000704219
:1092500000002F442DE9F843664DA87E0130A87622
:10926000C0B205285FD3DFF8908198F8000001288C
:109270003CD0002855D1614F0A20002687F808010C
:109280000220C7F80961C7F80D61A7F81161A7F8B6
:1092900006015B48C7F8020107F58170FDF77EFB08
:1092A000FDF790FB28645748DFF85C91016809F1ED
:1092B000380441F001010160F02087F81701286CA3
:1092C000010E87F8160187F81311010C000A87F8C0
:1092D000141187F81501162E0ED0B81990F8021146
:1092E000204600F025F9C0B90136F4E742480221D2
:1092F00005F11B08017011E099F8450001280CD018
:109300000DF10301204600F000F9D9F848009DF85E
:1093100003104160012089F8450000BF022088F851
:1093200000000020A876384F97F8350002285BD15E
:10933000DFF8C880002407F1280508F101094E462E
:109340002846314600F0E1F8002804BF0134013618
:109350000228F5D1002088F8014187F83500E0B2F5
:10936000162845D198F80100D1283DD198F816006B
:10937000F02839D14846FDF711FBFDF723FB2149C1
:109380000A6842F001020A6098F81210B1EB106FFF
:109390002AD198F81320C0F307418A4224D198F8C3
:1093A0001410C0F3072291421ED198F81510C0B2D4
:1093B000814219D198F8022098F8031098F8050016
:1093C000012A08BF012905D0022A08BF012906D0B9
:1093D00000BF09E00028F7D10748002103E000287A
:1093E000F6D10548012101700448002180F80111DF
:1093F000BDE8F88300010020C8000020AC1F002059
:10940000D101010008300240780100202DE9F04F21
:1094100081B04EF21400CEF2000040F20015066852
:10942000EFF3108A72B6C2F20005D5E916014FF0CB
:109430000108B8F1010250EB060206F1010741F103
:109440000001384442F2404BC5E91601C2F2000B5C
:10945000DBF80000B8F1010140F2000956EB000111
:10946000C2F200094FF00001D9F8302007EB0004E8
:1094700041F1000120460023FAF7A6FED5E91823A2
:1094800012185941C5E91821D9F83010002300FB02
:109490001140B8F10101CBF8000042F2444B8AF3CD
:1094A0001088EFF3108A72B6C2F2000BDBF80000EE
:1094B000D9F8342056EB00014FF0000107EB00040F
:1094C00041F100012046FAF77FFED5E91A23121870
:1094D0005941C5E91A21D9F8341000FB1140CBF8E5
:1094E00000008AF3108801B0BDE8F08F8160002190
:1094F0004FF480630022016083809A4228BF704746
:109500008368995401328388F7E74288038893423D
:1095100004BF0220704783689A5C0A704288818881
:109520000132B2FBF1F303FB1121418000207047AF
:10953000B0B502888388541CB4FBF3F505FB1343D4
:109540004488A34204BF0120B0BD836899540288B7
:1095500081880132B2FBF1F303FB1121018000206D
:10956000B0BD000083490A6822F002020A600A685E
:1095700022F001020A6088604868C007FCD0886851
:1095800048680006FCD47047C26922F40062C261D8
:109590000A78032A27D8DFE802F0021A060E0268CA
:1095A00022F4004202E0026842F4004202600268D3
:1095B00022F4804206E0026842F40042026002683F
:1095C00042F480420260026822F480620AE002688B
:1095D00022F400420260026822F4804202600268C3
:1095E00042F480620260CA79036802F0010223F447
:1095F000007343EA422202604A78012A06D1CA79FE
:10960000012A03D1026842F4807202E0026822F467
:10961000807202604A78036862F3820303608A788A
:10962000436823F48073072A88BF03F5807343607F
:109630008A78036862F3C5030360CA78036802F09E
:10964000010223F0800343EAC21202600A79036830
:1096500002F0010223F4006343EAC22202604A7965
:10966000036862F3410303608979026861F30002D1
:10967000026070472DE9F04F87B005463A48102741
:109680003A4C884647600320A047C5F30740A047EF
:10969000C5F30720A047E8B2A047354CA5208DF8B8
:1096A0001B0004F11C0A5046FEF7C2FA04F1300612
:1096B0003046FEF7BDFA0DF11B000DF10409ADF8BF
:1096C0000C700027ADF80E8002902A484946049796
:1096D000ADF8147000F10805834630460195FEF799
:1096E00069FA25484946ADF80C70ADF80E80ADF822
:1096F0001470CDE901504FF4807004905046FEF78D
:1097000059FADBF8000040F00200CBF80000DBF86B
:10971000000040F00100CBF80000E06940F00100DB
:10972000E061206B40F00100206320688006FCD5DA
:1097300020200D496060E06920F00100E061206BAD
:1097400020F001002063DBF8000020F00200CBF8DD
:109750000000DBF8000020F00100CBF80000102032
:10976000086007B0BDE8F08F10080140659500085B
:1097700000000240043001404C0200204D4A92F8A3
:109780008430082B84BF0120704710B55C1C03EBAC
:10979000430382F8844002EB830290610020D1836E
:1097A000918382F8200010BD70B5424A154992F8A5
:1097B00084300BB30C6802F1180624F001040C602D
:1097C0005C1C013C18D006F10C05366886422E461A
:1097D000F7D1581EC3B282F884005B0053FA80F0C0
:1097E00002EB8000D0E9062345E9032390F820002E
:1097F00005F8040C002000E001200A6842F0010294
:109800000A6070BD10E000E070B52A4C002694F8A4
:10981000840004F11805864228BF70BDA98849B9A3
:10982000297A012906D0E988A980296811B18847D9
:1098300094F884000C350136EDE700BF10B51D4AE1
:1098400002F1180392F884200132013A04BF01208A
:1098500010BD03F10C041B6883422346F5D10020A0
:1098600004F8041C10BD00BF10B5124A02F1180321
:1098700092F884200132013A04BF012010BD03F1A7
:109880000C041B6883422346F5D1002024F8061CF3
:1098900024F8081C10BD00BF064901F11C0091F816
:1098A000841031B102880AB1013A028001390C30CA
:1098B000F7E77047241F002070B514460D46064692
:1098C000FAF76CFF002818BF2E4630462146FAF7FB
:1098D00081FF002818BF264628463146FAF7DAFEEF
:1098E000064620462946FAF7D5FE01463046FAF7E5
:1098F00009FF4FF07E51FAF77BFE0649FAF7D0FEDA
:10990000FAF7D5FF044B0022FAF78FFCFAF7B0FF05
:10991000433070BD0000E6420000E03F05490130E1
:1099200028BF4FF0FF304A6B4B6B9B1A8342FBD32F
:10993000704700BF0001002002E008C8121F08C1E4
:10994000002AFAD170477047002001E001C1121FC0
:10995000002AFBD17047000000580200006F04008D
:1099600000860600009D080000B40A0000CB0C0031
:1099700000E20E0000F9100000101300002715008F
:10998000003E170000551900006C1B0000831D00ED
:10999000009A1F0000B1210000C8230000DF25004D
:1099A00000F62700000D2A0000242C00003B2E00AA
:1099B0000052300000693200008034000097360009
:1099C00088993600109C3600304E370054CE370050
:1099D00060E037006CF2370090723800B07F3800DA
:1099E000D08C3800EE8F38000C9338006CAA380009
:1099F000CCC13800F0413900484739001A4A3900D3
:109A0000EC4C39004452390088553900CC583900A3
:109A1000D4593900D49A3900D4AE3900D4C23900AF
:109A2000D4D63900D4EA3900D4FE3900D4123A0031
:109A30000100010140000000801A0020801E00206B
:109A4000001F0020000000000000000000000000D7
:109A500000000000000004040404040000040000EE
:109A600014140A00000000000000000000000A0AB0
:109A70001F0A0A1F0A0A000000040E1505060C142E
:109A8000150E0400000012150D152E2C2A120000D0
:109A90000000040A0A36151529160000020201000A
:109AA0000000000000000000100808040404040482
:109AB000080810000204040808080808040402004A
:109AC00000000004150E0E15040000000000000840
:109AD000083E080800000000000000000000000030
