:020000040800F2
:104000006028002089410008E7510008114C000891
:10401000E5510008794A0008CD6B00080000000057
:104020000000000000000000000000001D55000816
:104030007B4A0008000000001B550008AD41000845
:10404000A3410008A3410008A3410008A3410008C0
:10405000A3410008A3410008A3410008A3410008B0
:10406000A3410008A3410008A3410008A3410008A0
:10407000A3410008A3410008A3410008A341000890
:10408000A3410008A3410008A3410008A341000880
:10409000A3410008A3410008A3410008A341000870
:1040A000A3410008A3410008A3410008A341000860
:1040B000A3410008A3410008A3410008A341000850
:1040C000A3410008A3410008A3410008A341000840
:1040D000A34100086D6B0008A3410008A34100083C
:1040E000A3410008A3410008A3410008000000000C
:1040F00000000000000000000000000000000000C0
:1041000000000000A3410008A341000800000000D7
:10411000A3410008A34100080000000000000000C7
:10412000A3410008A3410008A3410008A3410008DF
:10413000000000000000000000000000000000007F
:10414000000000000000000000000000A341000883
:104150000000000000000000A3410008A341000887
:10416000000000000000000000000000A341000863
:10417000DFF810D000F0E2F900F098FA00480047AC
:10418000E987000860280020064880470648004765
:10419000FEE7FEE7FEE7FEE7FEE7FEE7FEE7FEE7F7
:1041A000FEE7FEE7556A00087141000830B410B51B
:1041B0000348804730BCAE4630BC024800477047D9
:1041C000A9970008215500082DE9F05F0546002059
:1041D00092469B4688460646814640241BE0284678
:1041E00041464746224600F0D0F953465A46C01A87
:1041F000914110D311461846224600F0B7F92D1A06
:1042000067EB01084F4622460120002100F0AEF97D
:1042100017EB00094E41201EA4F10104DFDC4846E3
:1042200031462A464346BDE8F09F2DE9FE4F8046C1
:1042300081EA0300C00F0C46009021F0004123F0FA
:104240000045B8EB0200A94105D240462146904600
:104250001C460B46024623F00040104347D0270D72
:10426000C7F30A00C3F30A510290401A0190402894
:104270006BDAC3F3130040F4801B0098924620B120
:104280000023D2EB030A63EB0B0B01985946C0F1F4
:104290004002504600F06AF906460D46504659461F
:1042A000019A00F082F910EB08006141002487EACE
:1042B000115284EAE7731A4340D0009A62B3019A1C
:1042C000012A4FEA075215DC001B61EB02014FF097
:1042D000004202EA0752CDE90042001C41F580117C
:1042E00032462B4600F082F903B0BDE8F08F40461D
:1042F0002146F9E7001B61EB0201001C41F5801328
:1043000000185B412018A2F5001747EB030140EAB3
:10431000D570B6196D4111E06D084FEA360645EAD1
:10432000C0754FEA0752001B61EB0201001C41F50A
:10433000801149084FEA30000019514132462B469E
:1043400003B0BDE8F04F00F042B9009801224000F0
:104350000023D0EB020263EBE073009821464FEAA2
:10436000E074B8EB000061EB0401E9E783F000437F
:104370005BE781F0004158E72DE9FE4F81EA030435
:1043800004F0004421F0004100944FF0000B23F0B2
:10439000004350EA01045ED052EA03045BD0C3F349
:1043A0000A54C1F30A552C44A4F2F3340194A0FB3F
:1043B0000254C1F3130141F48011C3F3130343F416
:1043C000801301FB024400FB034E840A970A44EA6F
:1043D000815447EA8357A4FB076802958D0A05FBC1
:1043E00007854FEA932C04FB0C542705029D4FEAE6
:1043F000065847EA1637B5EB08056EEB070C870E33
:10440000920E47EA811742EA8312A7FB0201B6EB3C
:104410000B0164EB00042B0D43EA0C335E1844EBF4
:104420001C50DA465146E7FB0201C5F313044FEA7C
:104430000B3343EA14534FEA0432019C43EA060368
:10444000A4F10C040294009CCDE900B400F0CEF875
:1044500003B0BDE8F08F00200146F9E72DE9F04DEB
:1044600081EA030404F0004B21F0004514464FF0AC
:10447000000A23F0004150EA050220D054EA01026C
:104480001DD0C5F30A570246C5F31303C1F3130049
:10449000C1F30A5640F4801543F48013A7EB0608D5
:1044A000101BD64608F2FD3873EB050002D308F165
:1044B000010801E092185B41B8F1000F03DA002017
:1044C0000146BDE8F08D00204FF480110646844679
:1044D0000EE0171B73EB050705D3121B63EB0503F7
:1044E00006434CEA010C49084FEA300092185B4140
:1044F00050EA0107EDD152EA030012D082EA04002B
:1045000083EA0501084305D0101BAB4106D2012206
:10451000002306E000224FF0004302E06FF00102AA
:1045200053101AEB06004CEB085110EB0A0041EB5C
:104530000B01BDE8F04D00F04AB800001CB5094879
:104540000090094801900546009C06E0E06840F0B4
:10455000010394E8070098471034AC42F6D3FFF704
:104560000BFE000084660108A4660108202A04DB13
:10457000203A00FA02F1002070479140C2F1200376
:1045800020FA03F3194390407047202A04DB203AB5
:1045900021FA02F00021704721FA02F3D040C2F163
:1045A00020029140084319467047202A06DBCB17AA
:1045B000203A41FA02F043EAE07306E041FA02F3DE
:1045C000D040C2F12002914008431946704710B50F
:1045D000141E73F1000408DA401C41F10001921826
:1045E0005B411A4301D120F0010010BD2DE9F04DCF
:1045F00092469B4611B1B1FA81F202E0B0FA80F224
:1046000020329046FFF7B2FF04460F4640EA0A0008
:1046100041EA0B0153465A46084313D0114653EA68
:10462000010019D0C8F140025046FFF7AEFF054621
:104630000E46504659464246FFF798FF084305D0BC
:10464000012004E020463946BDE8F08D00200543F6
:1046500046EAE0762C4337430A986305E40AA0EB68
:1046600008000022FD0A44EA47540A3002D500201F
:104670000146E9E7010510196941DDE9084500191E
:104680006941BDE8F04DA2E7D2B201E000F8012B8C
:10469000491EFBD270470022F6E710B513460A46C2
:1046A00004461946FFF7F0FF204610BD7CB50748C9
:1046B0000090074801900546009C04E020460168F0
:1046C00008448047241DAC42F8D17CBDA466010893
:1046D000A8660108F0B480EA0102D40F4200B2EBF0
:1046E000410F02D20246084611464A0042D0C30D8D
:1046F000DDB2C1F3C752AD1A202D35DAC1F3160170
:1047000041F4000204B15242C5F1200602FA06F15A
:104710002A411044B3EBD05F23D0C4B1012DA0EBEC
:10472000C35009DCF0BC4FF0004202EAC352DBB2D6
:1047300000F5000000F072B9400000F1807000EB5D
:10474000C350A0F1807040EAD170490009E04908E7
:1047500041EAC071A0EBC35000F50000400800EB37
:10476000C350F0BC00F051B96142012202EB41019B
:10477000001BF6E7F0BC704781F00041AAE780F02B
:104780000040A7E780EA010210B502F000434000B4
:1047900022D04A001FD0010E01EB1261C0F3560077
:1047A000C2F3560240F4000042F40002A0FB0220D3
:1047B00000047F39140400D0401C50EA124001D498
:1047C0004000491EC2B20C0604EBD010401C400849
:1047D000802A02D003E0002010BD20F00100002953
:1047E00000DA0020184310BD30B480EA010202F064
:1047F000004530F0004221F0004013D090B1C30DCD
:10480000D40DC2F31601C0F31600E41A41F40001FE
:1048100040F400027D34914201D3641C00E0490061
:10482000002C02DA30BC002070474FF40000002357
:10483000914201D3891A034340084FEA4101F7D15D
:1048400051B1914202D14FF0004105E002D24FF048
:10485000010101E06FF0010103EBC450284430BCBA
:1048600000F0D3B8002801DBC0F10040002901DBD3
:10487000C1F10041814201D80120704700207047FA
:10488000002801DBC0F10040002901DBC1F100413B
:10489000814201D20120704700207047002801DBCF
:1048A000C0F10040002901DBC1F10041814201D388
:1048B0000120704700207047002801DBC0F1004054
:1048C000002901DBC1F10041814201D9012070477B
:1048D00000207047002801DBC0F10040002901DB07
:1048E000C1F10041814201D1012070470020704791
:1048F00096230022114600F091B80EB540F23341E4
:1049000002910021CDE900110A460B46FFF76EFE29
:1049100003B000BD00F0004220F00040C10DC0F324
:10492000160040F400007F2901DA00207047962924
:1049300003DCC1F19601C84001E096398840002AA5
:10494000F4D04042704720F00040C10DC0F3160083
:1049500040F400007F2901DA00207047962903DC2B
:10496000C1F19601C840704796398840704770B5CC
:10497000C1F30A5201F000450024C1F3130140F2D3
:10498000FF3341F480119A4201DA002070BD40F2F9
:1049900033439A42A2F2334203DC5242FFF7F5FD61
:1049A00000E090402C43F1D0404270BD00F0004246
:1049B00030F000400AD0C10D01F56071C0F316005F
:1049C00042EA0151C20840071143704700200146E6
:1049D000704701F0004330B421F0004150EA010279
:1049E00006D00A0DA2F56072C1F31301002A02DCA1
:1049F00030BC00207047440F44EAC104C100E018F5
:104A000030BC00EBC250AFF300800029A8BF704754
:104A1000401C490008BF20F00100704710B4B0FAF4
:104A200080FC00FA0CF050EA010404BF10BC70478F
:104A300049B1CCF1200421FA04F411FA0CF118BFA9
:104A4000012121430843A3EB0C01CB1D4FEA006178
:104A50004FEA102042BF002010BC704700EBC3504B
:104A600010440029A4BF10BC7047401C490008BF77
:104A700020F0010010BC7047FEE77047B0B54E4C07
:104A8000A1690D4603F0DCFD85420FD9EFF31082DA
:104A900072B6A169A94205D12369A06101332361DE
:104AA000BFF35F8F02B962B6A94211D054E8061F66
:104AB000A94208D1BFF35F8F44E806022AB9BFF3C9
:104AC0005F8F012202E0BFF32F8F0022002AD8D08F
:104AD000B0BD00BF2DE9F04F4FF080554FF00054AE
:104AE000DFF8D8C04FF0070805EAD10504EA9204C0
:104AF000284320434FF0804404EA530440EA040E64
:104B00002D4C04F10C0BB8F1000F4BD054E8010F01
:104B1000451C44E80156002EF8D100F4707500F0F1
:104B20003F000CEB00194EEA853A4F4657F80C5FF0
:104B300028466D0116D400F0004545EA0A0545F007
:104B4000406657E8005F854206D147E8006028B913
:104B5000BFF35F8F012002E0BFF32F8F00200028FA
:104B6000E6D002E0A8F10108CDE723F0004086F08E
:104B7000004322F0004221F0004104F1080B03F051
:104B8000004528442A442944C9F80800C9E900120C
:104B900023F08060BFF35F8F57E8001F47E80001F4
:104BA0000029F9D15BE8000F01304BE80001002932
:104BB000F8D1BDE8F08F00BF401F0020C01A0020D0
:104BC0002DE9F041DFF8448000234FF0010E4FF053
:104BD000000CBCF1040F08BFBDE8F08120FA0CF70F
:104BE000FF070FD00F4697420CD803EBD70407F00E
:104BF0000706013718F804500EFA06F6354308F890
:104C00000450F0E70CF1010C2033E2E7C01E002055
:104C1000FEE700002DE9F843DFF82C9007462A2034
:104C2000984615460E46C847084C3846A0472846C1
:104C3000A0472B20C8473046A0474046A0472C201D
:104C40004946BDE8F8430847795100085D5100081E
:104C50002DE9FE4F0C46A3EB010B111A0546002966
:104C6000029101DD012008E005D002984042029047
:104C70004FF0FF3001E000200290BBF1000F0190E7
:104C800001DD012607E019BFCBF1000B4FF0FF3625
:104C90004FF0000B002602985F464FF000084FF0DF
:104CA00000094FF0000A584588BF07461FFA88F0F0
:104CB0008742B8BFBDE8FE8FA8B2A1B202460B463C
:104CC000FFF7A8FF0C9800F049FA0AEB0B0008F177
:104CD0000108B842C8BF34440299019A4944B94214
:104CE000C8BF1544B0EB070AD8BF8246B1EB07092D
:104CF000D8BF8946DAE700002DE9F04F89B00746B2
:104D0000129815461C460E46ADF80A00501E82B297
:104D1000581E83B23846FFF77DFF40494FF480505C
:104D20000DF10C084860A11B3E4C3D4EE81B4FF6B0
:104D3000FE7501FB00F706F10C0004F1440904F1D3
:104D4000580A0190306840F400603060484603F033
:104D5000D5F8504603F0D2F800204FF6FE7B4146CE
:104D6000ADF814000DF12200AF4238BFBB46ADF8DC
:104D700016B00490019803902B4806904FF44070B1
:104D8000ADF81C00484603F07BF810204146ADF812
:104D900016B0ADF8140003208DF81D004FF480709C
:104DA000ADF819000DF10A000490504603F068F8C0
:104DB000706840F002007060706840F00100706040
:104DC000606C40F001006064A06D40F00100A065DF
:104DD00020688004FCD54FF400504FF6FE756060EB
:104DE0007F1B606C20F001006064A06D20F001006A
:104DF000A065706820F002007060706820F001000B
:104E00007060306820F4006030609BD8F3494FF444
:104E10008050086009B0BDE8F08F00BF100C014061
:104E20000038004000000240000001012DE9F04F71
:104E300087B0119D1C46904600EB55024B1900F0BF
:104E400037FA012029096F08109E4FF0000B7A07EE
:104E500018BF00EB151101FB05F00690A8F120002A
:104E600033490023C2B2C2EB0210059201EB80105D
:104E70000490344800EB02100390304800EB82109D
:104E800002902C4800EB02200190069883424CD0FF
:104E9000782D23D0102D1FD00598182D00EB400041
:104EA0000BD0202D14D0382D0BD0402D12D00C2D2E
:104EB0003BD1254901EB800011E0214901EB0010B5
:104EC0000DE005981C49C0EBC00001EB401006E066
:104ED000029804E0019802E0039800E004981D465F
:104EE00018440BF108084FF0000A90F80090BAF14E
:104EF000080F13D029FA0AF0C007204608BF304631
:104F000000F02CF90BF1010B5FFA8BF0B0FBF7F11D
:104F100001FB170020B10AF1010AE8E7C34601E0EE
:104F20004FF0000B6B1C119DAFE707B0BDE8F08F91
:104F3000A4A40008644C0108A4350108E41D01087C
:104F4000140C01082406010830A000082DE9FE4FCA
:104F500007460D98994692460E4600254FF00A08DE
:104F60004FF0000B4408032D08BFBDE8FE8FC5F1CC
:104F700002000121020604D001EB81010138490041
:104F8000F8E7BAFBF1F0BBF1000FB0FBF8F101EB71
:104F90008101A0EB410105D1012D03D8080411D0F6
:104FA0004FF0010BDDE90C2041F030014B46CDE91B
:104FB000002005FB0470CAB2314680B2FFF736FF0D
:104FC0000135D0E7DDE90C1030224B46CDE9001069
:104FD00005FB0470314680B2FFF728FF4FF0000B4D
:104FE000EEE72DE9FC47DDF82880994615460E4688
:104FF00007464FF0000A4FEA58042A784AB1B8B27F
:1050000031464B46CDE900A8FFF710FF2744013594
:10501000F3E7BDE8FC8700002DE9F04F87B00C46B0
:105020003A490546FFF7AEFBFFF774FC0A26B0FBD2
:10503000F6F101EB8101A0EB410B4BF03000039046
:105040002846FFF767FC81B200258C274FF018082F
:1050500043F286194FEA0B4BB1FBF6F1B1FBF6F2C6
:105060004FF0FF3602EB8202A1EB420201EB81011D
:10507000A0EB410042F03003120440F030014FEA4F
:10508000004A0692DAB2C8B2059204900398C0B200
:105090000390052D37D056FA85F1032931D805EB59
:1050A0004500DFE801F0021B0810069907EB8000BD
:1050B000F9B1059A18E007EB8000CDE900986B2163
:1050C0002E2280B21AE007EB8000BBF1000F10D057
:1050D000039A80B26B21CDE900980FE007EB8000C6
:1050E000BAF1000F05D0049ACDE9009880B26B2187
:1050F00004E0CDE9009880B26B2130222346FFF70F
:1051000095FE0135C5E707B0BDE8F08F00002041EE
:105110002DE9FE4F1C469046894683465D080026D1
:105120000FF2300A0027072F08BFBDE8FE8F781E58
:10513000C0B205280BD81AF800200BEB0600494630
:105140004FF6FF73CDE9008480B2FFF76FFE2E4467
:105150000137E8E756312E312E30000010B50446F5
:105160000A484FF480710160200A00F011F8E0B2A3
:10517000BDE8104000F00CB8B0B5044C4FF4807599
:10518000656000F005F82560B0BD00BF1008014063
:1051900010B512494FF480524A60114A136823F047
:1051A00002031360136823F00103136000235468A3
:1051B000A40704D45C1CC82B2346F8D90AE09060ED
:1051C00000205368DB0704D1431CC8281846F8D9CF
:1051D00000E090684FF48050086010BD100C014052
:1051E00004380040FEE770470246182043F286115B
:1051F0004FF6FF73CDE9001070474B218B227623C9
:1052000000905A2001F060BC002000214FF4A072F1
:10521000F023CDF8009001F057BC05462046294602
:10522000FFF72EBBC9E98D00C9F83C02C9F824027A
:10523000C9F81C02C9F8140270470246102043F254
:105240008611CDE9001040F215105A217047016215
:10525000C16141610161C160C16481640164C16374
:105260007047BB21422223230090802001F02CBCF8
:105270002046FFF721BB9BF85002811E0229704790
:105280000246202042F2E401CDE90010BE20212197
:105290007047064620464FF07E5170470090EC2044
:1052A00063211322132301F00FBC0068FFF732BB08
:1052B000013A013B92B29BB2FFF7ACBC0021002542
:1052C000FFF7FABA98F80800FFF712BB2046FFF77D
:1052D00001BA20463946FFF7EFBA2046FFF7DEBA9B
:1052E00001462046FFF7CCBA2946FFF77DBA1421C4
:1052F000002200232847EC2083211322132300944B
:1053000001F0E2BB2846FFF7E5B92146FFF73ABABC
:105310002146FFF7DFBABE214022282301F0D4BB8B
:10532000B85B00BA000CFFF719BF8C1A60EBE2758E
:1053300003F086B942F224121823FFF7E9BE86F87B
:10534000440204F114002847C6F8200204F11000BA
:105350002847C6F8180204F10E0028474FF0844190
:10536000FFF7B8B9C6F8100204F10C00284786F818
:10537000080204F10A00284786F8060204F1080032
:105380002847206820F00100206010BD90F85012DE
:1053900002201A29704790F850128A1E022A70477C
:1053A000BE214022282300907047012088F8070082
:1053B0009BF80402012870475946FFF715BA2846A2
:1053C000FFF7E0B900908020BB214222232301F0A7
:1053D0007BBB0138746C8AF8110040B2002870471A
:1053E0002046FFF797BA014620463047816495F87A
:1053F000040201287047012180F84A12252180F813
:1054000050127047012180F847121F2180F8501276
:10541000704701208AF82000704799F8040201289B
:10542000704700BF00BF00BF00BF00BF00BF00BF8C
:1054300000BF00BF00BF70479AF8110001388AF81A
:10544000110040B20028704748F20F4300952047F2
:105450008AF820000A208AF81100704799F8500253
:1054600000F0FE0102297047FEB5044608461146C9
:10547000FFF782F960616069E169FFF72BF9E0618C
:10548000E069616AFFF7FCF908B9606AE061E06908
:10549000FFF714FF00B9E561D4E90057606921699D
:1054A000FFF76AF9A06138466669E169FFF76AF9B2
:1054B000616A0290019102980199FFF7D3F908B946
:1054C000019802900298019981F00041FFF7E6F9F6
:1054D00018B9019880F00040029028463146FFF745
:1054E00051F90299FFF7F6F80546A068A169FFF7A0
:1054F00049F92946FFF7EEF8206260692061206AC9
:10550000A16AFFF7AFF908B9A06A2062206AFFF725
:10551000D5FE00B92562206AFEBD704770470000C5
:105520002DE9F84FDFF8FC8C98F80100013888F875
:105530000100000639D1DFF8F05C142088F8010082
:1055400095F80602012830D1DFF8E04C94F82000ED
:10555000C8B1012804D0022817D194F8216007E0CF
:1055600001F0B6FB94F82100461CF0B2042807D2E3
:1055700001F0AEFB701C84F82100C0B20F2804D3E8
:105580000020208401E001F09BFB95F8020260B14D
:1055900098F80300013888F80300000605D10220BE
:1055A00084F82000282088F8030098F802000138C9
:1055B00088F80200000640F08A84DFF870AC0A2008
:1055C00088F802009AF8500070B99AF8510058B95A
:1055D0009AF8520040B99AF8530028B99AF8540042
:1055E00010B99AF8550060B1DFF83C0C90F8FC1146
:1055F000022904D029B9022180F8FC1101E0002120
:1056000001659AF8100050BB0120DFF8245C1421DA
:10561000002214238AF8100008F13C00A84708F182
:105620005000002100221423A84708F16400FFF76E
:105630005EFEDFF8004C1421002200232046A8471C
:1056400004F11400FFF753FE04F1280014214FF475
:1056500096720023A84704F13C00FFF748FE0020A3
:105660000FF6D4314FF0020B4FF0040E4FF080795B
:105670004FF0030C0026072E00F08A8051F82650C8
:105680002B68AC889F68EB79042B59D827403C1BCA
:10569000AF79B4FA84F46409DFE803F003311A2A1D
:1056A0000D00A74204D1E873288185F807B0A881CE
:1056B00000236B8145E0A74232D1AA89EC7C531CC0
:1056C000AB81ECB39AB2A2423AD3A881042338E06A
:1056D000A7422BD12A892B7C01322A8192B29A428D
:1056E0002ED3AA7B01232881EB710132AA7328E013
:1056F000A7421ED1002385F807B0AB6021E0A74286
:1057000025D12A896B7C01322A8192B29A4217D321
:10571000EA7BAAB985F807E0C5F80C90032310E0EE
:10572000002385F807B0EB732B810AE00023EB71AF
:1057300007E06A89AB7C01326A8192B29A4219D23F
:1057400000230AEB0602013682F8503093E76A7CA8
:105750002B89688185F807B0934214D2AB7BA3B143
:10576000012B07BF85F807C00023E871A87318BF95
:1057700005230AE0AA7BE871A873013AB2FA82F223
:1057800052095300DDE70223A873E8732881D8E7A4
:105790009AF85000022810D004281FD1DFF8880A98
:1057A000FFF7F9FD05D31F2900F006811A2940F003
:1057B0001181012088F8070010E0DFF86C0A90F8EA
:1057C00050121A2900F2F3800122AF4B8A401A428C
:1057D00000F0ED80002088F807004BE19AF85100B6
:1057E000042812D002281ED1DFF83C0A90F850128B
:1057F0001A2900F2D7800122A34B8A401A4200F0F6
:10580000D180022088F8070016E1DFF81C0AFFF7B4
:10581000C2FD05D31F2900F0D6801A2940F0E4808C
:10582000032088F807009AF8520002280ED00328B7
:1058300012D1DFF8F409FFF7A9FD0BD8012202FA13
:1058400001F1914A114205D00F2101E001200B2105
:1058500088F807108AF820009AF8530002280ED022
:10586000032812D1DFF8C009FFF790FD0BD8012201
:1058700002FA01F1844A114205D0102101E0012011
:105880000C2188F807108AF820009AF854000228A2
:105890000ED0032812D1DFF89009FFF777FD0BD85F
:1058A000012202FA01F1784A114205D0112101E0EA
:1058B00001200D2188F807108AF820009AF8550079
:1058C000052800F05380032842D0022840F072825D
:1058D000DFF85459012495F8500204382C2800F2BE
:1058E0006782DFE810F0500165025401650215017E
:1058F000650252016502190165023B01650256010C
:105900006502630165028801650286016502040182
:10591000650265023F0165021B016502D300650255
:1059200068016502770165028D0165022D002D0079
:1059300065023901650299016502FE0065023701C1
:10594000102085F8500295F84B0285F80C022FE2E2
:10595000DFF8D40890F850021A284FD8012101FA34
:1059600000F04949084249D0062048E0DFF8B8086D
:10597000FFF711FD08D201211A2280F8502280F889
:10598000461280F844123CE01A2940F0138290F845
:10599000FF11002900F07380012940F0728000217E
:1059A0000322EAE70A1F142A2DD808202AE70A1F33
:1059B000142A46D809200EE790F8470201287FF400
:1059C0000DAF1820F6E690F8470201287FF42BAFC0
:1059D000192026E725297FF401AF90F84A02012813
:1059E0007FF4FCAE2020E5E625297FF41CAF90F87B
:1059F0004A0201287FF417AF212012E70A2088F815
:105A000007000224D4E11B39132915D8DFE811F06F
:105A10005E0114006E011400640114005A011400A8
:105A20003D01140041011400170017001400150176
:105A300014008E0114002901FFF7EBFCF3E624208B
:105A4000E0E61B39132915D8DFE811F044011400F2
:105A50005C011400520114003E01140021011400E5
:105A600033011400170017001400010114007B011A
:105A700014001501FFF7CDFCB0E62420ABE60222AE
:105A80007BE700217BE700BF0C00000495F847028C
:105A9000012800F00781002840F08A810820D5E91C
:105AA000094185F85002D8486863E8626869FEF7E2
:105AB00063FE0146FFF70AFCD4490446FEF7EEFEFA
:105AC000D34900281CBF0024C4F2C8242046FEF796
:105AD000C9FE00281CBF0024CCF2C8246C6201243B
:105AE00066E195F84D02012840F06281A3E095F847
:105AF0004402012800F0EC80002840F0598195F81C
:105B0000FF01012800F0518100284FF002004DE113
:105B10001F2085F8474249E1232047E1062085F808
:105B2000500295F80402012885F84F0200F0EC803D
:105B3000002840F03D810020C94985F804026869C9
:105B4000FEF720FEC749FEF74FFEFFF707FCE861AE
:105B500001242DE1162029E1122027E1252085F8D6
:105B60004A4223E1042085F8500295F844020128B6
:105B700085F8460200F0D780002840F01981002007
:105B800085F8440214E11B2010E121200EE11D20C4
:105B90000CE195F80C02012800F0DE80002840F0AE
:105BA0000781002085F84B022720FFE0002085F8C0
:105BB0004E022A20FAE00A2085F8500295F80602E3
:105BC000002885F8480200F0CB80012808BF85F83E
:105BD0000642EDE00C2085F8500295F849020128B4
:105BE00000F0C280002840F0E380002085F8080221
:105BF000DEE03020DAE0002085F84C022C20D5E0F1
:105C00008148A86495F84A02012800F0B080002875
:105C100040F0CE800E20C9E095F84C0258B1012822
:105C200040F0C6802E2085F84D4285F85002222093
:105C300088F80700BCE01420B8E090F84E12012963
:105C400000F0998000297FF4F7AE012194E090F8EC
:105C50004E12012900F0938000297FF40BAF01213F
:105C60008EE090F84D12012900F08D8000297FF41C
:105C7000E3AE012188E090F84D12012900F0878001
:105C800000297FF4F7AE012182E01B20BAE51B203A
:105C9000A1E590F84A1200297DD001297FF4CCAE0D
:105CA0001F20AFE558486863E862002085F8470286
:105CB0007EE090F84A12002972D001297FF4DAAE12
:105CC0001E2088E51A209DE51A2084E5122099E51A
:105CD0001A206BE012207EE590F84712002900F0B0
:105CE000748601297FF4A8AE17208BE5132089E57F
:105CF00090F84712002900F06F8601297FF4BAAEB0
:105D0000162068E5132066E5E8694FF0424185F802
:105D10000442FEF7DFFC5349FEF734FD5049FEF71D
:105D200063FD686144E085F8444241E090F84C121C
:105D3000012900F0588600297FF47EAE012100F091
:105D400053BE90F84C12012900F0528600297FF4CE
:105D500091AE012100F04DBE282085F84B4225E090
:105D6000002085F8060223E085F8084220E00020A4
:105D700085F84A021CE0002180F84E125CE6002102
:105D800080F84E1276E6002180F84D1254E600218C
:105D900080F84D126EE6FFF72EFB1B4981644BE63F
:105DA000FFF729FB1849816464E6032085F8500257
:105DB0008AF820409AF8560002281BD1FFF729FBE9
:105DC0000E2088F80700DFF8944D94F80D0201309A
:105DD000C1B2032988BF012084F80D02C0B2032894
:105DE00000F05C80022856D0012840F06780D4F88B
:105DF000100255E098F80700242800F268800FF29E
:105E00001401D1E810F000BF00007F430000C84239
:105E10000000C8C232004903E203060464006400C3
:105E200082036400B303BC0361044704D802860301
:105E300031000803A002C703D6038D046400640088
:105E400071048402170398049402FC026400640045
:105E5000C7029D03AF02E004C4046400EF0200BF68
:105E6000000010410000A040ADE7DFF8D80B002192
:105E7000DFF8E85CC161FFF7B9FA00F0E7840028B9
:105E800040F07A856C69DF4F20463946FEF7F8FC12
:105E9000FFF7FFF9ADE3D4F8180201E0D4F82002CF
:105EA00094F804126061012908D1D749FEF76AFC11
:105EB000D649FEF799FCFFF751FAE061DFF8840B51
:105EC0000021FFF7C4F98163252088F8070098F8BE
:105ED0000000013888F80000000640F0FB80DD4E2D
:105EE0000020DFF820AB64213060D8F83400DAF805
:105EF0004C205B2AACBFDAF84C205A22A0FB0110E0
:105F0000D317541A834109DAFFF70FFA24184D41C9
:105F100002F096FB001B71EB0500F9DB082002F094
:105F200017FB0446FEF7E4FCDFF8309CB04699F816
:105F3000FFB1C9F83800BBF1010F04D140F6980059
:105F4000844207D809E0BBF1000F06D140F6FD00FE
:105F5000844202D3042089F80202D9F81450DAF8F6
:105F60004400D9F80440D9F824602946FEF7B2FC71
:105F7000074620463146FEF7FFFB044637B9DFF8F7
:105F8000C40A0021C161CAF844508164DFF86C0A78
:105F9000007A584519D0BBF1010F0AD0BBF1000FB0
:105FA0000ED1DFF8A00A0021C161AB480421416095
:105FB00006E0DFF8900A00218164A748042101600F
:105FC00099F8FF01DFF8341A0872DFF8846A708DDF
:105FD000092817D896F82C0002F0BAFAFEF788FCC8
:105FE0000546708D471C46F82050308D7785FEF7AA
:105FF0007FFC0146FFF786F9FEF78CFCB9B2B0FBD7
:10600000F1F10EE0308D0A25B0FBF5F1401A308534
:1060100096F82C0002F09CFA318D084481B2B1FB55
:10602000F5F130858808FEF763FCC9F8040099F89B
:10603000020299F8FC1110BB012920D1D9F81450A3
:106040008649FFF75FF9064620463146FEF734FCE5
:1060500028B98349FFF756F9FFF742F9A8B1DFF8ED
:10606000E40900253146C5618564FFF701F9F0B9FF
:1060700099F8FF01012811D0D8B97A4D17E0002511
:10608000A9B1032913D090B913E099F8FF0138B1F1
:1060900001280ED1DFF8AC092C3003E0724D06E088
:1060A000DFF8A00929462246FFF7DEF90546C9F8C0
:1060B0003C50D9F83C00FEF746FCC8F800004FF011
:1060C0008040DFF83889016841F001010160052056
:1060D00088F80000B8F80A000138A8F80A0000049F
:1060E00026D1102002F034FADFF8181948844FF452
:1060F000FA70A8F80A00488CFEF7FFFB5B4B4FF0E4
:106100006632FEF739F95A4B0022FEF735F9594A43
:10611000594BFEF78AF8594A594BFEF79FF9594BEC
:106120000022FEF782F8FEF754FCDFF8301A08640C
:10613000DFF8285A95F80102012822D14648D0F804
:10614000F813490610D4DFF8BC08C17D0131C175D0
:10615000C9B2152915D3012185F80112032185F84B
:10616000FC110021C1750CE0D0F8F803400608D5F9
:10617000DFF89018002085F80102C875012085F825
:10618000FC0195F8FE6176B3012E32D1DFF8747808
:106190000020797D3875002900F07F80EC6C0021AB
:1061A0002046FEF797FB002872D1012085F8FC01FC
:1061B000B88E0130B88680B2B0F57A7F6FD3B97DE2
:1061C0000020B8860131B975C9B2062911D3B87556
:1061D0002046FEF7EBFB2C4A2C4BFEF726F8FEF789
:1061E000F8FBE86405E0DFF81C080121027D417539
:1061F00072B195F8FC01022851D1DFF8080801219D
:10620000C17451E00000E143000010410000A040D3
:1062100085F8FC110175002181868175686CE86440
:106220003DE000BF0000002000220020000100200F
:10623000A1870008780000203C00002050000020CA
:1062400064000020780000208C000020A0000020C6
:10625000B400002040000040100801400000F04160
:106260000000F0C10050504500401C4666660A40E0
:106270000000303F295C8FC2F528F4BF33E197FA64
:106280007953713F000039409A9999999999B9BF0A
:1062900095F8FC010128AED1002085F8FC01DFF85B
:1062A0006407C07C012813D1286D4FF07E51FEF7A2
:1062B00011FAE8492865FEF7E3FA48B9DFF8441710
:1062C00000202865C874701E18BF012085F8FC01E5
:1062D000DFF83007DFF8F048C16B0131C163A06916
:1062E000804794F83D00012809D194F83C0018B18A
:1062F000013884F83C0002E0022084F83D0094F864
:106300004C0010B1013884F84C00BDE8F88FDFF87C
:106310004C7897F80402012840F01A82F869CE49B7
:106320003C6BFEF7D7F9FEF778FFCC4938E3DFF88E
:106330002C0890F80612012900F05D82002940F037
:106340005F82012158E2DFF8140890F80412002956
:1063500000F05B82012940F05E8200F50B7100F1D4
:106360001C0256E29AF81100DFF8F067FFF731F8E7
:1063700000F33E820120BA49FFF76AF82046FEF793
:106380007FFAB8490546FEF7A1FFB74C002D18BFAC
:1063900004462CE2DFF8C467B34C756C21462846EE
:1063A000FEF77CFA002840F0DE802846FEF7FEFA71
:1063B000AE4AAF4BD2E0DFF8A44794F80412D4F809
:1063C00018020129606108D1AA49FEF7DBF9A54945
:1063D000FEF70AFAFEF7C2FFE061DFF86806002167
:1063E00002226BE1DFF8740790F80C12002900F02C
:1063F000148201297FF468AD272100220FE2DFF823
:106400005C0790F80812002900F0118201297FF43E
:106410005BAD00210CE2DFF8440790F8041200297C
:1064200000F00C82012940F00F8200F50A7100F1A2
:106430001C0207E2FFF700F83FF746AD0120DFF846
:106440001C97FFF705F8FEF7E8FF00F036820028FA
:106450007FF43AADD9F814608649D9F8284030461F
:10646000FEF790F97F4DFEF73FFFFEF777FF824979
:10647000C9F830003046FEF72DF980490646FEF790
:1064800029F9FEF72DFF074620462946FEF722F997
:10649000002F08BF304630E2DFF8A8050021C161B7
:1064A00081649AF81120013A8AF8112052B2002A28
:1064B0003FF70AAD0A22DFF8A496C1618AF81120DD
:1064C0008164FEF7AAFF00F01C82002840F03582AC
:1064D000D9F814506A492846FEF7D2F9614C0646AD
:1064E00028462146FEF7F6F86649002E08BF084602
:1064F000C9F814005F49FEF745F92146FEF774F923
:10650000FEF72CFFC9F81C0017E2DFF85006042143
:10651000BEE1DFF8484694F80412D4F820020129BD
:10652000606108D15349FEF72DF94E49FEF75CF939
:10653000FEF714FFE061DFF80C0500210322BDE047
:10654000DFF8186600210024756C2846FEF78AF9EA
:1065500048B92846FEF72AFA444A4B4BFDF765FE38
:10656000FEF737FA0446F4647464ADE4DFF8EC0532
:1065700090F850128A1C172988BF042207E0DFF820
:10658000DC0590F850128A1E052938BF182280F8C1
:10659000502299E4DFF8C40590F80412002900F0B5
:1065A0005E81012940F0618100F50C7100F11C024F
:1065B00059E1DFF8A80590F84412002900F05A814B
:1065C00001297FF481AC002155E1DFF87804002136
:1065D000DFF88855C161FEF709FF00F052810028FD
:1065E00040F0CA816C69294FFEF773FE1B490646CD
:1065F0002046FEF76FF8002E08BF38461D49686137
:10660000FEF7C0F81749FEF7EFF8FEF7A7FEE861BE
:10661000B2E1FEF711FF3FF757ACDFF82804002185
:106620000A22DFF83855C1618AF81120FEF7DEFE34
:1066300000F08A81002840F09F816C691449FEF7C0
:1066400017FE0E490646FEF741FE1049002E08BF10
:106650000846D3E700803B45000014C3000080BF1C
:10666000008078440000A04000C079449A9999992C
:106670009999B93F000010410000C8420000A0C035
:106680000080DE430000E1439999B9BF0000484310
:1066900000004D43DA4C94F80412D4F8100201299A
:1066A000606108D1DC49FEF76DF8DA49FEF79CF825
:1066B000FEF754FEE061E34800210122FEF7C7FD2A
:1066C00084F80D22FFF7FFBBCD4890F84412012952
:1066D00000F0DD8000297FF4F7AB90F8FF21022164
:1066E000012A08BF0321D3E0C54F97F8040201280F
:1066F00000F0D28000287FF4E7AB7D69C649BC6A10
:10670000FEF75DFEC349FEF76FF8FEF727FEBF49AF
:106710003863FEF7F7FDFEF780FDFEF7BAFD30E0C7
:10672000B74890F80412002900F0C08001297FF4D6
:10673000CBAB0021BBE0FEF77FFE3FF7C5AB0120EE
:10674000AF4FFEF785FE97F80402012800F01B8189
:1067500000287FF4B9AB7D69AF49BC6AFEF72FFE14
:10676000AC49FEF741F8FEF7F9FDA9493863FEF799
:10677000C9FD054620462946FEF79EF8AE49064665
:106780002046FDF7A7FF002E08BF28461AE1F34870
:10679000A249A54AC0F82012A1494261012280F80D
:1067A000522280F8082280F80622C0F818129D496B
:1067B000C0F810120021416280F8441280F80412DF
:1067C0004164FFF781BB9AF81100E44EFEF701FE29
:1067D0000EDC01208F49FEF73BFEFEF749FD934991
:1067E0000546FEF773FD0446002D08BF2C46746471
:1067F000F464FFF769BB002180F8481280F80612A4
:10680000FF2180F80712FFF75FBB00F5067100F16A
:10681000140212680A60022128E02821012280F86F
:10682000501280F84B2280F80C22FFF74DBB01215B
:1068300080F8491280F80812FFF746BB00F5047192
:1068400000F1140212680A6001210FE0EC697F4F29
:1068500020463946FEF714F8FEF71BFD7BE000F5F5
:10686000087100F1140212680A60032180F80D1209
:10687000FFF72ABB012180F8461280F84412FFF787
:1068800023BBEC69704FFEF724FD6B4961E01A21D0
:1068900080F85012FFF718BBF86968493C6BFDF7A8
:1068A00019FFFEF7BAFCFEF7F4FC7BE0012180F84B
:1068B0004F1280F80412FFF707BBD9F81C005F499C
:1068C000D9F83040FDF706FF5D490546FDF702FFA8
:1068D000FEF706FD57490646FEF7F8FC4FF0424129
:1068E000002E08BF2846C9F83000FDF7F3FE4949DD
:1068F000FDF748FF4849FDF777FFC9F82800FFF783
:10690000E3BAD9F81C40514D20462946FDF7B8FF9F
:1069100048490646FEF7DAFC4FF04241002E08BF18
:106920002846C9F81C00FDF7D5FE3A49FDF72AFFB5
:106930003949FDF759FFC9F81400FEF76AFD002038
:1069400089F80D02FFF7C0BAEC693F4FFEF7C1FCB2
:106950003B4906462046FDF7BDFE4FF04241002E62
:1069600008BF3846E861FDF7B5FE2A49FDF70AFF82
:106970002949FDF739FF6861FEF74BFD002085F8D6
:106980000D02FFF7A1BAF86929493C6BFDF7A2FE99
:1069900028490546FDF79EFE0146FEF769FC23499E
:1069A00006462046FDF796FE4FF04241002E08BFF6
:1069B00028463863FDF78EFE1649FDF7E3FE1649BB
:1069C000FDF712FFB862FFF77FBAFEF71BFD0E4915
:1069D0004163C162FFF730B8FEF714FD0A49416315
:1069E000C162FFF747B8002180F84C12FFF724B8C6
:1069F000002180F84C12FFF73DB800BF00000020D6
:106A0000002200200001002000007F430000C84257
:106A10000000C8C20000A040000010410000B443C4
:106A20000000A04300008C430000AA430000A0C067
:106A3000000014C300002442000080BF0000544343
:106A4000000024C2CC0100200000C4430080524456
:106A5000240200201848C16941F08051C1611749E2
:106A60000A7842F004020A70C16921F08051C161C4
:106A7000016841F00101016001688907FCD54168A6
:106A800021F003014160416811F00C0FFBD1016856
:106A90000B4A114001600021416041F61071C16252
:106AA0004FF4801101634FF41F01816005484FF0DE
:106AB00000610160704700BF00100240507000404C
:106AC000FFFFF2FE08ED00E02DE9F041234D02FB4F
:106AD00003F4640095F80C62069D012E06D076B989
:106AE000023DEEB2562E0AD21E4E04E0023DEEB238
:106AF000552E04D81A4EEDB256F8255000E0002568
:106B000002440B44FEF7D4FB174F4FF0000814B3B8
:106B10002846B8EB143F0BD1214602F079FF00263E
:106B2000A64203D2FEF7FCFB0236F9E700200FE095
:106B30004FF4805102F06CFF0026B6F5805F03D25F
:106B4000FEF7EEFB0236F8E7A4F580504FF48054D0
:106B500025440446DBE7BDE8F08100BF00220020A9
:106B6000C09E0008689D000884020020BCB5154C3A
:106B7000E06880060CD52068800609D56168124D52
:106B800005F13000C9B202F0A1FE4FF48270A8876F
:106B9000E068400610D5206840060DD50A4D6FF01C
:106BA00040000DF10701206005F1400002F07BFE7E
:106BB00018B1002085F84D00BCBD9DF8070060604D
:106BC000BCBD00BF0038014078010020FEE7000096
:106BD0000648BFF34F8F064A016801F4E061114394
:106BE0000160BFF34F8F00BFFDE700BF0CED00E079
:106BF0000400FA05B0B54EF60451CEF200014FF094
:106C00000072EFF3108072B60A6080F3108840F2D1
:106C10000000C2F20000816B4DF68362C4F21B32A9
:106C2000A1FB022344F6D352C1F26202A1FB02127D
:106C3000990C416391090163EFF3108472B601F07E
:106C4000FFFC40F20015C2F20005C5E91601BFF3D2
:106C50004F8FBFF36F8F01F0F3FCD5E91612401A86
:106C6000E86440F2781184F310880020C2F2000139
:106C7000C5E91800C5E91A00C5E91C00C1E9000012
:106C8000C1E90200C1E90400B0BD000010B500EB8D
:106C900040010A284FF00702084B28BF1E3902FAAC
:106CA00001F14FF00C0238BF1022D4582143D150CB
:106CB000596B21F01F010843586310BD00240140A7
:106CC00002484FF400410160704700BF14100140BA
:106CD00002484FF400410160704700BF10100140AE
:106CE00088B110B5104A01300021042909D000EB09
:106CF000810302EB810401311B681BBAC4F8043222
:106D0000F3E7BDE8104070470649074A0020042811
:106D100006D002EB80030130D3F804320B60F6E7B3
:106D20000868704700300240EC1F002032490A68B2
:106D3000C2F38103314AF0B5DFE803F002380A38C4
:106D40000B6D9B0532D5CB6A9B0148BF2D4A2DE0C8
:106D50000B688C6A1B0C002C13D40C680D68C5F3EF
:106D60004175C4F383440DB90F2C43D12D01013576
:106D70002C44DB0702D00B689B0300D5204A6243FA
:106D800014E08C6A8D6A8E6ADB071D4BC4F3031412
:106D9000C5F3082506F0070603D00F68BF0358BFE8
:106DA000134604FA06F26B43B3FBF2F20260164C90
:106DB0000B68C3F30313E35C144CDA4042600B68C6
:106DC000C3F30223E35C22FA03F3C3600B68C3F34B
:106DD000C223E35C0424DA4082600B68096804EA99
:106DE0009363C1F38131194409A3595CB2FBF1F1FA
:106DF0000161F0BD0225BBE70410024000127A00D9
:106E000000093D00006CDC0264660108746601083C
:106E100002040608020C08107CB5044600204FF658
:106E2000FF75C6B20A2E09D8301901F0D9F8ADF8AD
:106E30000600B01CBDF80610A942F2D1BDF806004C
:106E40007CBD00002DE9FE4FDFF8588D98F800005A
:106E500001281FD0002840F0B28798F81C00DFF806
:106E600048BD01389BF805429BF8506288F81C0029
:106E70009BF80402844200F0F6841D2E40F0C68484
:106E8000012800F0BB84002840F0C0843E243F204D
:106E900000F0B6BCDFF8109D99F8FF0118B1012889
:106EA0000AD1F24900E0F249D9F83C00FDF79CFC18
:106EB000FDF730FDA8F8240099F850021A2840F098
:106EC0008B8098F8020050B900202621EA22B723CF
:106ED00000901D20FDF710FF012088F8020099F8AE
:106EE0000202002840F0FD80D9F80460E14D3046F0
:106EF0002946FDF7D3FCDD4C00281CBF0026C4F258
:106F0000FA3630462146FDF7ADFC00281CBF0026AE
:106F1000C4F2C826B8F82470304621462A4602F04A
:106F2000D3FEA8F836003846FDF7E2FC21460546B8
:106F3000FDF7B4FC00281CBF0025C4F2C825284674
:106F400000210026FDF78EFC002818BF00252846EA
:106F50002246002102F0B8FE4EF2284A4FF01F0BE5
:106F60000025A8F83800CC2D3AD009EB050705F12B
:106F70001D00009684B297F8601097F861302046A3
:106F80002246FDF765FE97F82D1197F82E31204621
:106F900022460096FDF75CFECB2D13D097F86230A9
:106FA00097F8611020462246CDF800A0FDF750FE6C
:106FB00097F82F3197F82E1120462246CDF800B0D1
:106FC000FDF746FE97F86100013587F8600097F8F5
:106FD0002E0187F82D01C6E7002088F8020080E026
:106FE000B8F83600DFF8C4BB002448F20F4689F831
:106FF0002C01B8F8380089F8F9019F4880469F486D
:107000008246E0B205283DD8210621D0FDF770FC6C
:107010009B490746FDF7B6FB4146FDF75BFBFDF7D5
:1070200079FC26210246B7230096FDF711FE38466B
:107030004146FDF7A7FB5146FDF74CFBFDF76AFC07
:1070400001461D20EA2200960B46FDF701FE17E0DF
:107050001D202621EA2226230096D8471D2026211E
:107060001D22B7230096D8471D20B721EA22B72357
:107070000096D847EA202621EA22B7230096D8476F
:107080000134BEE7DFF8B84D0C250FF6B05240F2E0
:107090005B102821FEF7D8F90FF6A85240F25310E2
:1070A0003C21FEF7D1F90FF6A05240F253106421B3
:1070B000FEF7CAF90FF6945240F253108C21FEF7F6
:1070C000C3F90FF68C5240F25B10B421FEF7BCF905
:1070D0000FF6805240F26310DC21FEF7B5F9DFF8BD
:1070E000548D98F80300D8BB0120D9F84410654CA2
:1070F000D9F8146088F80300D9F80400C9F84C10D6
:10710000FEF703F9604DFEF7EFF8FEF727F9C9F82F
:1071100008003046FEF7F9F8FEF7E6F8FEF71EF92C
:10712000C9F81C00D9F81002FEF7EFF8FEF7DCF8FA
:10713000FEF714F9C9F82802D9F81802FEF7E5F8A5
:10714000FEF7D2F8FEF70AF9C9F82C02D9F82002A6
:10715000FEF7DBF8FEF7C8F8FEF700F9C9F83002D1
:1071600099F8040299F80512814259D0012841D0BA
:10717000002855D14C46434954F8140F8A46FDF770
:1071800001FB41498B46FDF72FFBFEF7E7F825464B
:10719000A060514655F8100DFDF7F4FAFEF70CF912
:1071A000FEF7DCF844F80C0CD4F8FC01D4F80472B7
:1071B000D4F80C625146FDF7E5FAFEF7FDF8FEF74C
:1071C000CDF8C4F8140238465146FDF7DBFAFEF755
:1071D000F3F8FEF7C3F8C4F8180230465146FDF73D
:1071E000D1FAFEF7E9F8FEF7B9F8C4F81C0204F189
:1071F000140005E009F1080509F1300009F11C044B
:10720000DFF85C1C09F5047609F5087209F50673C8
:10721000C1E90444C1E90605C1E90856C1E90A32D9
:1072200099F850021A2800F29E800121174A8140E5
:10723000114200F0988099F80D1299F80E028842D8
:1072400056D003280BD0022805D0012820D13620A3
:1072500000903A2006E037200090822002E038209B
:107260000090CA20FEF757F823E000BF0000C84294
:10727000000004420000FA430000E8410000184208
:1072800000002442000010410000A0400C00000457
:107290003620DFF8D04BFEF783F83A20A04737209E
:1072A000FEF77EF88220A0473820FEF779F8CA2042
:1072B000A04799F80D0203280BD0022805D0012819
:1072C0000CD1392000903A2006E03A20009082202C
:1072D00002E03B200090CA20FEF71DF8D148FDF7E0
:1072E000A1FF002088F8090099F80D0289F80E0224
:1072F000B8B3D9F81400D9F81052FDF70BFB0446C7
:107300002846FDF707FB84420BD0D9F81802FDF799
:1073100001FB844205D0D9F82002FDF7FBFA844234
:1073200016D1D9F81C00FDF7F5FA0446D9F8280261
:10733000FDF7F0FA844214D0D9F82C02FDF7EAFAEE
:1073400084420ED0D9F83002FDF7E4FA844208D026
:1073500098F8090028B9B348FDF764FF012088F8C0
:10736000090099F850021A2877D8012101FA00F093
:10737000AD49084271D0D9E98440FDF7C9FF30B169
:10738000D9F82812D9F83402FDF7A4FAC8B9FEF7E3
:1073900044F804D078B9DFF8C80A406A01E009F57A
:1073A0000A70FDF782FFFDF71FFF4A20CD21FDF790
:1073B000CDFDD9F81042D9F82802C9F81442C9F80D
:1073C0003402D9E98640FDF7A3FF30B1D9F82C1279
:1073D000D9F83802FDF77EFAC8B9FEF71EF804D0D6
:1073E00078B9DFF87C0A806A01E009F50B70FDF7D7
:1073F0005CFFFDF7F9FE9120CD21FDF7A7FDD9F83F
:107400001842D9F82C02C9F81C42C9F83802D9E947
:107410008840FDF77DFF30B1D9F83012D9F83C0231
:10742000FDF758FAC8B9FDF7F8FF04D078B9DFF8CE
:10743000300AC06A01E009F50C70FDF736FFFDF770
:10744000D3FED820CD21FDF781FDD9F82042D9F80F
:107450003002C9F82442C9F83C0298F8040099F8AF
:10746000441298B901290BD069B999F8FE01012895
:1074700009D899F8FF210220012A08BF032000E063
:107480001A2089F85002012088F8040099F8500267
:10749000002944D099F85122824234D06149FF2416
:1074A000009000204FF4A072D623002589F80E42E8
:1074B00089F8454289F8054289F8094289F800426D
:1074C00089F8FD41C9F81412C9F84810C9F83410F8
:1074D000C9F82C10C9F80C10C9F81810C9F81C12FA
:1074E000C9E98D11C9F83C12C9F824121A21FFF715
:1074F000EBFA99F8500299F8441288F81C5088F871
:10750000054089F8510299F845228A4229D01B2862
:1075100027D1C1B1012921D13E243F2015E01A28ED
:10752000B8D80122404B82401A42B3D099F8FE21CC
:10753000012AAFD899F8FF210220012A08BF0320B1
:1075400089F85002A6E73F243E20FDF7A7FEFDF78D
:10755000D2FE99F8441299F8500200E01B2089F8F5
:10756000451221280FD199F80602012803D0B8B995
:107570003E243F2001E03F243E20FDF78FFEFDF733
:10758000BAFE99F850022A280BD19B205621FDF70C
:10759000D1FE9B208821FDF7CDFE99F8500200E036
:1075A000212099F8081299F809228A4217D0232835
:1075B00015D199F84902012803D068B93E243F202B
:1075C00001E03F243E20FDF769FEFDF794FE99F8A7
:1075D000081299F8500200E0232089F8091252217C
:1075E000142818BF162818D100917520B8215822E8
:1075F0002223FFF769FA99F850022E2804D14A2075
:10760000FDF72FFE99F850021F2814D199F8470270
:1076100060B1012847D14A2009E01828EDD1532153
:10762000E2E700BF00007F430C0000044B20FDF7A1
:10763000C9FE99F8500225280BD199F84A0218B1D1
:10764000012830D14A2000E04B20FDF7BBFE99F81D
:1076500050022C2814D199F84C0220B1012822D1D3
:107660004F244A2001E04E244B20FDF7ABFE84203E
:10767000842138221E230094FFF726FA99F850023D
:107680002E2809D14F20842138221E2300908420E7
:10769000FFF71AFA99F85002302801D02A2802D1AF
:1076A0004B20FDF7DEFD99F8020299F803128142A2
:1076B00006D1881E032849D8DFE800F01E2A1236BA
:1076C000012189F80302052889F858103ED8DFE81F
:1076D00000F0033D131F072BFF2089F8510235E00E
:1076E000FDF7BCFE04D14620FDF787FD99F8500256
:1076F0001A282BD1462022E0FDF7B0FE04D142200B
:10770000FDF77BFD99F850021A281FD1422016E0A0
:10771000FDF7A4FE04D14420FDF76FFD99F8500257
:107720001A2813D144200AE0FDF798FE04D148201E
:10773000FDF763FD99F850021A2807D14820009000
:10774000412037218B227623FFF7BEF998F80100FC
:10775000B0B9572000214FF4A0721A2300900020E6
:10776000FFF7B2F940F20910082143F286120C2308
:10777000FDF7CEFC012088F80100FF2089F8070200
:1077800099F850021A281ED80121D74A8140114287
:1077900019D099F8FC1199F8FD218A4213D01A28C2
:1077A0000CD059B940204B219622722300905F20C3
:1077B000FFF78AF999F8FC1199F85002012289F82B
:1077C000FD1189F8582099F8062299F8073200210E
:1077D000934218BF212800F0F0823D20012A08BF03
:1077E0003C200090EB20032113221523FFF76CF9B6
:1077F00099F80602002189F80702DEE23F243E20C4
:10780000FDF74CFDFDF777FD9BF80402012805D03C
:1078100018BBFDF730FD0BD2342003E0FDF72BFD44
:107820000AD235200090FA2058211322162312E0A4
:107830001F2812D1322402E01F280ED13324E12068
:107840005A21122212230094FFF73EF9E1208121F0
:10785000122212230094FFF737F99BF804429BF899
:1078600050628BF805429BF8FC712FB91A2E1CBF91
:10787000DBE90101CBE9030198F91C00002817DDC1
:107880009BF8FF019BF80012814200F0AB809BF84F
:10789000501201F0FE01022940F0A480012800F0FE
:1078A0008680002840F093801020DFF8C42581E016
:1078B000012C1DD1DBF80450BD49DBF82490FDF705
:1078C0007EFDBC49FCF790FFFDF748FD8246CBF8F2
:1078D000080048460021FCF7FDFF98B9B449484626
:1078E000FCF750FFB349FCF77FFFFDF737FD05E0DC
:1078F000DBF82490DBE9015A89F00040FDF70AF833
:1079000088F8080032202946012E08BF0A201A2EC6
:1079100008BF0A2088F81C00DBF80C00FCF7DAFF2F
:1079200030B1DBF810005146FCF7D4FF0028A7D196
:10793000B01ECBE9035A02282DD2012FA0D19BF80B
:107940000802002800F09680012899D1284649466F
:10795000FCF712FFDBF81460974981463046FCF7CC
:10796000B9FE01464846FCF799FF94490546304662
:10797000FCF7B0FE002D7DD101464846FCF772FFB2
:10798000002877D1002C00F03B82012C7FF478AFE7
:10799000DBF81C001DE21A2E7FF472AF9BF8FE018B
:1079A000012872D1DFF8B804006A00687CE010207A
:1079B0000FF2B44200904FF48C70B4214FF6FF7375
:1079C000FDF70FFB9BF8FF018BF800020AE0102087
:1079D000DFF89C24B4214FF6FF7300904FF48C70B5
:1079E000FDF7FFFA98F8060088B1FDF744FC27D3AD
:1079F0001A2832D01F2840F08B809BF80402002800
:107A000060D0012840F08480DBF81C005CE0DBE9FA
:107A10000510FCF75FFF58B1DBE90710FCF75AFFD0
:107A200030B19BF8FC019BF8FD11814200F094807D
:107A30000120642188F80600DFF8240481818BE0AE
:107A400098F80700002863D1FDF7AFFC45D0002867
:107A500056D1DFF80C04006941E098F807000028CF
:107A600056D1FDF7A2FC41D0002849D1DFF8F00340
:107A700040693DE0002C00F0A481012C7FF400AFB0
:107A8000FDF720FC01465046A1E19BF8080210B129
:107A900001287FF4F5AEFDF715FC0146DFF8C003C1
:107AA000006A0068FCF716FEFCF734FF024610205F
:107AB00043F286114EF22843CDE9001040F2151032
:107AC000A22191E1DBF81400FCF724FFFDF78CFB09
:107AD000BE205821FDF73AFA1AE00BF11C00FDF721
:107AE000E4FBFDF7CDFB07E00C0000040BF11C00EC
:107AF000FDF7DBFBFDF7A1FB4FF4FC63FDF726FA76
:107B0000DBF81400DBF81C10CBF81800CBF82010C1
:107B1000D34EB089471EDBE90550B7812946FCF7F3
:107B2000D9FE30B1DBE90740FDF7F2FB002840F059
:107B3000DA809BF80402012809D1C749FDF73FFC10
:107B4000C649FCF751FEFDF709FCCBF81C00642088
:107B5000B081002088F80700DFF8049399F804004A
:107B6000013889F80400000640F08580642089F817
:107B700004009BF8FF0101280BD008BBDBF83C0098
:107B8000FCF714FFBB4ABC4BFCF768FCFCF721FF79
:107B900004E0DBF83C00A849FCF726FE0446C8F8E0
:107BA00040000FE00001002000220020514C00089E
:107BB000000010410000A0400000A0410000A0C152
:107BC000D8F840402046FDF779FB10B90024C8F8EA
:107BD000405098F80500FCF78BFE01462046FCF764
:107BE00079FE002847D19BF8500200F0FE000228E1
:107BF0003DD1FDF7F5FB42F2E4016228009128BF78
:107C00006220052898BF052083212522C0F1640049
:107C10004843642180B2B0FBF1F51820282105F11A
:107C200027042346FDF768F8562021460C220B2333
:107C300000901820FEF748FF43F69F5005F13201EF
:107C40002422AF2300901820FDF756F8D8F8400002
:107C5000FCF760FE0246102000214FF6FF73CDE9CD
:107C600000100820BE21FDF771F9D8F84040FDF75B
:107C7000B7FB88F805009BF850020BF130050BF1BB
:107C800028061F281CD1DBE90A10FCF723FE20B1CF
:107C9000DBE90C10FCF71EFEA8BB9BF847020BF1BA
:107CA00034070BF12C04A0B101281AD19BF804026F
:107CB00001282AD0A8B9D9F818004FF4FC692BE0A4
:107CC0000BF11C010BF114022F46344616460D46EB
:107CD00031E09BF8040201281BD010B9D9F8180034
:107CE00018E01F2027E038047FF436AFFDF7C3FA11
:107CF0007DD29BF80402002800F08680012840F025
:107D00009480204682E000251DE04FF4FC6928465F
:107D100002E028464FF6FF79FDF7C7FA0246182021
:107D200043F286114B46CDE90010BE207F21FDF7BE
:107D30000DF99BF8500231682538B0FA80F02160C7
:107D4000296845093960DBE91140FDF7E1FA88BB94
:107D500085B39BF84A02012803D038B94FF6FF716A
:107D600001E04FF4FC612046FDF756F9434D002435
:107D70004FF0180943F28616BE27042C16D0611E58
:107D8000C8B2022810D8C90004EB44004FF6FF73B4
:107D9000CDE90069C9B207EB800025FA01F180B294
:107DA000CAB26B21FDF742F80134E6E7DBF8440084
:107DB000CBF8480098F80000411C88F80010BDE896
:107DC000FE8FFDF77FFA01462548C0690068FCF781
:107DD00081FCFCF79FFD0246782000214FF6FF73DF
:107DE000CDE9001044204421FDF7B0F848E51A28F9
:107DF0001BD19BF8040270B1012816D120460CE07B
:107E0000174800690068E4E730690068FCF782FD04
:107E1000FDF736FA05E070690068FCF77BFDFDF7B9
:107E20000CFA4FF4FC63FDF791F80020A8F8060067
:107E300092E600BF000100200000C84225000000BB
:107E4000E34F000831303000373500003530000096
:107E50003235000030000000000010410000A0405A
:107E600000000020C96A00085332343500000000C9
:107E70007C6601080AD7A3703DAA40404D696E0098
:107E800002684BF6EF731A4002600A8903681A43CE
:107E900002604A7C036802F0030223F4405343EA81
:107EA00002320260CA7B036802F0030223F44063DB
:107EB00043EA822202608A7B036802F0030223F411
:107EC000407343EA022202604A7B036802F0010227
:107ED00023F0800343EAC21202600A7B036862F364
:107EE000861303600A7C036862F3451303604A89C2
:107EF00042600A6882604968C1607047016821F089
:107F0000010101600021016041608160C16040F2B7
:107F1000FF4100EA01020B49B2F5816F04D3D20898
:107F2000902A0ED801F5806100F0FC001422083878
:107F3000B0FBF2F00F22800002FA00F00A68104352
:107F400008607047040002400448017809B9012123
:107F5000017003484AF6AA2101607047841A002084
:107F60000030004050B100220023282B02D0C25024
:107F70000433FAE780F82C1000218162704700007A
:107F800010B52B4C226842F00102226001804FF4B0
:107F9000801000F017F8FDF7F4B900BF0848016839
:107FA000C9071CBF002070470168490744BF012072
:107FB00070470068C0064FF0020058BF03207047AA
:107FC0000C200240B0B50446FFF7E8FF0025013C55
:107FD00045F1000118B911B1FFF7E0FFF7E7B0BDB7
:107FE00081B00168D0F801008DF800108DF8010013
:107FF0009DF801009DF8001041EA0020ADF8020054
:10800000BDF8020001B0704710B5094C216841F07D
:10801000020121606060206840F0400020604FF065
:108020008040FFF7CFFF206820F00200206010BDE5
:10803000102002402DE9FE4FDFF850B79BF80A00F0
:10804000032800F29680DFE800F0029609759BF89D
:108050000B00002800F04881012041E1B848DFF81A
:10806000DC55B84900F10A0481469BF80F008846A8
:1080700010F0010708BF01F10804D5F81002FCF761
:1080800049FCDFF87464FDF7AEF909F10C04002F28
:1080900008BF08F10A04D5F81802FCF73BFCFDF70D
:1080A000A2F909F10E04002F08BF08F10C04D5F85D
:1080B0002002FCF72FFCFDF796F909F11004002FC0
:1080C00008BF08F10E04686CFCF724FCFDF78BF97F
:1080D00009F11200002F08BF08F1100095F84412B2
:1080E000B04709F11400002F08BF08F1120095F8FD
:1080F0000C12B04795F844028BF80E0095F80C026C
:10810000ABF83000D5F81002FCF704FCABF82A00FD
:10811000D5F81802FCF7FEFBABF82C00D5F82002CE
:10812000FCF7F8FBABF82E00686CFCF7F3FB8BF860
:108130000D00D2E082489BF80F2082491630D2070A
:1081400008BF01F11400BBF83210FFF719FF7E4899
:10815000C16841F08001C16001208BF80A00BBF8C2
:1081600032000130ABF832009BF80F0001308BF881
:108170000F00BDE8FE8FBBF82600FCF7B9FBDFF867
:10818000BC840146D8F81400FCF7A4FB00284FD0AB
:10819000BBF82800FCF7ACFB0146D8F82400FCF73C
:1081A00099FB002844D098F804029BF80C108142F7
:1081B0003ED1D24898F8061242798A4238D198F8CE
:1081C00008128079884233D19BF80D00FCF790FBB0
:1081D0000146D8F84400FCF77DFB48B3BBF82A0001
:1081E000FCF786FB0146D8F81002FCF773FBF8B1E8
:1081F000BBF82C00FCF77CFB0146D8F81802FCF712
:1082000069FBA8B1BBF82E00FCF772FB0146D8F859
:108210002002FCF75FFB58B198F844029BF80E105F
:10822000814205D198F80C02BBF830108142A0D0F1
:10823000B048B349E64E0160B249344601609BF84C
:108240000F0010F0010708BF04F580642046FFF717
:10825000DBFED8F81400FCF75DFBA74D0146204675
:10826000A847B41C002F04BF4FF60244C0F6030415
:10827000D8F82400FCF74EFB01462046A847301DE5
:108280009B4C002F08BFA01C98F80412A847B01DF3
:10829000002F08BF201D98F80612A84706F1080015
:1082A000002F08BFA01D98F80812A84798F80402EC
:1082B0009249D8F824408BF80C0098F806024871CF
:1082C00098F808028871D8F81400FCF723FBABF883
:1082D0002600FDF785F8ABF828009BF80A0001306E
:1082E0008BF80A00BDE8FE8FB94C2046FEF794FDDE
:1082F0004FF6FF75A84211D004F58060FEF78CFDA3
:10830000A8420BD004F11600FFF76AFE0446784835
:108310001430FFF765FE844205D80DE02046FEF7D5
:108320007BFDA84202D000F023F928E004F580602C
:10833000FEF772FDA84209D000F04CF91FE000BF23
:1083400000F8030802FC030804200240BB486F4AFF
:108350006D49C0F818226E4AC0F820124161C0F879
:108360001022012280F8082280F80622002280F8DC
:108370000422426280F84422426480F80C22AF4F0B
:1083800064497C69FCF774FF18B96349FCF7A5FFE1
:1083900008B95D4C7C6197F804026049022824BF4B
:1083A000002087F8040297F80662022E24BF0126F7
:1083B00087F80662019097F808A2BAF1020F24BF6D
:1083C0004FF0010A87F808A2D7F844804046FCF72E
:1083D00073FA20B940460021FCF760FA18B94FF053
:1083E0000008C7F8448097F80A02022824BF00203A
:1083F00087F80A0297F80B0210B1002087F80B02E9
:10840000D7F8249046494846FCF756FA20B9454922
:108410004846FCF743FA18B94FF00009C7F8249012
:108420000294D7F810423B49FCF722FF18B93A49A9
:10843000FCF753FF10B9364CC7F810420094D7F838
:1084400018423449FCF714FF18B93349FCF745FFCB
:1084500010B92E4CC7F81842D7F820522D4928469B
:10846000FCF72AFA20B92C492846FCF717FA10B96C
:10847000254DC7F8205297F84402022824BF002057
:1084800087F8440297F80C12022924BF002187F8CC
:108490000C128BF80E00ABF83010019A01208BF80B
:1084A0000B0087F8530248468BF80C20134A82F8D9
:1084B00006A05671FCF72EFAABF828000298FCF7DC
:1084C00029FAABF826002846FCF724FAABF82E0070
:1084D000FCF786FFABF82C000098FCF71BFAABF812
:1084E0002A004046FCF716FA8BF80D00BDE8FE8F17
:1084F00002FC030804200240817F000800000020E5
:1085000023016745AB89EFCD0000BE430000AF43B8
:108510000000A0430000E1430000484300C079444C
:108520000000C8420000C8C210B5074C07492068C7
:1085300040F001002060994801604FF48010FFF77F
:1085400041FDFCF71EBF00BF10200240384B5441D4
:1085500080B5FEF79BFB0548816841F4800181608E
:1085600001688907FCD5C06C80B280BD0024014041
:1085700070B5174C304D2046A847FCF7B9F92F4E7F
:108580007061A01CA847FCF7B3F97062201DA847D2
:1085900086F80402A01DA847FCF7EEFEFCF7E7FEF4
:1085A000FCF7A6F9FCF7DEFEFCF7A2F9FCF7D1FE1A
:1085B000FCF79EF9FCF7C8FEFCF79AF9706404F129
:1085C0001200A847FCF7BBFE86F80C0270BD00BF86
:1085D00000F8030870B5174C174D2046A847FCF764
:1085E00087F9164E7061A01CA847FCF781F97062EC
:1085F000201DA84786F80402A01DA847FCF7BCFE72
:10860000FCF7B5FEFCF774F9FCF7ACFEFCF770F96B
:10861000FCF79FFEFCF76CF9FCF796FEFCF768F997
:10862000706404F11200A847FCF789FE86F80C027A
:1086300070BD00BF00FC0308E17F0008002200209D
:1086400010B54EF21403CEF20003EFF3108C72B6A5
:1086500018685968D3F8F02C401A4FF0000E6EF1EC
:10866000000152010BD518685968401A19686EF15B
:108670000002401842F10001013041F1000140F2D6
:108680000012C2F20002D2E9182340F2781EC2F2B0
:10869000000E8018DEE900245941821A71EB0402B1
:1086A00004DADEE900018CF3108810BDCEE9000188
:1086B0008CF3108810BDF0B58B790A88032B0AD093
:1086C0005BB94979282913D0182912BF01F00F018D
:1086D000026108210EE000210CE00C79C97903F059
:1086E000080304F0040401F003012344194401E0E9
:1086F00042610821130616D000230F240025082DFF
:1087000011D022FA05F6F6070AD0076804FA03F634
:1087100027EA0606066001FA03F607683E4306608C
:1087200004330135EBE7B2F5807F17D3120A00233B
:108730000F240025082D11D022FA05F6F6070AD0DD
:10874000476804FA03F627EA0606466001FA03F6CC
:1087500047683E43466004330135EBE7F0BD000057
:108760000A48807F022818BF704710B5084C094896
:108770002060094820600948FFF746FCFFF7D4FE57
:10878000E06840F08000E06000F0B2FE00010020F0
:108790000420024023016745AB89EFCD0038000873
:1087A00000B3B0B54B241425447403F11304002B1B
:1087B00018BFB4FBF5F3C37402F11303002A18BF0A
:1087C000B3FBF5F2827401F1130200290B4618BFC6
:1087D000B2FBF5F303741A06BDE8B04002D109B14B
:1087E000012101747047000088B05C4F5C485D4C0B
:1087F0007860206840F00100206020688007FCD588
:10880000606820F003006060606810F00C0FFBD11E
:10881000206855490840142120600020606041F61E
:108820001070E0624FF4801020634FF41F00A060CE
:108830004E480160606A40F001006062606A800733
:10884000FCD5206840F48030206000202168890336
:1088500004D4411CB0F5405F0846F7D3206880037C
:108860004FF00000F2D5206840F001002060206841
:108870008007FCD56068482140F480306060606803
:1088800020F400306060E06A61F310200121E062B2
:10889000E06A61F307100221E062E06A61F302001E
:1088A000E062E06A40F00040E062206840F08070E2
:1088B000206020688001FCD56068042120F0F00071
:1088C0006060606861F3CD206060606861F30A20D9
:1088D00002216060606D40F030006065606861F3A7
:1088E000010060607046FCF79CFD86467046FCF710
:1088F00098FD8646606800F00C000828FAD1606D8B
:1089000020F0300060656068C0F3810118480229DA
:1089100009D000294BD1616D890548D5216B8901AA
:1089200048BF144843E06168E26A090C002A25D474
:1089300062686368C3F34173C2F3834213B90F2AB9
:1089400040F08A851B0101331A44C90702D06168CF
:10895000890300D50848504329E000BF04ED00E03A
:108960000040000800100240FFFFF2FE002002401D
:1089700000127A00006CDC0200093D00E26AE36A42
:10898000E56AC9070449C2F30312C3F3082305F0DB
:10899000070507D002E000BF00093D006668B60386
:1089A00058BF014602FA05F05943B1FBF0F0DFF879
:1089B000B43ADFF8B42A4FF0000A4FF00408FD4D36
:1089C00098636168C1F30311515CFB4AC840934648
:1089D00098630223606940F001006061606940F0C3
:1089E00040006061A06940F00100A061A06940F012
:1089F0000400A061A06940F00800A061A06940F0F7
:108A00001000A061A06940F02000A061A06940F0C2
:108A10008000A061A06940F40070A061A06940F4EA
:108A20008050A061A06940F48040A061E06940F0FE
:108A30000100E061E06940F00200E061E06940F4BB
:108A40008040E061DD48115863F3124111504FF648
:108A5000FF014FF0FF32B8680840D9490843B860B9
:108A6000B86887F814A0B86887F815A0B86887F8C0
:108A700016A0B86887F81BA0B86887F81CA0B8686B
:108A800087F81EA0B868C0F30220C11E80F007005E
:108A900038BF5146042828BF404602FA00F0C043C0
:108AA00088400001F877B868C64880F800A0202008
:108AB000C5F8F40001A8FEF739F92868DFF8B09985
:108AC00040F0040028604FF47A700299B1FBF0F096
:108AD00001386860C5F808A0286840F003002860E5
:108AE000B94802904FF41040019001AE584631460B
:108AF000C847B649C020ADF80980019001F5406033
:108B00000D463146C847B24F4FF45E703146ADF85E
:108B1000098001903846C8474FF40041AD4A2846C5
:108B20004FF4C058BB46696140F61415BD50C7F8F4
:108B30001480A94FCDE901173146C8479E483146F8
:108B4000CDE90157C84758463146CDE901875F4610
:108B5000C8474FF4C0404FF44175314601909B48DF
:108B6000ADF80950C84701203146ADF809500190D1
:108B700091488346C84740F284403146ADF80950D9
:108B80003D4601903846C847944E3046FFF7B6F947
:108B900040F20110CDF80CA0CDE901AAADF814A067
:108BA00004904FF48040ADF80C0001A93046FFF767
:108BB00067F9C6F804A0C6F808A0C6F80CA030688B
:108BC00040F0010030604FF4007006908448079038
:108BD00006AE074658463146C8474FF480603146D6
:108BE00006908048079080465846C84701A8FEF77F
:108BF0009DF803987C4A4FF4E1314FF6FF7300EB88
:108C000080004000B0FBF2F2B0FBF1F102EB820019
:108C1000A1EB40000428754888BF013250F8041CBD
:108C20009943114440F8041C016821F4805101600B
:108C3000416821F440514160016841F00801016040
:108C4000016841F004010160016821F400710160D4
:108C5000016821F480610160816821F48071816084
:108C6000816821F400718160016841F02001016098
:108C7000016841F040010160016841F40051016068
:108C800020200297019001AE58463146C847402047
:108C90003146CDE901085846C84780203146B846DC
:108CA000CDE901075846C847514F012040F2011B4A
:108CB0004FF480768DF81CA08DF81F00ADF81DB024
:108CC000069606A9384600F02DFE386840F04000B0
:108CD00038604FF40050CDF80880019001AF28466D
:108CE0003946C8474FF48040394601903D480290CC
:108CF0002846C8474FF400403946CDE901082846C8
:108D0000C84706963B4E8DF81CA04FF0010AADF8FF
:108D10001DB08DF81FA006A906F5006000F002FE48
:108D2000D6F8000840F04000C6F80008324802902B
:108D30000220019001AF204839468046C8470320F1
:108D40003946CDF804A00126AA468DF80A00284627
:108D5000C847606866F38F306060606820F08050BC
:108D60006060264C206840F40000206054F8040C39
:108D700020F4807044F8040C206820F00200206089
:108D8000206820F400602060606A20F47000606257
:108D90000820FDF77BFF206820F00070206020682D
:108DA00040F460202060206840F48010206000F0D3
:108DB00027B800BF10E000E00008014030F8FFFFD6
:108DC0000003FA0525E400E0000400010010014062
:108DD000000C014014FCFFFF0004100208000240D8
:108DE0000004080200040002009411000C38014045
:108DF000003001400030004000040301082401401D
:108E000054F8040C20F4006044F8040C206840F08E
:108E100001002060206840F0080020602068000702
:108E2000FCD4206840F00400206020684007FCD497
:108E3000FB4C082001904046029401A9FFF73BFC3F
:108E40004FF08047F74D4FF001094FF000083868A8
:108E500020F070003860386820F44070386038685E
:108E600020F08000386042F20F70A86240F21F10BC
:108E70006862286940F001002861686820F080007D
:108E80006860286820F0700028600720ADF81D9009
:108E9000CDF819808DF8180006A94FF0804000F039
:108EA0003BFEC5F83C80A86920F40060A861A86971
:108EB00020F48060A861386840F001003860A8683C
:108EC00040F00100A8600220CDE9010401A950464C
:108ED000FFF7F1FBD5F8FC03D34F20F07000C5F885
:108EE000FC03D5F8FC0320F44070C5F8FC03D5F86A
:108EF000FC0320F08000C5F8FC0341F2F710786213
:108F0000C7F82080F86840F00100F860386820F069
:108F100080003860D5F8000420F07000C5F8000427
:108F20000620ADF81D908DF818004FF48030CDF874
:108F3000190005F57F7006A900F0EEFDC7F838802E
:108F40004FF0FF31DFF83025DFF83035DFF83845F6
:108F5000DFF85068786920F400607861786920F45F
:108F600080607861DFF81C75D5F8FC0340F00100E3
:108F7000C5F8FC03AD48DFF808558160016821F0B1
:108F800018010160AA49C160016821F06001016017
:108F9000016821F080010160016841F00101016078
:108FA000A44945F255500860486820F00700486021
:108FB000092088604AF6AA200860DFF8080DDFF86B
:108FC000B414C6E90674C6E9085380F88480C0E981
:108FD0000074C0E90253C0E90421DFF8B004C6E917
:108FE0000A216421A847326ADFF8A4040A219047C5
:108FF000326ADFF8A00405219047326ADFF898044E
:1090000001219047326ADFF8940401219047326AC7
:10901000DFF88C04C8219047DFF8887401213846B6
:10902000FEF7A0FF07F130000821FEF79BFFDFF8F5
:10903000781406F1300000F027FCDFF8701406F118
:10904000400000F021FCDFF868047B497B4A7C4B40
:109050007C4CDFF86074C0F82080C0F81C80C0F839
:109060001480C0F81080C0F80C804162816276499B
:10907000C0F84C80C0F84880C0F84080C0F83C8000
:10908000C0F8388001658260704AC0E90043704CC6
:109090004FF07E5302F50062C0E90B434FF40064C9
:1090A00032656C4A426341656B48CAF810404AF821
:1090B0000040C820B847ED4804617820B847DFF881
:1090C000F8531120A8477820B8473620A847362003
:1090D000A847DFF8E8737020B8473A20A847052072
:1090E000B847B220A8470C20B8470C20B84700204A
:1090F000B8473320B8473320B847B720A8473520B2
:10910000B847BB20A8471920B847C020A8472C2043
:10911000B847C220A8470120B847C320A8470D2060
:10912000B847C420A8472020B847C620A8470F202A
:10913000B847D020A847A420B847A120B847E020CE
:10914000A847D020B8470020B8470520B8470F20CF
:10915000B8471020B8472820B8473420B8475020D7
:10916000B8474420B8473A20B8470B20B8470620F4
:10917000B8471120B8472020B847E120A847D020A1
:10918000B8470020B8470520B8470A20B8470B2049
:10919000B8471620B8473220B8474020B8474A2081
:1091A000B8472B20B8471B20B8471C20B8472220BF
:1091B000B8471F20B8472120A8472920A8470020EA
:1091C00000214FF4A072F023CDF80080FBF794FD4E
:1091D000FCF71AF8FCF718F8B94D0220B94F4FF414
:1091E000CD71B92285F8FC0140F20120C5E909885A
:1091F000A5F85480C5F84C80C5F84480EF616F61D4
:10920000C5F8048085F8008085F85780C5F830805F
:10921000C5F83880A5F80182A5F8FE0100F01EB857
:109220000004080204000040080400400830024026
:10923000B71DC104003000400050504500002041DF
:10924000CDCCCC3E0000A04100401C460030014087
:10925000000048430000A04014FCFFFF05F160003F
:10926000FBF712FA98487E4A4FF0007185F8409259
:1092700085F80C82A5F80A8285F8089285F806928E
:1092800085F8048285F85282C5F8207285F80F822D
:10929000A5F80D8285F84482A5F85382C5E90F88A8
:1092A000DFF8C0B1C5F818028848C5F8100240F2CE
:1092B0000110A5F85002EFF3108072B611608449D6
:1092C00080F31088DBF83800B0FBF1F1CBF83410F4
:1092D0004FF47A71B0FBF1F0CBF83000EFF310846B
:1092E00072B6FFF7ADF9DFF85C9AC9E91601BFF372
:1092F0004F8FBFF36F8FFFF7A3F9D9E91612DFF88D
:10930000D4A1401A8021C9F84C00734884F3108816
:10931000C9E91888C9E91A88C9E91C88C6E900881A
:10932000C6E902888AF80080C6E90488FBF7B3F929
:109330006A4A4FF6FF77182141F2210389B1147868
:1093400087EA04276FF0070444B13DB27800002D8E
:1093500048BF83EA470007460134F5E70139013287
:10936000ECE7DAF820005E49884218D1BAF802101A
:10937000B8B2814215D1DAF81C00411CCAF81C10A1
:10938000A0B158490020B0F5806F21D00A18D368E9
:109390005C0144BF23F04063D3601030F3E7CAF8A8
:1093A00020100120AAF80270CAF81C004D480024C1
:1093B0004FF48061CAE90144CAF80C408AF80140C0
:1093C000FBF769F9DBF83800CAF81840CAE904402D
:1093D000454C00200021FE22A0470F20EF21EF2264
:1093E000A0470420FE21FE22A047FBF747FB3F4C8D
:1093F000DAF81430DAF81C2001462046FBF76AFB45
:109400009AF8000050B901208AF80000FBF736FBFB
:109410000146601C00220023FBF75CFBDBF83000F8
:10942000D9F84C2040F6B8315B2AACBFD9F84C20B3
:109430005A22A0FB0110D317541A834109DAFBF713
:1094400074FF24184D41FFF7FBF8001B71EB05007A
:10945000F9DBF0698047FCE70223FFF775BA00BF2C
:1094600004ED00E0000000206466010800080140EF
:10947000B78600084D9C0008799C0008B99B00083D
:109480008D9B0008A99C0008199C0008497F0008D2
:109490006187000835800008456E0008F1950008D6
:1094A000F594000824020020841200208416002075
:1094B000CC0100202D9D0008795100089151000831
:1094C000002200200000BE430000AF430000A04384
:1094D00040420F00401F0020C01E002018A00008BE
:1094E0006B27A5E1C01A0020C14B000800FF000354
:1094F000FDF76EFBB0B53748A54A0168C9050DD424
:10950000917E0023D37601319176C9B2022916D318
:10951000314C0121937684F8FE110FE0D37E0021B7
:1095200091760133D376DBB2022B08D32A4BD17666
:1095300083F8FE11537E012B08BF11775176016825
:10954000090704D50168C90601D4012208E00168B1
:10955000090702D40168C90601D4022200E00022F2
:109560001D4981F8FF210022006840064FF00000ED
:1095700007D4874A137E01331376DAB2062A04D35E
:10958000012281F80122824A10768148134D827CA3
:1095900022B90122827441F22B0028600C6C104920
:1095A000FBF79BFE50B90F49FBF762FE50B90E491D
:1095B000FBF793FE30B141F2111001E041F29B1034
:1095C0002860B0BD0949FBF788FE0028F9D141F2B7
:1095D0002B00F5E7080C0140002200204004004069
:1095E00000004842000034420000204200000C42CB
:1095F0002DE9F843664D687F01306877C0B20528D1
:109600005FD3DFF8908198F8000001283CD0002853
:1096100055D1614F0A20002687F808010220C7F8BB
:109620000961C7F80D61A7F81161A7F806015B4849
:10963000C7F8020107F58170FDF752FBFDF764FBE7
:10964000A8645748DFF85C91016809F1400441F0D3
:1096500001010160F02087F81701A86C010E87F85E
:10966000160187F81311010C000A87F8141187F806
:109670001501162E0ED0B81990F80211204600F0F0
:1096800025F9C0B90136F4E74248022105F11E0868
:10969000017011E099F84D0001280CD00DF1030183
:1096A000204600F000F9D9F850009DF80310416001
:1096B000012089F84D0000BF022088F8000000203A
:1096C0006877384F97F83D0002285BD1DFF8C880F3
:1096D000002407F1300508F101094E4628463146BD
:1096E00000F0E1F8002804BF013401360228F5D16A
:1096F000002088F8014187F83D00E0B2162845D1E6
:1097000098F80100D1283DD198F81600F02839D1F9
:109710004846FDF7E5FAFDF7F7FA21490A6842F0F5
:1097200001020A6098F81210B1EB106F2AD198F874
:109730001320C0F307418A4224D198F81410C0F3D3
:10974000072291421ED198F81510C0B2814219D15A
:1097500098F8022098F8031098F80500012A08BF2D
:10976000012905D0022A08BF012906D000BF09E05F
:109770000028F7D10748002103E00028F6D105486A
:10978000012101700448002180F80111BDE8F8832F
:1097900000010020C8000020EC1F0020D1010100C2
:1097A00008300240780100202DE9F04F81B04EF2E0
:1097B0001400CEF2000040F200150668EFF3108AA4
:1097C00072B6C2F20005D5E918014FF00108B8F1F0
:1097D000010250EB060206F1010741F10001384495
:1097E00042F2584BC5E91801C2F2000BDBF8000049
:1097F000B8F1010140F2000956EB0001C2F2000984
:109800004FF00001D9F8302007EB000441F10001CE
:1098100020460023FAF7D8FCD5E91A23121859413B
:10982000C5E91A21D9F83010002300FB1140B8F126
:109830000101CBF8000042F25C4B8AF31088EFF391
:10984000108A72B6C2F2000BDBF80000D9F834209F
:1098500056EB00014FF0000107EB000441F100015D
:109860002046FAF7B1FCD5E91C2312185941C5E985
:109870001C21D9F8341000FB1140CBF800008AF30A
:10988000108801B0BDE8F08F816000214FF4806343
:109890000022016083809A4228BF704783689954F0
:1098A00001328388F7E742880388934204BF02208D
:1098B000704783689A5C0A70428881880132B2FBE3
:1098C000F1F303FB1121418000207047B0B50288FD
:1098D0008388541CB4FBF3F505FB13434488A3426F
:1098E00004BF0120B0BD8368995402888188013289
:1098F000B2FBF1F303FB112101800020B0BD000099
:1099000083490A6822F002020A600A6822F0010212
:109910000A6088604868C007FCD08868486800060C
:10992000FCD47047C26922F40062C2610A78032A3B
:1099300027D8DFE802F0021A060E026822F400427D
:1099400002E0026842F400420260026822F48042AF
:1099500006E0026842F400420260026842F480427B
:109960000260026822F480620AE0026822F4004287
:109970000260026822F480420260026842F480625F
:109980000260CA79036802F0010223F4007343EA1B
:10999000422202604A78012A06D1CA79012A03D1FB
:1099A000026842F4807202E0026822F4807202606F
:1099B0004A78036862F3820303608A78436823F479
:1099C0008073072A88BF03F5807343608A78036831
:1099D00062F3C5030360CA78036802F0010223F052
:1099E000800343EAC21202600A79036802F00102AE
:1099F00023F4006343EAC22202604A79036862F3F7
:109A0000410303608979026861F3000202607047D4
:109A10002DE9F04F87B005463A4810273A4C884662
:109A200047600320A047C5F30740A047C5F30720C0
:109A3000A047E8B2A047354CA5208DF81B0004F1E3
:109A40001C0A5046FEF75AFA04F130063046FEF77B
:109A500055FA0DF11B000DF10409ADF80C7000274B
:109A6000ADF80E8002902A4849460497ADF814706C
:109A700000F10805834630460195FEF701FA2548B6
:109A80004946ADF80C70ADF80E80ADF81470CDE914
:109A900001504FF4807004905046FEF7F1F9DBF866
:109AA000000040F00200CBF80000DBF8000040F0BE
:109AB0000100CBF80000E06940F00100E061206B9C
:109AC00040F00100206320688006FCD520200D496D
:109AD0006060E06920F00100E061206B20F001008F
