:020000040800F2
:1040000088280020894100083D7400088D5600086A
:1040100039740008514A00085D7E00080000000065
:104020000000000000000000000000004D770008C4
:10403000554A00080000000049760008AD4100081C
:10404000A3410008A3410008A3410008A3410008C0
:10405000A3410008A3410008A3410008A3410008B0
:10406000A3410008A3410008A3410008A3410008A0
:10407000A3410008A3410008A3410008A341000890
:10408000A3410008A3410008A3410008A341000880
:10409000A3410008A3410008A3410008A341000870
:1040A000A3410008A3410008A3410008A341000860
:1040B000A3410008A3410008A3410008A341000850
:1040C000A3410008A3410008A3410008A341000840
:1040D000A34100082D7D0008A3410008A34100086A
:1040E000A3410008A3410008A3410008000000000C
:1040F00000000000000000000000000000000000C0
:1041000000000000A3410008A341000800000000D7
:10411000A3410008A34100080000000000000000C7
:10412000A3410008A3410008A3410008A3410008DF
:10413000000000000000000000000000000000007F
:10414000000000000000000000000000A341000883
:104150000000000000000000A3410008A341000887
:10416000000000000000000000000000A341000863
:10417000DFF810D000F070F900F026FA0048004790
:10418000BDB300088828002006488047064800473D
:10419000FEE7FEE7FEE7FEE7FEE7FEE7FEE7FEE7F7
:1041A000FEE7FEE7557800087141000830B410B50D
:1041B0000348804730BCAE4630BC024800477047D9
:1041C0001DBC0008517700082DE9F05F054600206E
:1041D00092469B4688460646814640241BE0284678
:1041E00041464746224600F05EF953465A46C01AF9
:1041F000914110D311461846224600F045F92D1A78
:1042000067EB01084F4622460120002100F03CF9EF
:1042100017EB00094E41201EA4F10104DFDC4846E3
:1042200031462A464346BDE8F09F2DE9FE4F8046C1
:1042300081EA0300C00F0C46009021F0004123F0FA
:104240000045B8EB0200A94105D240462146904600
:104250001C460B46024623F00040104347D0270D72
:10426000C7F30A00C3F30A510290401A0190402894
:104270006BDAC3F3130040F4801B0098924620B120
:104280000023D2EB030A63EB0B0B01985946C0F1F4
:104290004002504600F0F8F806460D465046594692
:1042A000019A00F010F910EB08006141002487EA40
:1042B000115284EAE7731A4340D0009A62B3019A1C
:1042C000012A4FEA075215DC001B61EB02014FF097
:1042D000004202EA0752CDE90042001C41F580117C
:1042E00032462B4600F010F903B0BDE8F08F40468F
:1042F0002146F9E7001B61EB0201001C41F5801328
:1043000000185B412018A2F5001747EB030140EAB3
:10431000D570B6196D4111E06D084FEA360645EAD1
:10432000C0754FEA0752001B61EB0201001C41F50A
:10433000801149084FEA30000019514132462B469E
:1043400003B0BDE8F04F00F0D0B800980122400063
:104350000023D0EB020263EBE073009821464FEAA2
:10436000E074B8EB000061EB0401E9E783F000437F
:104370005BE781F0004158E72DE9F04D81EA030445
:1043800004F0004B21F0004514464FF0000A23F0E2
:10439000004150EA050220D054EA01021DD0C5F3C5
:1043A0000A570246C5F31303C1F31300C1F30A56BB
:1043B00040F4801543F48013A7EB0608101BD64683
:1043C00008F2FD3873EB050002D308F1010801E0A3
:1043D00092185B41B8F1000F03DA00200146BDE8F6
:1043E000F08D00204FF48011064684460EE0171B26
:1043F00073EB050705D3121B63EB050306434CEA79
:10440000010C49084FEA300092185B4150EA01075D
:10441000EDD152EA030012D082EA040083EA0501DA
:10442000084305D0101BAB4106D20122002306E051
:1044300000224FF0004302E06FF0010253101AEB2C
:1044400006004CEB085110EB0A0041EB0B01BDE8F4
:10445000F04D00F04AB800001CB50948009009482A
:1044600001900546009C06E0E06840F0010394E8F6
:10447000070098471034AC42F6D3FFF77DFE0000EA
:10448000FCC301081CC40108202A04DB203A00FAFE
:1044900002F1002070479140C2F1200320FA03F39B
:1044A000194390407047202A04DB203A21FA02F099
:1044B0000021704721FA02F3D040C2F1200291405E
:1044C000084319467047202A06DBCB17203A41FAE9
:1044D00002F043EAE07306E041FA02F3D040C2F191
:1044E0002002914008431946704710B5141E73F11D
:1044F000000408DA401C41F1000192185B411A43A4
:1045000001D120F0010010BD2DE9F04D92469B46EF
:1045100011B1B1FA81F202E0B0FA80F22032904695
:10452000FFF7B2FF04460F4640EA0A0041EA0B01DA
:1045300053465A46084313D0114653EA010019D096
:10454000C8F140025046FFF7AEFF05460E46504602
:1045500059464246FFF798FF084305D0012004E082
:1045600020463946BDE8F08D0020054346EAE07656
:104570002C4337430A986305E40AA0EB08000022A5
:10458000FD0A44EA47540A3002D500200146E9E713
:10459000010510196941DDE9084500196941BDE8C7
:1045A000F04DA2E7D2B201E000F8012B491EFBD288
:1045B00070470022F6E710B513460A46044619462E
:1045C000FFF7F0FF204610BD7CB507480090074874
:1045D00001900546009C04E020460168084480479D
:1045E000241DAC42F8D17CBD1CC4010820C40108C4
:1045F000F0B480EA0102D40F4200B2EB410F02D2C4
:104600000246084611464A0042D0C30DDDB2C1F34E
:10461000C752AD1A202D35DAC1F3160141F400025C
:1046200004B15242C5F1200602FA06F12A411044B3
:10463000B3EBD05F23D0C4B1012DA0EBC35009DC94
:10464000F0BC4FF0004202EAC352DBB200F50000BA
:1046500000F06EB9400000F1807000EBC350A0F193
:10466000807040EAD170490009E0490841EAC07110
:10467000A0EBC35000F50000400800EBC350F0BCB5
:1046800000F04DB96142012202EB4101001BF6E747
:10469000F0BC704781F00041AAE780F00040A7E736
:1046A00080EA010210B502F00043400022D04A0027
:1046B0001FD0010E01EB1261C0F35600C2F3560287
:1046C00040F4000042F40002A0FB022000047F3905
:1046D000140400D0401C50EA124001D44000491E8E
:1046E000C2B20C0604EBD010401C4008802A02D055
:1046F00003E0002010BD20F00100002900DA0020B6
:10470000184310BD30B480EA010202F0004530F0D9
:10471000004221F0004013D090B1C30DD40DC2F37C
:104720001601C0F31600E41A41F4000140F400023F
:104730007D34914201D3641C00E04900002C02DA70
:1047400030BC002070474FF400000023914201D399
:10475000891A034340084FEA4101F7D151B1914210
:1047600002D14FF0004105E002D24FF0010101E01B
:104770006FF0010103EBC450284430BC00F0CFB807
:10478000002801DBC0F10040002901DBC1F100413C
:10479000814201D80120704700207047002801DBCA
:1047A000C0F10040002901DBC1F10041814201D28A
:1047B0000120704700207047002801DBC0F1004055
:1047C000002901DBC1F10041814201D30120704782
:1047D00000207047002801DBC0F10040002901DB08
:1047E000C1F10041814201D901207047002070478A
:1047F000002801DBC0F10040002901DBC1F10041CC
:10480000814201D10120704700207047C10F80EA2A
:10481000E0700844CA079623002100F089B8962367
:104820000022114600F084B800F0004220F0004061
:10483000C10DC0F3160040F400007F2901DA00200A
:104840007047962903DCC1F19601C84001E0963912
:104850008840002AF4D04042704720F00040C10D4B
:10486000C0F3160040F400007F2901DA00207047F1
:10487000962903DCC1F19601C840704796398840FB
:10488000704770B5C1F30A5201F000450024C1F32E
:10489000130140F2FF3341F480119A4201DA002003
:1048A00070BD40F233439A42A2F2334203DC5242DB
:1048B000FFF7F9FD00E090402C43F1D0404270BD7D
:1048C00000F0004230F000400AD0C10D01F56071E7
:1048D000C0F3160042EA0151C20840071143704775
:1048E00000200146704701F0004330B421F0004140
:1048F00050EA010206D00A0DA2F56072C1F313015D
:10490000002A02DC30BC00207047440F44EAC10496
:10491000C100E01830BC00EBC250AFF300800029AA
:10492000A8BF7047401C490008BF20F00100704735
:1049300010B4B0FA80FC00FA0CF050EA010404BF95
:1049400010BC704749B1CCF1200421FA04F411FAEB
:104950000CF118BF012121430843A3EB0C01CB1D2F
:104960004FEA00614FEA102042BF002010BC7047A0
:1049700000EBC35010440029A4BF10BC7047401C7A
:10498000490008BF20F0010010BC704710B542F28A
:104990000044C2F2000441F2E501C2F200012046E7
:1049A00007F01AFB04F1100041F2E541C2F20001E8
:1049B00007F012FB43F60000C4F20100206210BDB4
:1049C00080B582B040F29400C2F2000001900198DC
:1049D000007930B1FFE7012807D0FFE702281CD09B
:1049E00033E00198C06880472FE0019880688047D5
:1049F00040F2C000C2F20000017801310170C8B27B
:104A0000042809DBFFE701980021017140F2C00092
:104A1000C2F20000017018E0FFE70198806880474B
:104A200040F2C000C2F20000017801310170C8B24A
:104A30000F2809DBFFE701980021017140F2C00057
:104A4000C2F200000170FFE7FFE702B080BD000086
:104A5000FFE7FEE77047000080B586B01821ADF88B
:104A600016102821ADF814102321ADF81210B4212E
:104A7000ADF810108DF80F0043F69F50ADF80C0004
:104A800042F2E400ADF80A002F208DF809009DF8ED
:104A90000F00622804DBFFE762208DF80F00FFE7BC
:104AA0009DF80F00052804DCFFE705208DF80F00B6
:104AB000FFE7BDF81000BDF81410401AADF806006D
:104AC000BDF806009DF80F10C1F16401484348F29B
:104AD0001F51C5F2EB1150FB01F0410901EBD07001
:104AE000ADF80400BDF81600BDF81410A1F1040CD7
:104AF000BDF812309A1CBDF8043019440539BDF8D0
:104B00000A3000938BB21FFA8CF192B201F09AFE38
:104B1000BDF81600BDF81410BDF804201144053985
:104B20009DF80920009289B20C220B2302F0FCFEB2
:104B3000BDF81600BDF81410BDF80420114401F1B1
:104B4000060CBDF812200132BDF81030BDF80C1073
:104B500000911FFA8CF192B201F074FE06B080BD94
:104B600080B586B041F6C050C2F200008069039063
:104B7000FFE700F0F3F904900498039988422CD2DF
:104B8000FFE7EFF3108005900598029072B641F6AA
:104B9000C050C2F2000080690190019803998842D8
:104BA0000ED1FFE7049841F6C051C2F200018861BE
:104BB000086901300861BFF35F8F0120009002E0B7
:104BC00000200090FFE7029810B9FFE762B6FFE708
:104BD000009808B9FFE701E008E0FFE7049903A89F
:104BE00003F0F6FC0028C4D0FFE7FFE7049806B006
:104BF00080BD000080B58CB00A900991089207939F
:104C000007200590FFE70598002863D0FFE700F034
:104C100033FD0490049800F03F0041F64011C2F2C9
:104C2000000101EB0010069004984FF4700101EAB6
:104C3000803001900A980199084309994FF08052F9
:104C400002EAD101084308994FF0005202EA9101AB
:104C5000084307994FF0804202EA5101084340F0AF
:104C60000060039006980C30039902F09DFB0390BE
:104C70009DF80F004007002827D5FFE7039880F034
:104C800000400390039800F000400290099820F043
:104C900000400299084306990860089820F00040F7
:104CA0000299084306994860079820F0004002994D
:104CB00008430699886006980C30039903F0B6F80B
:104CC00000F0F0FC01200B9009E0FFE705980138A7
:104CD000059098E700F0DCFC00200B90FFE70CB09B
:104CE00080BD000087B00590049103920498FE28CF
:104CF00004D8FFE70398FF2803D3FFE700200690BE
:104D000036E0002002900190FFE7019803282CD89C
:104D1000FFE705980199C840C007F0B1FFE7049884
:104D20000090FFE700980399884215D8FFE70098A4
:104D300000F00701012202FA01F1029A02EBD00011
:104D400041F64052C2F20002135C19431154FFE7CE
:104D5000009801300090E5E7FFE7029820300290CC
:104D6000FFE7019801300190CFE701200690FFE7AF
:104D700007B0704710B588B0002007900121069158
:104D800041F6C054C2F20004207041F64050C2F215
:104D900000008021FFF70DFC03F0A0FFADF812002A
:104DA000206A42F26B71CEF2A51188420FD0FFE764
:104DB00041F6C050C2F2000042F26B71CEF2A51172
:104DC0000162BDF8121041800121C1611CE041F671
:104DD000C050C2F200004088BDF8121088420AD0CC
:104DE000FFE7BDF8120041F6C051C2F20001488051
:104DF0000120C86107E041F6C050C2F20000C1695D
:104E00000131C161FFE7FFE741F6C050C2F2000087
:104E1000C069012812D1FFE741F6C050C2F200007C
:104E20000021417041608160C16041F64010C2F2D2
:104E300000004FF48061FFF7BCFB20E000200090F1
:104E4000FFE700983F2819D8FFE7009841F6401186
:104E5000C2F2000101EB001005900598C07B4007ED
:104E6000002806D5FFE70598C16821F04061C160C0
:104E7000FFE7FFE7009801300090E2E7FFE741F627
:104E8000C050C2F20000C069012816D1FFE701201E
:104E90000290029820B1FFE700F064F8039002E06E
:104EA00000200390FFE7039841F6C051C2F20001D1
:104EB000486100208861086102E001200290FFE75C
:104EC000029830B3FFE707980021FE22FFF70AFFA0
:104ED0000F20EF21EF22FFF705FF0420FE21FE2225
:104EE000FFF700FFFFF73CFE0190019941F6C0502B
:104EF000C2F200004369C2694FF60070C0F2003090
:104F0000FFF778FE069818B1FFE700F005F8FFE715
:104F1000FFE708B010BD000010B582B041F6C050E8
:104F2000C2F20000007818B1FFE70120019013E001
:104F300041F6C050C2F2000001240470FFF710FED9
:104F4000009000994FF60170C0F20030002200235B
:104F5000FFF750FE0194FFE702B010BD80B504F0EA
:104F60007FFF80BD40F20800C2F200000068704779
:104F700070B582B042F21810C2F2000001900198A0
:104F8000002404700198446001980025C4F2BE35E5
:104F900045610198C5610198C46301984464019812
:104FA000A0F84C400198446201988462019804631F
:104FB00001984462019880F84F400198022180F8DE
:104FC000F4110198012680F8F661019880F8FA4101
:104FD000019880F8F711019880F8F941019858304C
:104FE000CD21B922FFF7DEFA019800F22510CD217C
:104FF000B922FFF7D7FA019880F8FC41019880F8B0
:10500000FE61019880F80062019880F802420198E0
:1050100080F80342019880F83862019880F80442D1
:10502000019880F80542019880F806420198002115
:10503000C4F2A031C0F8081201980021C4F2AF31C7
:10504000C0F810120198C0F81852019880F849422F
:10505000019880F83C42019880F84762019880F8F6
:10506000486201988463019880F84A4202B070BD9A
:10507000B0B540F2D700C2F200000078032800F279
:10508000F982DFE810F00400CC001202C00240F206
:10509000C600C2F200000078002840F0B880FFE7A8
:1050A0004FF60000C0F6030004F032FA4FF6FF712D
:1050B00088422DD0FFE74FF60040C0F6030004F011
:1050C00027FA4FF6FF71884222D0FFE74FF614000F
:1050D000C0F6030004F0C4FC40F2C204C2F20004B3
:1050E00020804FF61440C0F6030004F0B9FC40F2F3
:1050F000C401C2F20001088020880988884203DDCB
:10510000FFE704F03BFD02E004F098FDFFE720E03C
:105110004FF60000C0F6030004F0FAF94FF6FF71F5
:10512000884203D0FFE704F029FD11E04FF600406C
:10513000C0F6030004F0ECF94FF6FF71884203D08B
:10514000FFE704F07BFD02E004F068FEFFE7FFE705
:10515000FFE703F0B5FA42F21814C2F200046069E6
:10516000FFF762FB40F2D001C2F200010880606AE2
:10517000FFF75AFB40F2D201C2F20001088094F816
:10518000FC0140F2D601C2F20001087094F8FE0161
:1051900040F20201C2F20001087094F8000240F2ED
:1051A0000101C2F200010870D4F80802FFF73CFBCD
:1051B00040F2CA01C2F200010880D4F81002FFF7E1
:1051C00033FB40F2CC01C2F200010880D4F818028F
:1051D000FFF72AFB40F2CE01C2F200010880E06B2B
:1051E000FFF722FB40F2D401C2F20001087094F8EC
:1051F0003C0240F2D501C2F20001087040F2C60044
:10520000C2F200000121017084F84A1206E040F267
:10521000D700C2F20000012101702BE22AE240F225
:10522000D000C2F200000088FFF7F9FA42F218112C
:10523000C2F200014969FFF7DBFA002800F08F8015
:10524000FFE740F2D200C2F200000088FFF7E7FA61
:1052500042F21811C2F20001496AFFF7C9FA0028A8
:105260007DD0FFE740F2D600C2F20000007842F2A3
:105270001811C2F2000191F8FC1188426FD1FFE7CA
:1052800040F20200C2F20000007842F21811C2F2AD
:10529000000191F8FE11884261D1FFE740F2010060
:1052A000C2F20000007842F21811C2F2000191F837
:1052B0000012884253D1FFE740F2D400C2F200004E
:1052C0000078FFF7ACFA42F21811C2F20001C96B84
:1052D000FFF78EFA002842D0FFE740F2CA00C2F280
:1052E00000000088FFF79BFA42F21811C2F2000199
:1052F000D1F80812FFF77CFA88B3FFE740F2CC0040
:10530000C2F200000088FFF78AFA42F21811C2F2D6
:105310000001D1F81012FFF76BFA00B3FFE740F27B
:10532000CE00C2F200000088FFF779FA42F21811AD
:10533000C2F20001D1F81812FFF75AFA78B1FFE76C
:1053400040F2D500C2F20000007842F21811C2F219
:10535000000191F83C12884200F0A680FFE704F0BB
:10536000C1FB40F2C700C2F200000078C007A8B33A
:10537000FFE74FF60004C0F60304204604F08AFB62
:1053800042F21815C2F200056869FFF74DFA0146AE
:10539000204604F0DBFA686AFFF746FA01464FF64A
:1053A0000200C0F6030004F0D1FA95F8FC114FF6A4
:1053B0000400C0F6030004F0C9FA95F8FE114FF698
:1053C0000600C0F6030004F0C1FA95F800124FF68B
:1053D0000800C0F6030004F0B9FA34E04FF60044C8
:1053E000C0F60304204604F055FB42F21815C2F241
:1053F00000056869FFF718FA0146204604F0A6FA8E
:10540000686AFFF711FA01464FF60240C0F6030042
:1054100004F09CFA95F8FC114FF60440C0F6030026
:1054200004F094FA95F8FE114FF60640C0F603001A
:1054300004F08CFA95F800124FF60840C0F603000D
:1054400004F084FAFFE742F21814C2F20004606923
:10545000FFF7EAF940F2D001C2F200010880606A69
:10546000FFF7E2F940F2D201C2F20001088094F89D
:10547000FC0140F2D601C2F20001087094F8FE016E
:1054800040F20201C2F20001087094F8000240F2FA
:105490000101C2F20001087040F2D700C2F2000020
:1054A000017801310170E5E0E4E040F2C700C2F2AA
:1054B00000000078C007C0B3FFE742F21814C2F240
:1054C0000004D4F80802FFF7AFF901464FF60A00CE
:1054D000C0F6030004F03AFAD4F81002FFF7A4F97A
:1054E00001464FF60C00C0F6030004F02FFAD4F882
:1054F0001802FFF799F901464FF60E00C0F60300B7
:1055000004F024FAE06BFFF78FF901464FF6100024
:10551000C0F6030004F01AFA94F83C124FF6120099
:10552000C0F6030004F012FA37E042F21814C2F297
:105530000004D4F80802FFF777F901464FF60A4055
:10554000C0F6030004F002FAD4F81002FFF76CF979
:1055500001464FF60C40C0F6030004F0F7F9D4F80A
:105560001802FFF761F901464FF60E40C0F603003E
:1055700004F0ECF9E06BFFF757F901464FF61040E5
:10558000C0F6030004F0E2F994F83C124FF6124022
:10559000C0F6030004F0DAF9FFE742F21814C2F291
:1055A0000004D4F80802FFF73FF940F2CA01C2F242
:1055B00000010880D4F81002FFF736F940F2CC0160
:1055C000C2F200010880D4F81802FFF72DF940F26A
:1055D000CE01C2F200010880E06BFFF725F940F22E
:1055E000D401C2F20001087094F83C0240F2D501E7
:1055F000C2F20001087040F2D700C2F20000017848
:105600000131017036E040F2C700C2F200000078BC
:10561000C00760B1FFE740F2C800C2F20000018895
:105620004FF61400C0F6030004F090F90BE040F2CE
:10563000C800C2F2000001884FF61440C0F6030013
:1056400004F084F9FFE704F0A1F940F2C800C2F2C7
:10565000000001880131018040F2C700C2F2000061
:1056600001780131017040F2D700C2F2000001213F
:105670000170FFE7B0BD000080B541F6C050C2F236
:105680000000043002F0DCFF80BD0000FFE7FEE711
:1056900080B541F6C050C2F200000C3002F0D0FFDD
:1056A00080BD000080B541F6C050C2F20000083055
:1056B00002F0C6FF80BD0000B0B504F067FBD8B9AA
:1056C000FFE704F04BFBB8B9FFE704F017FB98B90C
:1056D000FFE704F073FB78B9FFE704F027FB58B944
:1056E000FFE704F083FB38B9FFE740F2D800C2F2CD
:1056F000000000210170FFE740F22804C2F200041C
:10570000204604F0ADFD41F6FD01C2F20001087033
:1057100004F1100004F0A4FD41F6FE01C2F2000104
:10572000087004F1200004F09BFD41F6FF01C2F275
:105730000001087004F1300004F092FD41F60311FD
:10574000C2F20001087004F1400004F089FD41F646
:105750000011C2F20001087004F1500004F080FD55
:1057600041F60211C2F20001087040F2D800C2F204
:1057700000000078002840F07E87FFE741F6FD003A
:10578000C2F20000007898B9FFE740F20000C2F2D0
:1057900000000B21017040F29400C2F200000121D0
:1057A000017140F2D800C2F20000017000F0BFBDEC
:1057B00041F6FE00C2F20000007898B9FFE740F21F
:1057C0000000C2F200000C21017040F29400C2F20D
:1057D00000000121017140F2D800C2F20000017006
:1057E00000F0A4BD41F6FF00C2F20000007898B9B5
:1057F000FFE740F20000C2F200000D21017040F20C
:105800009400C2F200000121017140F2D800C2F2FE
:105810000000017000F089BD41F60010C2F20000E6
:105820000078002840F07881FFE742F21810C2F2B9
:10583000000090F84702022812D0FFE742F2181049
:10584000C2F2000090F84702032809D0FFE742F2B5
:105850001810C2F2000090F847020E2807D1FFE7A7
:1058600040F20000C2F200000221017047E142F262
:105870001810C2F2000090F84702042810DBFFE77E
:1058800042F21810C2F2000090F847020D2807DC1F
:10589000FFE740F20000C2F20000092101702DE193
:1058A00042F21810C2F2000090F847020F2807D108
:1058B000FFE740F20000C2F20000112101701CE17C
:1058C00042F21810C2F2000090F84702102807D1E7
:1058D000FFE740F20000C2F20000122101700BE16C
:1058E00042F21810C2F2000090F8470211282AD1A3
:1058F000FFE742F21810C2F2000090F83F020128C0
:1059000007D1FFE740F20000C2F20000162101704B
:1059100018E042F21810C2F2000090F83F0280B97D
:10592000FFE742F21810C2F20000112180F847127E
:10593000012180F83F120021C4F27F31C16241632E
:10594000FFE7FFE7D7E042F21810C2F2000090F83C
:105950004702122807D1FFE740F20000C2F2000020
:1059600019210170C6E042F21810C2F2000090F84E
:105970004702132807D1FFE740F20000C2F20000FF
:105980001A210170B5E042F21810C2F2000090F83E
:105990004702142825D1FFE742F21810C2F2000096
:1059A00090F84202012807D1FFE740F20000C2F25E
:1059B00000001E21017013E042F21810C2F2000034
:1059C00090F8420258B9FFE742F21810C2F2000004
:1059D000142180F84712012180F84212FFE7FFE707
:1059E00086E042F21810C2F2000090F84702152833
:1059F00023D1FFE742F21810C2F2000090F84302F0
:105A000040B9FFE742F21810C2F20000012180F80D
:105A1000431211E042F21810C2F2000090F8430263
:105A2000012808D1FFE742F21810C2F2000000215D
:105A300080F84312FFE7FFE759E042F21810C2F284
:105A4000000090F84702162823D1FFE742F2181011
:105A5000C2F2000090F8440240B9FFE742F2181089
:105A6000C2F20000012180F8441211E042F2181045
:105A7000C2F2000090F84402012808D1FFE742F288
:105A80001810C2F20000002180F84412FFE7FFE77F
:105A90002CE042F21810C2F2000090F847021728DA
:105AA00023D1FFE742F21810C2F2000090F845023D
:105AB00040B9FFE742F21810C2F20000012180F85D
:105AC000451211E042F21810C2F2000090F84502AF
:105AD000012808D1FFE742F21810C2F200000021AD
:105AE00080F84512FFE7FFE7FFE7FFE7FFE7FFE783
:105AF000FFE7FFE7FFE7FFE7FFE7FFE7FFE740F22A
:105B00009400C2F200000121017140F2D800C2F2FB
:105B10000000017000F008BC41F60310C2F2000062
:105B20000078002840F07781FFE742F21810C2F2B7
:105B3000000090F84702022812D0FFE742F2181046
:105B4000C2F2000090F84702032809D0FFE742F2B2
:105B50001810C2F2000090F847020E2807D1FFE7A4
:105B600040F20000C2F200000021017047E142F261
:105B70001810C2F2000090F84702042810DBFFE77B
:105B800042F21810C2F2000090F847020D2807DC1C
:105B9000FFE740F20000C2F20000082101702DE191
:105BA00042F21810C2F2000090F847020F2807D105
:105BB000FFE740F20000C2F20000112101701CE179
:105BC00042F21810C2F2000090F84702102807D1E4
:105BD000FFE740F20000C2F20000122101700BE169
:105BE00042F21810C2F2000090F8470211282AD1A0
:105BF000FFE742F21810C2F2000090F83F020128BD
:105C000007D1FFE740F20000C2F200001521017049
:105C100018E042F21810C2F2000090F83F0280B97A
:105C2000FFE742F21810C2F20000112180F847127B
:105C3000012180F83F120021C4F27F31C16241632B
:105C4000FFE7FFE7D7E042F21810C2F2000090F839
:105C50004702122807D1FFE740F20000C2F200001D
:105C600019210170C6E042F21810C2F2000090F84B
:105C70004702132807D1FFE740F20000C2F20000FC
:105C80001A210170B5E042F21810C2F2000090F83B
:105C90004702142825D1FFE742F21810C2F2000093
:105CA00090F84202012807D1FFE740F20000C2F25B
:105CB00000001D21017013E042F21810C2F2000032
:105CC00090F8420258B9FFE742F21810C2F2000001
:105CD000142180F84712012180F84212FFE7FFE704
:105CE00086E042F21810C2F2000090F84702152830
:105CF00023D1FFE742F21810C2F2000090F84302ED
:105D000040B9FFE742F21810C2F20000012180F80A
:105D1000431211E042F21810C2F2000090F8430260
:105D2000012808D1FFE742F21810C2F2000000215A
:105D300080F84312FFE7FFE759E042F21810C2F281
:105D4000000090F84702162823D1FFE742F218100E
:105D5000C2F2000090F8440240B9FFE742F2181086
:105D6000C2F20000012180F8441211E042F2181042
:105D7000C2F2000090F84402012808D1FFE742F285
:105D80001810C2F20000002180F84412FFE7FFE77C
:105D90002CE042F21810C2F2000090F847021728D7
:105DA00023D1FFE742F21810C2F2000090F845023A
:105DB00040B9FFE742F21810C2F20000012180F85A
:105DC000451211E042F21810C2F2000090F84502AC
:105DD000012808D1FFE742F21810C2F200000021AA
:105DE00080F84512FFE7FFE7FFE7FFE7FFE7FFE780
:105DF000FFE7FFE7FFE7FFE7FFE7FFE7FFE740F227
:105E00009400C2F200000121017140F2D800C2F2F8
:105E10000000017087E241F60210C2F20000007833
:105E2000002840F07F82FFE742F21810C2F2000023
:105E300090F84702022800F06982FFE742F218104A
:105E4000C2F2000090F84702032800F05F82FFE7EB
:105E500042F21810C2F2000090F847020E2800F03B
:105E60005582FFE742F21810C2F2000090F8470294
:105E70000438142800F24882DFE810F015001D00F5
:105E800025003000380040004B00560061006900DA
:105E90004602AF00D90023018501AF01D501F80109
:105EA000240236023E0242F21810C2F200000F2114
:105EB00080F8471229E242F21810C2F200001021C5
:105EC00080F8471221E242F21810C2F200001121BC
:105ED00080F84712012180F83F1216E242F21810B2
:105EE000C2F20000122180F847120EE242F21810AE
:105EF000C2F20000132180F8471206E242F21810A5
:105F0000C2F20000142180F84712012180F84212E9
:105F1000FBE142F21810C2F20000152180F847128E
:105F2000002180F84312F0E142F21810C2F20000A2
:105F3000172180F84712002180F84512E5E142F26E
:105F40001810C2F20000182180F84712DDE142F279
:105F50001810C2F2000090F83C0258BBFFE742F272
:105F60001810C2F2000090F8F70140B9FFE742F2C2
:105F70001810C2F20000022180F8471219E042F224
:105F80001810C2F2000090F8F701012808D1FFE7CD
:105F900042F21810C2F20000032180F8471207E015
:105FA00042F21810C2F20000022180F84712FFE707
:105FB000FFE711E042F21810C2F2000090F83C0234
:105FC000012808D1FFE742F21810C2F200000E21AA
:105FD00080F84712FFE7FFE797E142F21810C2F29C
:105FE0000000042180F8471290F83C1280F83E121D
:105FF00090F83E0240B9FFE742F21810C2F20000EA
:10600000002180F83C1211E042F21810C2F20000A8
:1060100090F83E02012808D1FFE742F21810C2F2C0
:106020000000012180F83C12FFE7FFE76DE142F23A
:106030001810C2F20000052180F8471290F8FC11F8
:1060400080F8461290F84602C0B9FFE742F21814F1
:10605000C2F20004002084F8FC0160690021C4F24F
:106060001011FEF71DFB0021C4F2A001FEF74AFB50
:106070004FF08441FEF7BCFAE06121E042F21810D3
:10608000C2F2000090F84602012818D1FFE742F260
:106090001814C2F20004012084F8FC01E0694FF0FA
:1060A0004241FEF7A5FA0021C4F2A001FEF7F8FA7A
:1060B0000021C4F21011FEF725FB6061FFE7FFE746
:1060C00023E142F21810C2F2000090F83F020028CB
:1060D00041D1FFE742F21815C2F2000568696C6A07
:1060E000A96AFEF7D7FA01462046FEF781FA6862F0
:1060F000686A0021C4F2C821FEF750FB48B9FFE7E7
:1061000042F21810C2F200000021C4F2C82141621C
:10611000FFE742F21810C2F20000406A0021CCF200
:10612000C821FEF757FB48B9FFE742F21810C2F248
:1061300000000021CCF2C8214162FFE742F21810B2
:10614000C2F20000062180F847120021C4F27F311C
:10615000C162416316E042F21810C2F2000090F8EA
:106160003F0201280DD1FFE742F21810C2F20000F1
:10617000002180F83F120021C4F27F31C1624163E7
:10618000FFE7FFE7C1E042F21810C2F2000007216A
:1061900080F8471290F8FE1180F8401290F8400203
:1061A000012808D1FFE742F21810C2F200000121D5
:1061B00080F8FE1110E042F21810C2F2000090F8D0
:1061C000400240B9FFE742F21810C2F2000000217D
:1061D00080F8FE11FFE7FFE797E042F21810C2F2E5
:1061E0000000082180F8471290F8410240B9FFE70B
:1061F00042F21810C2F20000002180F8001211E0F3
:1062000042F21810C2F2000090F84102012808D1B1
:10621000FFE742F21810C2F20000012180F80012DC
:10622000FFE7FFE771E042F21810C2F2000090F8B9
:10623000420240B9FFE742F21810C2F20000092101
:1062400080F8471211E042F21810C2F2000090F8F4
:106250004202012808D1FFE742F21810C2F2000002
:10626000002180F84212FFE7FFE74EE042F21810EB
:10627000C2F2000090F84302012811D1FFE742F278
:106280001810C2F20000162180F84712012180F890
:10629000441240F20000C2F200002121017010E01F
:1062A00042F21810C2F2000090F8430240B9FFE732
:1062B00042F21810C2F200000A2180F84712FFE7EC
:1062C000FFE722E042F21810C2F2000090F8440208
:1062D000012808D1FFE742F21810C2F200000A219B
:1062E00080F84712FFE710E042F21810C2F20000F7
:1062F0000B2180F8471208E042F21810C2F20000A9
:106300000C2180F8471200E0FFE7FFE740F2D800D9
:10631000C2F200000121017040F29400C2F20000BC
:106320000171FFE7FFE7FFE7FFE7FFE7FFE741F660
:106330000210C2F20000007802282FD1FFE742F2DB
:106340001810C2F2000090F84702022812D0FFE7AE
:1063500042F21810C2F2000090F84702032809D058
:10636000FFE742F21810C2F2000090F847020E2830
:1063700007D1FFE740F20000C2F2000006210170E1
:10638000FFE740F29400C2F200000221017140F2E6
:10639000D800C2F20000012101706BE141F6FD005E
:1063A000C2F20000007802282FD1FFE742F2181055
:1063B000C2F2000090F84702022812D0FFE742F232
:1063C0001810C2F2000090F84702032809D0FFE736
:1063D00042F21810C2F2000090F847020E2807D1CE
:1063E000FFE740F20000C2F200000E210170FFE75B
:1063F00040F29400C2F200000221017140F2D80084
:10640000C2F200000121017033E141F6FE00C2F248
:106410000000007802282FD1FFE742F21810C2F2E4
:10642000000090F84702022812D0FFE742F218104D
:10643000C2F2000090F84702032809D0FFE742F2B9
:106440001810C2F2000090F847020E2807D1FFE7AB
:1064500040F20000C2F200000F210170FFE740F29D
:106460009400C2F200000221017140F2D800C2F291
:10647000000001210170FBE041F6FF00C2F20000C4
:10648000007802282FD1FFE742F21810C2F2000074
:1064900090F84702022812D0FFE742F21810C2F229
:1064A000000090F84702032809D0FFE742F21810D5
:1064B000C2F2000090F847020E2807D1FFE740F231
:1064C0000000C2F2000010210170FFE740F29400CA
:1064D000C2F200000221017140F2D800C2F20000B5
:1064E00001210170C3E041F60010C2F20000007803
:1064F000022859D1FFE742F21810C2F2000090F8CA
:106500004702022812D0FFE742F21810C2F2000040
:1065100090F84702032809D0FFE742F21810C2F2B0
:10652000000090F847020E2807D1FFE740F2000074
:10653000C2F200000321017035E042F21810C2F2ED
:10654000000090F84702112811D1FFE742F218101D
:10655000C2F2000090F83F02012807D1FFE740F2A5
:106560000000C2F2000018210170FFE71AE042F2B9
:106570001810C2F2000090F84702142811D1FFE76A
:1065800042F21810C2F2000090F84202012807D12E
:10659000FFE740F20000C2F2000020210170FFE797
:1065A000FFE7FFE7FFE761E041F60310C2F20000FA
:1065B0000078022859D1FFE742F21810C2F2000019
:1065C00090F84702022812D0FFE742F21810C2F2F8
:1065D000000090F84702032809D0FFE742F21810A4
:1065E000C2F2000090F847020E2807D1FFE740F200
:1065F0000000C2F200000121017035E042F21810E3
:10660000C2F2000090F84702112811D1FFE742F2D0
:106610001810C2F2000090F83F02012807D1FFE7EE
:1066200040F20000C2F2000017210170FFE71AE0FB
:1066300042F21810C2F2000090F84702142811D15B
:10664000FFE742F21810C2F2000090F8420201285F
:1066500007D1FFE740F20000C2F200001F210170E5
:10666000FFE7FFE7FFE7FFE7FFE7FFE7FFE7FFE7FA
:10667000FFE7FFE7FFE7B0BD80B582B0ADF80600E9
:10668000ADF80410ADF80220ADF800302A2000F07B
:106690005FFEBDF8060000F03BFEBDF8020000F012
:1066A00037FE2B2000F054FEBDF8040000F030FE51
:1066B000BDF8000000F02CFE2C2000F049FE02B0D6
:1066C00080BD000080B582B00020ADF80600BDF8A6
:1066D00006000090002000214FF4A072F02300F08B
:1066E000B1F802B080BD000080B58CB0DDF838C0D4
:1066F000ADF82E00ADF82C10ADF82A20ADF82830FA
:10670000ADF826C0002008900790BDF82A00BDF81B
:106710002E10401A0690BDF82800BDF82C10401A23
:106720000590BDF82E000190BDF82C000090069851
:10673000012803DBFFE7012003900DE0069818B95C
:10674000FFE70020039006E04FF0FF30039006982B
:1067500040420690FFE7FFE70598012803DBFFE7CB
:10676000012002900DE0059818B9FFE70020029083
:1067700006E04FF0FF300290059840420590FFE799
:10678000FFE706980599884203DDFFE70698049025
:1067900002E005980490FFE70020ADF82400FFE731
:1067A000BDF8240004990131884233DAFFE7BDF8CF
:1067B0000400BDF80010BDF8262000F02DF8069862
:1067C0000899084408900598079908440790089884
:1067D0000499884209DDFFE704980899081A08908F
:1067E0000398019908440190FFE7079804998842AB
:1067F00009DDFFE704980799081A079002980099A5
:1068000008440090FFE7FFE7BDF824000130ADF831
:106810002400C5E70CB080BD80B582B0ADF806009D
:10682000ADF80410ADF80220BDF80600BDF8041064
:1068300002460B46FFF720FFBDF8020000F068FD9E
:1068400002B080BD80B586B0DDF820C0ADF816007E
:10685000ADF81410ADF81220ADF81030ADF80EC040
:106860000120ADF80A00BDF80E00ADF80C00BDF82F
:106870001200BDF81610401ABDF81010BDF8142013
:10688000891A48430190BDF81600BDF81410BDF8F0
:106890001220013ABDF81030013B92B29BB2FFF7D3
:1068A000EBFE40F61440C4F201004FF48051016049
:1068B000FFE7BDF80A00C0B1FFE701984FF6FF718E
:1068C000884207D3FFE701984FF6FE71401A019006
:1068D000009105E00020ADF80A0001980090FFE764
:1068E000009903A807F01EFBE3E740F61040C4F24E
:1068F00001004FF48051016006B080BD10B540F634
:106900001400C4F201004FF400640460C82008F0D1
:10691000DDFE40F61000C4F201000460782008F0AB
:10692000D5FE112000F014FD782008F0CFFE3620AF
:1069300000F00EFD362000F00BFD702000F0FEFC94
:106940003A2000F005FD052000F0F8FCB22000F030
:10695000FFFC0C2000F0F2FC0C2000F0EFFC00200B
:1069600000F0ECFC332000F0E9FC332000F0E6FC02
:10697000B72000F0EDFC352000F0E0FCBB2000F07B
:10698000E7FC192000F0DAFCC02000F0E1FC2C202C
:1069900000F0D4FCC22000F0DBFC012000F0CEFCB3
:1069A000C32000F0D5FC0D2000F0C8FCC42000F08E
:1069B000CFFC202000F0C2FCC62000F0C9FC0F2054
:1069C00000F0BCFCD02000F0C3FCA42000F0B6FC1A
:1069D000A12000F0B3FCE02000F0BAFCD02000F0D1
:1069E000ADFC002000F0AAFC052000F0A7FC0F2061
:1069F00000F0A4FC102000F0A1FC282000F09EFC78
:106A0000342000F09BFC502000F098FC442000F063
:106A100095FC3A2000F092FC0B2000F08FFC062041
:106A200000F08CFC112000F089FC202000F086FC96
:106A3000E12000F08DFCD02000F080FC002000F070
:106A40007DFC052000F07AFC0A2000F077FC0B208A
:106A500000F074FC162000F071FC322000F06EFC97
:106A6000402000F06BFC4A2000F068FC2B2000F076
:106A700065FC1B2000F062FC1C2000F05FFC222063
:106A800000F05CFC1F2000F059FC212000F060FCAD
:106A9000292000F05DFC10BD10B586B0DDF828C0DF
:106AA000DDF824E0089CADF81600ADF814108DF860
:106AB0001320ADF81030ADF80E408DF80DE08DF8D4
:106AC0000CC000248DF80840BDF81600ADF8020097
:106AD0009DF80D0040088DF80A009DF80A00C108D5
:106AE000012202EBD0024007002818BF11469DF892
:106AF0000D004843ADF804009DF8130020388DF8D0
:106B00001300BDF81600BDF814109DF80A200244C9
:106B1000013A9DF80D300B44013B92B29BB2FFF756
:106B2000ABFDADF80640FFE7BDF80600BDF8041068
:106B3000884280F20281FFE79DF80D000C2810D1F9
:106B4000FFE79DF8130000EB40004FF68851C0F6B8
:106B5000000101EB8000BDF80610405C8DF80B00D1
:106B60007EE09DF80D0010280ED1FFE79DF8130080
:106B700046F27C31C0F6010101EB0010BDF80610B1
:106B8000405C8DF80B006AE09DF80D00182810D1CC
:106B9000FFE79DF8130000EB400046F66C11C0F6CD
:106BA000010101EB0010BDF80610405C8DF80B00F0
:106BB00054E09DF80D0020280ED1FFE79DF813004A
:106BC00047F63C31C0F6010101EB8010BDF806101C
:106BD000405C8DF80B0040E09DF80D00382810D186
:106BE000FFE79DF81300C0EBC00049F2FC21C0F69E
:106BF000010101EB4010BDF80610405C8DF80B0060
:106C00002AE09DF80D0040280ED1FFE79DF8130003
:106C10004AF6BC11C0F6010101EB0020BDF80610D8
:106C2000405C8DF80B0016E09DF80D00782810D11F
:106C3000FFE79DF81300C0EB001040F2FC11C0F616
:106C4000010101EB8010BDF80610405C8DF80B00CF
:106C500000E073E0FFE7FFE7FFE7FFE7FFE7FFE79D
:106C600000208DF80900FFE79DF8090007285CDC8B
:106C7000FFE79DF80C0030BBFFE79DF80B009DF887
:106C80000910C840C00728B1FFE7BDF8100000F0A8
:106C90003FFB04E0BDF80E0000F03AFBFFE79DF873
:106CA000080001308DF808009DF808009DF80A10D2
:106CB000B0FBF1F202FB110020B9FFE700208DF8D4
:106CC000080033E02AE09DF80B009DF80910C84049
:106CD000C00748B1FFE7BDF81600BDF81410BDF8B5
:106CE0001020FFF799FDFFE7BDF816000130ADF861
:106CF0001600BDF81600BDF80210401A9DF80A10E3
:106D000088420AD1FFE7BDF80200ADF81600BDF8D1
:106D100014000130ADF8140008E0FFE7FFE79DF82C
:106D2000090001308DF809009EE7FFE7FFE7BDF895
:106D300006000130ADF80600F6E6FFE706B010BD2C
:106D400010B588B0DDF830C0DDF82CE00A9CADF855
:106D50001E00ADF81C10ADF81A208DF81930ADF8F2
:106D60001640ADF814E08DF813C000208DF8100027
:106D70009DF8131049088DF80F108DF81200FFE7E9
:106D80009DF812009DF8191088426DDAFFE7BDF8F2
:106D90001A409DF819009DF81210C9430844C0B26A
:106DA00004F006FCB4FBF0F049F69A11C1F6991113
:106DB000A0FB011202EB8201A0EB41008DF8110053
:106DC0009DF8100058BBFFE79DF812009DF81910C0
:106DD0000139884223DAFFE79DF81100D0B9FFE7B7
:106DE000BDF81E009DF812109DF80F2011FB020C3B
:106DF000BDF81C10BDF81630BDF814209DF81340E6
:106E000000200290019400921FFA8CF02022FFF7DC
:106E100043FE23E001208DF81000FFE7FFE7BDF8F7
:106E20001E009DF812109DF80F2011FB020CBDF8FA
:106E30001C109DF8112002F1300EBDF81630BDF87F
:106E400014409DF8130000220292019000941FFA52
:106E50008CF05FFA8EF2FFF71FFEFFE79DF812003D
:106E600001308DF812008BE708B010BD10B588B066
:106E7000DDF830C0DDF82CE00A9CADF81E00ADF85E
:106E80001C100692ADF81630ADF814408DF813E0E2
:106E90008DF812C0FFE70698007808B3FFE7BDF849
:106EA0001E00BDF81C10069A1278BDF81630BDF809
:106EB00014C09DF813E09DF812400294CDF804E050
:106EC000CDF800C0FFF7E8FD9DF81300BDF81E10D7
:106ED00001EB5000ADF81E00069801300690DAE78D
:106EE00008B010BDB0B586B02022ADF8162028221B
:106EF000ADF81420ED22ADF81220B922ADF8102023
:106F00000390029103980021C4F2FA31FDF746FC88
:106F100028B9FFE70020C4F2FA300390FFE7039896
:106F20000021C4F2C821FDF755FC28B9FFE7002075
:106F3000C4F2C8200390FFE702980021C4F2C821E0
:106F4000FDF72CFC28B9FFE70020C4F2C82002900E
:106F5000FFE702980021FDF73DFC18B9FFE700208C
:106F60000290FFE7BDF8140000F11D03BDF810000A
:106F7000411E039800910024C4F2C8240022C4F2E8
:106F8000FA32214608F0BCFA40F2DC01C2F20001FC
:106F90000880BDF8140000F11D03BDF81000411E6B
:106FA0000298009100250021224608F0A9FA40F23B
:106FB000DA01C2F2000108800195FFE70198CB28B1
:106FC00061DCFFE7BDF816000199084442F218128F
:106FD000C2F20002141D621892F8541092F8553053
:106FE0000025009580B20246FFF77EFBBDF8160033
:106FF00001990844621892F8211192F82231009503
:1070000080B20246FFF770FB0198CA2825DCFFE733
:10701000BDF816000199084442F21814C2F20004A7
:10702000621892F8591092F85A304FF2604200926A
:1070300080B20246FFF758FBBDF8160001990844DC
:10704000621892F8261192F8273140F61D3200920C
:1070500080B20246FFF748FBFFE7019842F21811A1
:10706000C2F200010431084490F8552080F8542001
:107070000198084490F8221180F82111FFE7019847
:10708000013001909AE740F2DC00C2F20000008873
:1070900042F21811C2F2000181F8240140F2DA0034
:1070A000C2F20000008881F8F101BDF81600BDF8B9
:1070B0001410BDF81220BDF8103000F003F806B02F
:1070C000B0BD0000B0B58CB0ADF82E00ADF82C10FE
:1070D000ADF82A20ADF8283005208DF8270048F2B9
:1070E0000F40ADF82400002407940694BDF82A0050
:1070F000BDF82E10401A9DF8271090FBF1F0FDF717
:1071000085FB0790BDF82800BDF82C10401A9DF8AB
:10711000271090FBF1F0FDF779FB06908DF82340E6
:10712000FFE79DF82300052875DCFFE79DF82300A5
:1071300088BBFFE7BDF82E00BDF82C10BDF82A2053
:10714000BDF8243000930B46FFF7CEFABDF82E00B1
:10715000BDF82C10BDF82830BDF82420009202465E
:10716000FFF7C2FABDF82E00BDF82810BDF82A209E
:10717000BDF8243000930B46FFF7B6FABDF82A009D
:10718000BDF82C10BDF82830BDF82420009202462E
:10719000FFF7AAFA38E0BDF82E00FDF740FB0446E1
:1071A0009DF82300FDF73BFB0799FDF779FA21468F
:1071B000FDF71EFAFDF738FBBDF82C10BDF828309E
:1071C000BDF8242000920246FFF78EFABDF82E404B
:1071D000BDF82C00FDF723FB05469DF82300FDF7C5
:1071E0001EFB0699FDF75CFA2946FDF701FAFDF74B
:1071F0001BFB0146BDF82A20BDF824000090204664
:107200000B46FFF771FAFFE7FFE79DF82300013017
:107210008DF8230085E7BDF82E0000F59F70BDF8BE
:107220002C100231BDF82430002402940C25019565
:10723000009480B289B24CF2DC32C0F60102FFF752
:1072400015FEBDF82E0000F59B70BDF82C10163110
:10725000BDF8243002940195009480B289B24CF2BA
:10726000DE32C0F60102FFF701FEBDF82E0000F588
:107270009B70BDF82C103E31BDF82430029401956E
:10728000009480B289B24CF2F232C0F60102FFF7EC
:10729000EDFDBDF82E0000F59B70BDF82C10663199
:1072A000BDF8243002940195009480B289B24CF26A
:1072B000E732C0F60102FFF7D9FDBDF82E0000F558
:1072C0009F70BDF82C108E31BDF8243002940195CA
:1072D000009480B289B24CF2EA32C0F60102FFF7A4
:1072E000C5FDBDF82E0000F5A370BDF82C10B63119
:1072F000BDF8243002940195009480B289B24CF21A
:10730000E832C0F60102FFF7B1FD0CB0B0BD0000DD
:1073100080B582B0ADF8060040F61000C4F201005E
:107320004FF4807101609DF8070000F027F89DF888
:10733000060000F023F802B080BD000080B582B0E6
:107340008DF807009DF8070000F018F802B080BD26
:1073500010B582B08DF8070040F61400C4F20100A9
:107360004FF4807404609DF8070000F007F840F6C1
:107370001000C4F20100046002B010BD10B582B06C
:107380008DF8070040F61440C4F201004FF4805419
:1073900004609DF8070006F0A5FF40F61040C4F217
:1073A0000100046002B010BD87B0059004910598FB
:1073B00000680390FFE79DF80F004007002803D501
:1073C000FFE70020069033E00498039901F00041A4
:1073D000084340F080600290FFE705990298019011
:1073E000039B019AFFE751E8000F984209D1FFE79C
:1073F000FFE741E8002303B106E0BFF35F8F0121FF
:1074000004E0BFF32F8FFFE70021FFE7CA0712B99F
:10741000FFE70390FFE701F001008DF803009DF8FE
:107420000300C0070028C6D0FFE702980690FFE7D8
:10743000069807B070470000FFE7FEE770470000BE
:1074400086B00590049100200390059800F0070095
:1074500002900298C0F10700052802D3FFE704203C
:1074600003E00298C0F10700FFE7019002980430A2
:10747000062802D8FFE7002002E002980338FFE761
:10748000009004980199012202FA01F101390840A3
:1074900000998840039B02FA01F101391940084321
:1074A00006B0704786B0059004910392059800F0ED
:1074B000070002900298C0F10700052802D3FFE7F9
:1074C000042003E00298C0F10700FFE70190029852
:1074D0000430062802D8FFE7002002E002980338B3
:1074E000FFE7009004980199012202FA01F10139A5
:1074F000084000998840039B02FA01F101391940C4
:10750000084306B07047000081B000900098002149
:10751000C16101B07047000084B0DDF810C0039075
:1075200002910192009302980399086001980399CF
:1075300048600098039988600398002101620398CD
:10754000C16103984161039801610398C160049887
:107550000399486204980399886204B07047000058
:1075600070B584B003900291019202980199FDF7E1
:1075700091F80399486103984169039CE069FDF71C
:1075800037F8E0610398C0690399496AFDF706F985
:1075900028B9FFE70398406A0399C861FFE7039899
:1075A000C0690021FDF716F920B9FFE70398002113
:1075B000C161FFE70398406903990969FDF76AF81B
:1075C0000399886103980468456903994868C96903
:1075D000FDF766F80399496A00F0EEFD064620467D
:1075E0002946FDF75DF83146FDF702F80446039998
:1075F00088688969FDF754F82146FCF7F9FF03997B
:10760000086203984069039908610398006A039926
:10761000896AFDF7B5F828B9FFE70398806A0399EE
:107620000862FFE70398006A0399896A81F00041C4
:10763000FDF7C2F820B9FFE7039800210162FFE7D8
:107640000398006A04B070BD7047000080B582B036
:1076500041F67460C2F2000001900198013007F019
:1076600029FE019981F80101019890F8010116287D
:107670006AD1FFE701984078D12806D1FFE7019849
:10768000807DF02801D1FFE700E058E00199481C17
:1076900001F5017101F0B0FA019800F5017001F0F7
:1076A00063FB009001F082FB0198807C9DF8031041
:1076B000884243D1FFE70198C07C9DF802108842C0
:1076C0003CD1FFE70198007D9DF80110884235D13B
:1076D000FFE70198407D9DF8001088422ED1FFE71A
:1076E00001988078012810D1FFE70198C07801281F
:1076F0000BD1FFE70198407938B9FFE740F28A00E3
:10770000C2F200000021017017E001988078022881
:1077100010D1FFE70198C07801280BD1FFE701984D
:10772000407938B9FFE740F28A00C2F20000012137
:10773000017001E000BFFFE7FFE7FFE7FFE7019807
:10774000002180F80111FFE702B080BD7047000002
:1077500080B540F20300C2F20000017801390170E7
:10776000007898BBFFE740F20300C2F2000014214A
:10777000017042F21810C2F2000090F8FE010128D8
:1077800023D1FFE700F072FF42F21810C2F20000AE
:1077900090F8FA01C0B1FFE740F20400C2F2000025
:1077A000017801390170007868B9FFE740F2040000
:1077B000C2F200002821017040F29400C2F20000E1
:1077C00002210171FFE7FFE7FFE7FFE740F2050055
:1077D000C2F20000017801390170007848B9FFE772
:1077E00040F20500C2F200001421017003F0A0FD78
:1077F000FFE740F20600C2F2000001780139017093
:107800000078C8B9FFE7002006F036FF01F0D6FE89
:1078100004F07EFA42F21810C2F20000806BFDF70D
:107820001CF806F029FF06F079FF40F20600C2F2CC
:1078300000000A210170FFE706F0C4F908F0B8F96A
:1078400042F27040C2F200000068804700F0BEFAC9
:1078500080BD000041F21C00C4F20200016841F04A
:107860008051016047F25001C4F200010A7842F0F1
:1078700004020A70016821F08051016041F20000A9
:10788000C4F20200016841F001010160FFE741F22A
:107890000000C4F202000068C0F34000012801D0DB
:1078A000FFE7F4E741F20400C4F20200016821F0AE
:1078B00003010160FFE741F20400C4F20200006826
:1078C0008008800708B1FFE7F5E741F20000C4F245
:1078D000020001684FF6FF72CFF6F26211400160BC
:1078E00041F20400C4F202000021016041F22C00C8
:1078F000C4F2020041F61071016041F23000C4F29E
:1079000002004FF48011016041F20800C4F202004D
:107910004FF41F0101604EF60850CEF200004FF008
:10792000006101607047000080B588B0DDF828C0B4
:10793000ADF81E00ADF81C10ADF81A20ADF81830E7
:107940008DF817C0002004900390BDF81A00BDF810
:1079500018104843400004909DF817000138302863
:1079600000F25481DFE810F03100340038003E00AE
:1079700044004A00500056005C00620068006E003F
:1079800074007A00800086008C00920098009E00AF
:10799000A400AA00B000B600BC00C200C800CE001F
:1079A000D400DA00E000E600EC00F200F800FE008F
:1079B00004010A01100116011C01220128012E01F7
:1079C00034013A01400146014C01002003901DE1C1
:1079D0004FF41630039019E146F60070C0F204002F
:1079E000039013E148F20060C0F2060003900DE13D
:1079F00049F60050C0F20800039007E14BF2004046
:107A0000C0F20A00039001E14CF60030C0F20C0015
:107A10000390FBE04EF20020C0F20E000390F5E070
:107A20004FF60010C0F210000390EFE041F20000AA
:107A3000C0F213000390E9E042F20070C0F21500BA
:107A40000390E3E043F60060C0F217000390DDE02E
:107A500045F20050C0F219000390D7E046F600400E
:107A6000C0F21B000390D1E048F20030C0F21D00CC
:107A70000390CBE049F60020C0F21F000390C5E060
:107A80004BF20010C0F221000390BFE04CF6000062
:107A9000C0F223000390B9E04DF60070C0F225005B
:107AA0000390B3E04FF20060C0F227000390ADE016
:107AB00040F60050C0F22A000390A7E042F20040D6
:107AC000C0F22C000390A1E043F60030C0F22E007B
:107AD00003909BE045F20020C0F23000039095E057
:107AE00046F60010C0F2320003908FE047F2CE60FD
:107AF000C0F23200039089E048F29C40C0F23200AC
:107B0000039083E048F22470C0F2320003907DE0DD
:107B100048F6AC10C0F23200039077E043F6CC3068
:107B2000C0F23300039071E04BF6F030C0F2330046
:107B300003906BE04CF6FC50C0F23300039065E01C
:107B40004EF20800C0F2330003905FE046F22C00D2
:107B5000C0F23400039059E046F64C50C0F23400B5
:107B6000039053E047F66C20C0F2340003904DE0E0
:107B700047F68A50C0F23400039047E048F2A8006C
:107B8000C0F23400039041E049F60800C0F234002E
:107B900003903BE04AF66870C0F23400039035E091
:107BA00042F68C70C0F2350003902FE043F2E440BF
:107BB000C0F23500039029E043F2B670C0F2350000
:107BC000039023E043F68820C0F2350003901DE0C7
:107BD00043F6E070C0F23500039017E044F2243021
:107BE000C0F23500039011E044F26860C0F2350045
:107BF00003900BE044F27070C0F23500039005E092
:107C000044F27420C0F236000390FFE7BDF81A007A
:107C1000BDF81E100844ADF81A00BDF81800BDF8F4
:107C20001C100844ADF81800BDF81E00BDF81C106B
:107C3000BDF81A20013ABDF81830013B92B29BB250
:107C4000FEF71AFDFFE7049800286DD0FFE70498BF
:107C50000021B1EB103F31D1FFE70398049906F002
:107C600099FB00200190FFE70198049988421ED2F9
:107C7000FFE7019840F2DE01C2F20001085CADF8B6
:107C80000A00BDF80A000002ADF80A00BDF80A00BB
:107C9000019A114449780844ADF80A00BDF80A0079
:107CA000FFF736FBFFE7019802300190DCE704980C
:107CB0000399084403900020049034E003984FF4A3
:107CC000805106F067FB00200090FFE7009800213C
:107CD000B1EB103F1ED1FFE7009840F2DE01C2F287
:107CE0000001085CADF80A00BDF80A000002ADF81A
:107CF0000A00BDF80A00009A114449780844ADF81A
:107D00000A00BDF80A00FFF703FBFFE70098023006
:107D10000090DBE7039800F5805003900498A0F5ED
:107D200080500490FFE78EE708B080BD10B582B0A8
:107D300043F60C00C4F2010000684009C007A8B176
:107D4000FFE7202007F07EF978B1FFE707F032F96E
:107D5000C1B242F20044C2F20004204604F0A6F987
:107D60000420207301206073FFE7FFE743F60C0057
:107D7000C4F2010000688009C00720B3FFE740207B
:107D800007F060F9F0B1FFE707F042F942F2004076
:107D9000C2F2000010300DF1070104F063F948B998
:107DA000FFE79DF8071043F60000C4F2010007F05A
:107DB0000DF906E042F20040C2F2000000214177D6
:107DC000FFE7FFE7FFE702B010BD000042F200400E
:107DD000C2F20000407B012817D1FFE742F20040C9
:107DE000C2F20000007B40B1FFE742F20040C2F265
:107DF0000000017B0139017306E042F20040C2F24B
:107E0000000002214173FFE7FFE742F20040C2F2A7
:107E10000000007F40B1FFE742F20040C2F20000E4
:107E2000017F01390177FFE77047000085B00490BA
:107E30000391039820F080600290049802990191C8
:107E40000199BFF35F8FFFE750E8002F40E8001370
:107E5000002BF9D1FFE7009205B07047FFE7FEE77E
:107E600010B586B041F67460C2F2000005900120A2
:107E7000ADF81200ADF810000220ADF80E000A2097
:107E8000ADF80C000020ADF80A00ADF80800ADF820
:107E90000600ADF80400ADF802000598D12180F885
:107EA00002119DF81200059981F803019DF8100058
:107EB000059981F804019DF80F00059981F80501E5
:107EC000BDF80E00059981F806019DF80D00059991
:107ED00081F80701BDF80C00059981F808019DF8AB
:107EE0000B00059981F80901BDF80A00059981F890
:107EF0000A019DF80900059981F80B01BDF80800F9
:107F0000059981F80C019DF80700059981F80D018C
:107F1000BDF80600059981F80E019DF80500059948
:107F200081F80F01BDF80400059981F810019DF852
:107F30000300059981F81101BDF80200059981F847
:107F40001201059901F5817001F5017100F054FEEF
:107F5000059800F5017000F007FF41F2E004C2F25D
:107F60000004206000F022FFE078059981F81301F9
:107F70006088059981F814012068000A059981F844
:107F800015012068059981F816010598F02180F8FF
:107F90001711059800F5817007F014FA06B010BDAE
:107FA00081B08DF803009DF9030000280FD4FFE78E
:107FB0009DF9030000F01F01012202FA01F14009BE
:107FC0004EF20012CEF2000242F82010FFE701B09C
:107FD000704700004EF60C50CEF200000068C0F36F
:107FE000022070474EF60C50CEF200000068C0F33D
:107FF0000220704782B08DF8070000919DF90700BC
:1080000000280AD4FFE7009800019DF907104EF2FE
:108010000042CEF2000288540BE0009800019DF867
:10802000071001F00F014EF61452CEF200028854F0
:10803000FFE702B07047000082B08DF807000091A2
:108040009DF9070000280AD4FFE7009800019DF978
:1080500007104EF20042CEF2000288540BE0009866
:1080600000019DF8071001F00F014EF61452CEF2F8
:1080700000028854FFE702B07047000083B002900E
:10808000029800F0070000904EF60C50CEF200006F
:108090000168019101994FF6FF0211400191019988
:1080A000009A41EA02210022C0F2FA5211430191E2
:1080B0000199016003B07047BFF34F8F4EF60C502B
:1080C000CEF20000016801F4E0610422C0F2FA522D
:1080D00011430160BFF34F8FFFE700BFFDE70000D2
:1080E000B0B54EF60451CEF200014FF00072EFF33E
:1080F000108072B60A6080F3108840F20800C2F265
:10810000000000684DF68361C4F21B31A0FB011230
:1081100044F6D351C1F26201A0FB0101900C40F280
:108120009002C2F200021060880940F28C01C2F293
:1081300000010860EFF3108472B601F091FE41F681
:10814000F005C2F20005C5E90001BFF34F8FBFF390
:108150006F8F01F085FED5E90012401A41F6F80153
:10816000C2F20001086042F28030C2F20000002139
:1081700084F31088C0E9001142F28830C2F2000096
:10818000C0E9001142F29030C2F20000C0E90011D3
:1081900042F26830C2F20000C0E9001142F27830C9
:1081A000C2F20000C0E9001142F27030C2F20000D9
:1081B000C0E90011B0BD000080B582B0019000910F
:1081C00001980099FCF7DCFA18B9FFE700980190D4
:1081D000FFE70198009981F00041FCF7EDFA28B91A
:1081E000FFE7009880F000400190FFE7019802B09F
:1081F00080BD000082B042F20041C4F20101019151
:1082000000900098007801994A6800F0010022F47B
:10821000807242EA002048600098407801998A689C
:1082200000F0010022F0020242EA4000886000985B
:10823000807801998A6800F0010022F4006242EA25
:10824000C02088600098C07801380199CA6A00F09F
:108250000F0022F4700242EA0050C86202B0704778
:1082600081B0009000980021017000984170009842
:10827000817000980121C17001B0704781B042F255
:108280000040C4F2010000900098816841F00801AC
:10829000816001B07047000082B042F20040C4F239
:1082A0000100009000988068C008C00720B1FFE777
:1082B00001208DF8070003E000208DF80700FFE79C
:1082C0009DF8070002B0704781B042F20040C4F24E
:1082D000010000900098816841F00401816001B0C4
:1082E0007047000082B042F20040C4F201000090EA
:1082F000009880688008C00720B1FFE701208DF852
:10830000070003E000208DF80700FFE79DF8070055
:1083100002B0704782B042F20040C4F20100019006
:1083200001208DF803009DF8030001998A6860F32D
:1083300000028A6002B0704782B042F20040C4F28C
:108340000100019002208DF8030000208DF802004A
:10835000019800689DF80310084204D1FFE700204F
:108360008DF8020003E001208DF80200FFE79DF880
:10837000020002B07047000083B042F20042C4F233
:10838000010202928DF8070001208DF806008DF899
:1083900005109DF8070009281CDCFFE7029800691A
:1083A00000909DF8070000EB4000072101FA00F063
:1083B000009921EA000000909DF805009DF8071043
:1083C00001EB410188400099084300900098029910
:1083D00008611DE00298C06800909DF8070000EB5E
:1083E00040001E38072101FA00F0009921EA000040
:1083F00000909DF805009DF8071001EB41011E3922
:10840000884000990843009000980299C860FFE7EF
:108410009DF806000D281EDBFFE70298C06A009059
:108420009DF8060000EB800041381F2101FA00F0A2
:10843000009921EA000000909DF807009DF80610C1
:1084400001EB810141398840009908430090009870
:108450000299C86241E09DF8060007281EDBFFE78D
:108460000298006B00909DF8060000EB8000233816
:108470001F2101FA00F0009921EA000000909DF808
:1084800007009DF8061001EB81012339884000990F
:10849000084300900098029908631DE00298406B21
:1084A00000909DF8060000EB800005381F2101FABE
:1084B00000F0009921EA000000909DF807009DF867
:1084C000061001EB810105398840009908430090AE
:1084D000009802994863FFE7FFE703B07047000088
:1084E00081B042F20040C4F2010000900098C06CDC
:1084F00080B201B07047000082B042F20040C4F286
:108500000100019007208DF8030001208DF8020082
:108510009DF80300082811DBFFE70198816841F00E
:10852000007181609DF8030000F0070001998A68DE
:1085300022F4602242EA4040886010E0019881689D
:1085400021F0007181609DF8030000F0070001999F
:108550008A6822F4602242EA40408860FFE79DF882
:10856000020001998A6800F0010022F4801242EAB8
:108570000050886002B0704782B042F20040C4F2FE
:108580000100019000208DF803009DF8030001997F
:108590004A6800F0010022F4006242EAC02048600C
:1085A00002B0704782B042F20040C4F20100019074
:1085B00001208DF803009DF8030001998A6800F0FE
:1085C000010022F4800242EA8050886002B07047C5
:1085D00085B041F6C052C2F20002183204920390F4
:1085E0000291049ADDF80CC002980190DCF80000BA
:1085F000019BFFE752E8001F81420BD1FFE7BFF369
:108600005F8FFFE742E8003000B106E0BFF35F8F05
:10861000012204E0BFF32F8FFFE70022FFE7D0071E
:1086200018B9FFE7CCF80010FFE702F001008DF861
:1086300003009DF8030000F0010005B07047000042
:1086400083B00290029801210191DDF804C0FFE798
:1086500050E8002F02EB0C0340E800310029F7D16D
:10866000FFE70092009803B07047000080B542F227
:108670001810C2F2000090F8FE01012803D1FFE7B4
:10868000FCF79EF906E040F29400C2F20000C068D8
:108690008047FFE780BD000080B541F20000C4F2D2
:1086A00001004FF4004101F017FC80BD80B541F29C
:1086B0000000C4F201004FF4004101F017FC80BD3E
:1086C00080B542F21810C2F2000040690021C4F2E5
:1086D000E131FCF77FF860B9FFE742F21810C2F20F
:1086E000000040690021C4F24831FCF765F848B940
:1086F000FFE742F21810C2F200000021C4F2BE31BE
:108700004161FFE742F21810C2F2000090F8FC014C
:1087100088B1FFE742F21810C2F2000090F8FC01A5
:10872000012808D0FFE742F21810C2F20000002131
:1087300080F8FC11FFE742F21810C2F2000090F836
:10874000FE01012810D0FFE742F21810C2F200002B
:1087500090F8FE0140B1FFE742F21810C2F20000AB
:10876000012180F8FE11FFE742F21810C2F200006A
:1087700090F8000288B1FFE742F21810C2F2000040
:1087800090F80002012808D0FFE742F21810C2F268
:108790000000012180F80012FFE742F21810C2F237
:1087A0000000C06B0021C4F2C621FCF713F850B9D9
:1087B000FFE742F21810C2F20000C06B0021FBF785
:1087C000FBFF38B9FFE742F21810C2F200000021A7
:1087D000C163FFE742F21810C2F2000090F80202F3
:1087E00088B1FFE742F21810C2F2000090F80202CE
:1087F000012808D0FFE742F21810C2F20000002161
:1088000080F80212FFE742F21810C2F2000090F85E
:10881000030280B1FFE742F21810C2F2000090F8A4
:10882000030240B1FFE742F21810C2F2000000213B
:1088300080F80312FFE742F21810C2F20000406A0B
:108840000021C4F2C821FBF7C5FF60B9FFE742F27F
:108850001810C2F20000406A0021CCF2C821FBF7D8
:10886000ABFF38B9FFE742F21810C2F20000002156
:108870004162FFE742F21810C2F20000D0F808028D
:108880000021C4F2E131FBF7A5FF68B9FFE742F22E
:108890001810C2F20000D0F808020021C4F24831DA
:1088A000FBF78AFF50B9FFE742F21810C2F200004E
:1088B0000021C4F2A031C0F80812FFE742F21810FC
:1088C000C2F20000D0F810020021C4F2E131FBF73F
:1088D00081FF68B9FFE742F21810C2F20000D0F839
:1088E00010020021C4F24831FBF766FF50B9FFE7E0
:1088F00042F21810C2F200000021C4F2AF31C0F8F9
:108900001012FFE742F21810C2F20000D0F818026D
:108910000021C4F2E131FBF75DFF68B9FFE742F2E5
:108920001810C2F20000D0F818020021C4F2483139
:10893000FBF742FF50B9FFE742F21810C2F2000005
:108940000021C4F2BE31C0F81812FFE742F218103D
:10895000C2F2000090F83C0288B1FFE742F2181022
:10896000C2F2000090F83C02012808D0FFE742F272
:108970001810C2F20000002180F83C12FFE780BD11
:1089800080B542F21810C2F2000090F8F4010128FC
:1089900079D1FFE742F21810C2F20000406848F2B5
:1089A0000001C4F20941FBF715FFA8B9FFE742F245
:1089B0001810C2F2000040680021C4F27021FBF7D9
:1089C000EDFE48B9FFE742F21810C2F2000090F83D
:1089D000F70102284CD1FFE742F21810C2F2000062
:1089E000B0F84C100131A0F84C10B0F84C000A2837
:1089F0003DDBFFE742F21810C2F2000090F8F701E9
:108A0000022808D1FFE742F21810C2F20000042148
:108A100080F8FA112AE042F21810C2F20000406811
:108A200048F20001C4F20941FBF7AAFE40B9FFE792
:108A300042F21810C2F20000032180F8FA1114E08B
:108A400042F21810C2F2000040680021C4F2702106
:108A5000FBF7B2FE40B9FFE742F21810C2F2000085
:108A6000022180F8FA11FFE7FFE7FFE7FFE709E0DF
:108A700042F21810C2F200000021A0F84C1080F859
:108A8000FA11FFE712E042F21810C2F2000090F86B
:108A9000F40150B9FFE742F21810C2F200000021C1
:108AA000A0F84C1080F8FA11FFE7FFE780BD000046
:108AB00080B540F60040C4F201004FF4807101F02F
:108AC000D5FA01281FD1FFE741F6E500C2F2000008
:108AD00001780131017041F6E601C2F20001002285
:108AE0000A70007802280DDBFFE741F6E500C2F2CC
:108AF00000000021017042F21810C2F2000080F85C
:108B0000F611FFE71FE041F6E600C2F2000001782F
:108B10000131017041F6E501C2F2000100220A7044
:108B2000007802280EDBFFE741F6E600C2F2000003
:108B30000021017042F21810C2F20000012180F8F9
:108B4000F611FFE7FFE740F60040C4F201000821FC
:108B500001F08CFA012811D1FFE740F60040C4F281
:108B60000100102101F082FA40B9FFE742F218102B
:108B7000C2F20000012180F8F71123E040F6004026
:108B8000C4F20100082101F071FA90B9FFE740F644
:108B90000040C4F20100102101F068FA012808D158
:108BA000FFE742F21810C2F20000002180F8F7112E
:108BB00007E042F21810C2F20000022180F8F7111B
:108BC000FFE7FFE740F60040C4F20100402101F05A
:108BD0004DFA40B9FFE742F21810C2F2000001213D
:108BE00080F8F91107E042F21810C2F200000021EB
:108BF00080F8F911FFE780BD8BB009900891012042
:108C0000079010200690099818B1FFE7089818B946
:108C1000FFE700200A905EE007980699884203D992
:108C2000FFE700200A9056E006980799401A0130A5
:108C30000590099807990844049000200290039039
:108C4000FFE703980599B0EB910F11D2FFE7049865
:108C5000006800BA0899029A531C029341F8220056
:108C6000049804300490FFE7039801300390E8E78C
:108C70009DF81400800758B3FFE700200190059984
:108C800001F003018DF803108DF80200FFE79DF855
:108C900002009DF80310884212DAFFE704989DF85D
:108CA0000210405C1822A2EBC101884001990843E0
:108CB0000190FFE79DF8020001308DF80200E6E721
:108CC00001980899029A531C029341F82200FFE789
:108CD00002980A90FFE70BB07047000084B04FF68F
:108CE0007050C0F600000390182002904FF6FF70FD
:108CF000ADF80600FFE7029890B3FFE70398411C28
:108D000003910078BDF8061081EA0020ADF8060056
:108D100008200090FFE70098F0B1FFE7BDF80600DB
:108D2000000400280DD5FFE7BDF806004000ADF8AF
:108D30000600BDF8060041F221014840ADF80600EA
:108D400005E0BDF806004000ADF80600FFE7FFE7CC
:108D5000009801380090DEE7029801380290CAE7D7
:108D6000BDF8060004B0704783B002900420019063
:108D7000002000900090FFE70098019988420ED2F1
:108D8000FFE70298009950F8210043F20001C4F275
:108D900002010860FFE7009801300090ECE743F221
:108DA0000000C4F20200006803B0704743F20800FC
:108DB000C4F20200016841F0010101607047000047
:108DC00081B04FF0FF300090009843F21001C4F2E0
:108DD0000201086001B0704781B000208DF80300E7
:108DE0009DF8030043F20801C4F202010A6800F092
:108DF000030022F0180242EAC000086001B0704788
:108E000081B041F6B750C0F2C1400090009843F2E3
:108E10001401C4F20201086001B0704781B0002063
:108E20008DF803009DF8030043F20801C4F202012B
:108E30000A6800F0030022F0600242EA4010086075
:108E400001B0704781B000208DF803009DF8030049
:108E500043F20801C4F202010A6800F0010022F0A6
:108E6000800242EAC010086001B0704781B0012062
:108E70008DF803009DF8030000F0030041F20401A7
:108E8000C4F202010A6822F4404242EA80300860DB
:108E90009DF803000A68800860F31C720A6001B044
:108EA0007047000081B000208DF803009DF803009A
:108EB00041F20401C4F202010A6800F00F0022F03E
:108EC000F00242EA0010086001B0704781B004204F
:108ED0008DF803009DF8030041F20401C4F2020181
:108EE0000A6800F0070022F4E06242EA002008600D
:108EF00001B0704781B004208DF803009DF8030095
:108F000041F20401C4F202010A6800F0070022F4F1
:108F1000605242EAC020086001B0704781B08DF80D
:108F200003009DF80300012809D1FFE741F2540036
:108F3000C4F20200016841F03001016008E041F232
:108F40005400C4F20200016821F030010160FFE723
:108F500001B0704781B08DF8030001208DF8020048
:108F60009DF80300042843D8DFE800F0030E1D2C11
:108F700037009DF8020041F20001C4F202010A68C4
:108F800060F300020A6034E09DF8020041F2000143
:108F9000C4F202010A6800F0010022F4803242EAC1
:108FA0000040086025E09DF8020041F20001C4F293
:108FB00002010A6800F0010022F0807242EA0060BB
:108FC000086016E09DF8020041F22001C4F202019F
:108FD0000A6860F300020A600BE09DF8020041F2AB
:108FE0002401C4F202010A6860F300020A6000E092
:108FF000FFE701B07047000080B58CB00B900020F7
:109000000A900990089007900690059004900390AC
:10901000029000F075FA8DF807009DF8070030B156
:10902000FFE7012824D0FFE7022828D0C1E041F261
:109030005400C4F202000068400AC00780B1FFE794
:1090400041F23000C4F202000068400EC00738B19F
:10905000FFE70B9846F60041C0F2DC21016006E014
:109060000B9841F20021C0F27A010160FFE7A7E00E
:109070000B9841F20021C0F27A010160A0E041F2B8
:109080000400C4F202000068C0F30040089041F2FE
:109090002C00C4F2020000680021B1EBD07F47D160
:1090A000FFE741F20400C4F202000168C1F383410A
:1090B0000A910068C0F341700990099820B9FFE750
:1090C0000A980F2807D1FFE709980A9901EB0010C9
:1090D00001300A9003E00A9802300A90FFE70898EE
:1090E00048B9FFE70A9840F60011C0F23D01484335
:1090F0000B9908601BE041F20400C4F20200006812
:10910000400CC00748B1FFE70A9840F60011C0F2D2
:109110003D0148430B99086008E00A9841F200219C
:10912000C0F27A0148430B990860FFE7FFE73FE090
:1091300041F22C00C4F202000168C1F30311049152
:109140000168C1F308210391006800F00700029054
:10915000089830B9FFE740F60010C0F23D000590D6
:1091600015E041F20400C4F202000068400CC007A0
:1091700030B1FFE740F60010C0F23D00059005E079
:1091800041F20020C0F27A000590FFE7FFE7059862
:109190000399A0FB0101DDF810C0029B01229A4057
:1091A0000CFB02F20023FBF70FF80B990860FFE7B6
:1091B00006E00B9841F20021C0F27A010160FFE75E
:1091C00041F20400C4F202000168C1F303110791E7
:1091D00007994CF2BC32C0F60102515C06910B9922
:1091E0000A68069BDA404A600168C1F302210791D0
:1091F00007994CF2CC3CC0F6010C1CF8011006910A
:109200000B994B68069A23FA02F2CA600168C1F30F
:10921000C221079107991CF8011006910B994A6821
:10922000069BDA408A600168C1F3007107910799D3
:109230000068C0F3813040EA8100079007984CF243
:10924000D431C0F60101085C06900B988168069A3B
:10925000B1FBF2F101610CB080BD000082B0019061
:1092600000208DF80300BDF8060041F20001C4F2B1
:1092700002014058019901F01F01C840C00720B900
:10928000FFE700208DF8030003E001208DF80300C4
:10929000FFE79DF8030002B07047000080B582B080
:1092A000002001908DF80300FFE71120FFF7D6FFA3
:1092B0000021012807D0FFE701980021B0F5405FA9
:1092C00038BF0121FFE7C80720B1FFE7019801304F
:1092D0000190EAE71120FFF7C1FF012804D0FFE762
:1092E00000208DF8030003E001208DF80300FFE764
:1092F0009DF8030002B080BD82B0019001208DF87E
:1093000003009DF8030001280FD1FFE7019800F04A
:109310001F01012202FA01F1000C41F20002C4F225
:1093200002028358194381500FE0019800F01F0199
:10933000012202FA01F1000C41F20002C4F2020221
:10934000835823EA01018150FFE702B07047000013
:1093500082B001208DF807004821ADF80410ADF867
:10936000020002208DF801009DF8070088B9FFE790
:1093700041F20400C4F20200016821F4803101606E
:1093800041F23000C4F20200016841F00071016056
:109390001FE041F20400C4F20200016841F4803190
:1093A00001609DF80700012809D1FFE741F20400A0
:1093B000C4F20200016821F40031016008E041F2CA
:1093C0000400C4F20200016841F400310160FFE7CB
:1093D000FFE7BDF8040041F22C01C4F202010A6863
:1093E0006FF35F206FF3102242EA00200860BDF89F
:1093F00002000A6800F00F0022F0F00242EA0010BA
:1094000008609DF801000A6860F302020A600868BB
:1094100040F00040086002B07047000041F20000D8
:10942000C4F20200016841F001010160FFE741F26E
:109430000000C4F202000068C0F34000012801D01F
:10944000FFE7F4E741F20400C4F20200016821F0F2
:1094500003010160FFE741F20400C4F2020000686A
:109460008008800708B1FFE7F5E741F20000C4F289
:10947000020001684FF6FF72CFF6F2621140016000
:1094800041F20400C4F202000021016041F22C000C
:10949000C4F2020041F61071016041F23000C4F2E2
:1094A00002004FF48011016041F20800C4F2020092
:1094B0004FF41F010160704781B002208DF8030056
:1094C0009DF8030041F20401C4F202010A6860F34E
:1094D00001020A6000BF00BF00BF00BF00BF00BFA5
:1094E00000BF00BF00BF00BF00BF00BF00BF00BF84
:1094F00000BF00BF00BF00BF00BF00BF01B070478A
:1095000041F20400C4F202000068C0F38100704719
:1095100080B584B003900B208DF80B0000208DF8EF
:109520000700FFE79DF807009DF80B10884217DA47
:10953000FFE703989DF80710084400F091FAADF892
:109540000800BDF808004FF6FF71884201D1FFE71F
:1095500007E0FFE79DF8070002308DF80700E1E71C
:10956000FFE7BDF8080004B080BD000040F28C00A9
:1095700041F6F802C2F20000C2F20002006811686F
:1095800040F6B8335B29A0FB0310ACBF12685A2227
:10959000B0B5D317551A8341A8BFB0BD8C1A60EB84
:1095A000E27500F05DFC24184D4100BF00F058FC4E
:1095B000001B71EB0500F9DBB0BD000040F290002C
:1095C00041F6F802C2F20000C2F20002006811681F
:1095D00064235B29A0FB0310ACBF12685A22B0B50C
:1095E000D317551A8341A8BFB0BD8C1A60EBE27542
:1095F00000F036FC24184D4100F032FC001B71EBEA
:109600000500F9DBB0BD000080B500F001F880BDB9
:1096100080B541F6E700C2F20000007818B1FFE71C
:10962000012814D028E004F067FA04F03FF802F0B3
:1096300063FD03F08FFF02F0B9FF04F02DFA41F64D
:10964000E700C2F2000001780131017014E003F07C
:109650005DFA01F0C7FF03F027F803F085F902F087
:1096600049F903F0D3FA03F075FE41F6E700C2F2C0
:10967000000000210170FFE780BD000082B0019072
:109680008DF803109DF8030001990A6860F3000249
:109690000A6002B07047000081B00090009800217D
:1096A0000160009841600098018100984181009814
:1096B000017300984173009881730098C1730098FA
:1096C00001740098417401B07047000081B00090AF
:1096D0000098B0F1805F09D9FFE7009820F0704052
:1096E00040F20441C4F20201086005E00098042140
:1096F000C4F202010860FFE701B0704783B0029036
:1097000000208DF8070000900298B0F1805F07D923
:10971000FFE740F20040C4F202000068009005E05C
:109720000020C4F2020000680090FFE70098029950
:10973000084204D0FFE701208DF8070003E0002075
:109740008DF80700FFE79DF8070003B070470000A1
:1097500082B001900091019801684BF6EF721140C0
:1097600001600098008901990A6810430860009818
:10977000407C01990A6800F0030022F4405242EA5A
:10978000003008600098C07B01990A6800F003006F
:1097900022F4406242EA802008600098807B0199B0
:1097A0000A6800F0030022F4407242EA00200860D8
:1097B0000098407B01990A6800F0010022F08002C5
:1097C00042EAC01008600098007B01990A6800F026
:1097D000010022F0400242EA801008600098007CFC
:1097E00001990A6800F0010022F0200242EA4010CC
:1097F00008600098408901994860009800680199C4
:109800008860009840680199C86002B07047000005
:1098100082B001900020009001990A6822F00102B4
:109820000A6001990860019948600199886001996E
:10983000C86001980090009800F49F60C0088028DC
:1098400017D8FFE79DF8000008384CF6CD41CCF65C
:10985000CC41A0FB01016FF0030000EA91000F2151
:1098600001FA00F00421C4F202010A681043086002
:109870001FE0009800F49F60C008902818D8FFE708
:109880009DF8000008384CF6CD41CCF6CC41A0FB49
:1098900001016FF0030000EA91000F2101FA00F0CE
:1098A00040F20441C4F202010A6810430860FFE775
:1098B000FFE702B07047000080B541F6E800C2F251
:1098C0000000007838B9FFE741F6E800C2F2000076
:1098D00001210170FFE705F065FE80BD83B042F213
:1098E000E800C2F20000019001208DF80300019809
:1098F00020B9FFE701208DF80B0024E000208DF84F
:1099000002008DF80200FFE79DF8020009280DDC37
:10991000FFE701989DF80210002240F82120FFE7A0
:109920009DF8020001308DF80200EDE79DF803007C
:10993000019981F82C000198002141850198018549
:109940008DF80B10FFE703B07047000010B582B030
:109950000190ADF8021003208DF8010042F21004CE
:10996000C4F20204206840F001002060BDF802004B
:10997000019908804FF4801000F046F88DF801003E
:10998000206820F00100206002B010BD42F21000FB
:10999000C4F20200016841F08001016070470000DC
:1099A00081B003208DF8030042F20C00C4F20200E3
:1099B0000068C00720B1FFE700208DF803001FE01A
:1099C00042F20C00C4F2020000688008C00720B117
:1099D000FFE701208DF8030011E042F20C00C4F211
:1099E000020000680009C00720B1FFE702208DF8DF
:1099F000030003E003208DF80300FFE7FFE7FFE724
:109A00009DF8030001B0704780B582B0019003203B
:109A10008DF80300FFF7C4FF8DF80300FFE79DF802
:109A20000310002029B9FFE70198002818BF012082
:109A3000FFE7C00740B1FFE7FFF7B2FF8DF8030073
:109A4000019801380190EAE7019820B9FFE7042066
:109A50008DF80300FFE79DF8030002B080BD000011
:109A600082B00190019800688DF8000001980130E3
:109A70000190019800688DF801009DF801009DF8A3
:109A8000001041EA0020ADF80200BDF8020002B06B
:109A90007047000010B582B0019003208DF80300DC
:109AA00042F21004C4F20204206840F00200206078
:109AB000019842F21401C4F202010860206840F0EB
:109AC000400020604FF08040FFF79EFF8DF80300BC
:109AD000206820F00200206002B010BD80B5FBF7C6
