:020000040800F2
:1040000060280020894100083F520008114C000838
:104010003D520008794A0008516C00080000000079
:1040200000000000000000000000000077550008BC
:104030007B4A00080000000075550008AD410008EB
:10404000A3410008A3410008A3410008A3410008C0
:10405000A3410008A3410008A3410008A3410008B0
:10406000A3410008A3410008A3410008A3410008A0
:10407000A3410008A3410008A3410008A341000890
:10408000A3410008A3410008A3410008A341000880
:10409000A3410008A3410008A3410008A341000870
:1040A000A3410008A3410008A3410008A341000860
:1040B000A3410008A3410008A3410008A341000850
:1040C000A3410008A3410008A3410008A341000840
:1040D000A3410008F16B0008A3410008A3410008B8
:1040E000A3410008A3410008A3410008000000000C
:1040F00000000000000000000000000000000000C0
:1041000000000000A3410008A341000800000000D7
:10411000A3410008A34100080000000000000000C7
:10412000A3410008A3410008A3410008A3410008DF
:10413000000000000000000000000000000000007F
:10414000000000000000000000000000A341000883
:104150000000000000000000A3410008A341000887
:10416000000000000000000000000000A341000863
:10417000DFF810D000F0E2F900F098FA00480047AC
:104180000D8900086028002006488047064800473F
:10419000FEE7FEE7FEE7FEE7FEE7FEE7FEE7FEE7F7
:1041A000FEE7FEE7D96A00087141000830B410B597
:1041B0000348804730BCAE4630BC024800477047D9
:1041C000A1990008795500082DE9F05F0546002007
:1041D00092469B4688460646814640241BE0284678
:1041E00041464746224600F0D0F953465A46C01A87
:1041F000914110D311461846224600F0B7F92D1A06
:1042000067EB01084F4622460120002100F0AEF97D
:1042100017EB00094E41201EA4F10104DFDC4846E3
:1042200031462A464346BDE8F09F2DE9FE4F8046C1
:1042300081EA0300C00F0C46009021F0004123F0FA
:104240000045B8EB0200A94105D240462146904600
:104250001C460B46024623F00040104347D0270D72
:10426000C7F30A00C3F30A510290401A0190402894
:104270006BDAC3F3130040F4801B0098924620B120
:104280000023D2EB030A63EB0B0B01985946C0F1F4
:104290004002504600F06AF906460D46504659461F
:1042A000019A00F082F910EB08006141002487EACE
:1042B000115284EAE7731A4340D0009A62B3019A1C
:1042C000012A4FEA075215DC001B61EB02014FF097
:1042D000004202EA0752CDE90042001C41F580117C
:1042E00032462B4600F082F903B0BDE8F08F40461D
:1042F0002146F9E7001B61EB0201001C41F5801328
:1043000000185B412018A2F5001747EB030140EAB3
:10431000D570B6196D4111E06D084FEA360645EAD1
:10432000C0754FEA0752001B61EB0201001C41F50A
:10433000801149084FEA30000019514132462B469E
:1043400003B0BDE8F04F00F042B9009801224000F0
:104350000023D0EB020263EBE073009821464FEAA2
:10436000E074B8EB000061EB0401E9E783F000437F
:104370005BE781F0004158E72DE9FE4F81EA030435
:1043800004F0004421F0004100944FF0000B23F0B2
:10439000004350EA01045ED052EA03045BD0C3F349
:1043A0000A54C1F30A552C44A4F2F3340194A0FB3F
:1043B0000254C1F3130141F48011C3F3130343F416
:1043C000801301FB024400FB034E840A970A44EA6F
:1043D000815447EA8357A4FB076802958D0A05FBC1
:1043E00007854FEA932C04FB0C542705029D4FEAE6
:1043F000065847EA1637B5EB08056EEB070C870E33
:10440000920E47EA811742EA8312A7FB0201B6EB3C
:104410000B0164EB00042B0D43EA0C335E1844EBF4
:104420001C50DA465146E7FB0201C5F313044FEA7C
:104430000B3343EA14534FEA0432019C43EA060368
:10444000A4F10C040294009CCDE900B400F0CEF875
:1044500003B0BDE8F08F00200146F9E72DE9F04DEB
:1044600081EA030404F0004B21F0004514464FF0AC
:10447000000A23F0004150EA050220D054EA01026C
:104480001DD0C5F30A570246C5F31303C1F3130049
:10449000C1F30A5640F4801543F48013A7EB0608D5
:1044A000101BD64608F2FD3873EB050002D308F165
:1044B000010801E092185B41B8F1000F03DA002017
:1044C0000146BDE8F08D00204FF480110646844679
:1044D0000EE0171B73EB050705D3121B63EB0503F7
:1044E00006434CEA010C49084FEA300092185B4140
:1044F00050EA0107EDD152EA030012D082EA04002B
:1045000083EA0501084305D0101BAB4106D2012206
:10451000002306E000224FF0004302E06FF00102AA
:1045200053101AEB06004CEB085110EB0A0041EB5C
:104530000B01BDE8F04D00F04AB800001CB5094879
:104540000090094801900546009C06E0E06840F0B4
:10455000010394E8070098471034AC42F6D3FFF704
:104560000BFE00007C6801089C680108202A04DB1F
:10457000203A00FA02F1002070479140C2F1200376
:1045800020FA03F3194390407047202A04DB203AB5
:1045900021FA02F00021704721FA02F3D040C2F163
:1045A00020029140084319467047202A06DBCB17AA
:1045B000203A41FA02F043EAE07306E041FA02F3DE
:1045C000D040C2F12002914008431946704710B50F
:1045D000141E73F1000408DA401C41F10001921826
:1045E0005B411A4301D120F0010010BD2DE9F04DCF
:1045F00092469B4611B1B1FA81F202E0B0FA80F224
:1046000020329046FFF7B2FF04460F4640EA0A0008
:1046100041EA0B0153465A46084313D0114653EA68
:10462000010019D0C8F140025046FFF7AEFF054621
:104630000E46504659464246FFF798FF084305D0BC
:10464000012004E020463946BDE8F08D00200543F6
:1046500046EAE0762C4337430A986305E40AA0EB68
:1046600008000022FD0A44EA47540A3002D500201F
:104670000146E9E7010510196941DDE9084500191E
:104680006941BDE8F04DA2E7D2B201E000F8012B8C
:10469000491EFBD270470022F6E710B513460A46C2
:1046A00004461946FFF7F0FF204610BD7CB50748C9
:1046B0000090074801900546009C04E020460168F0
:1046C00008448047241DAC42F8D17CBD9C68010899
:1046D000A0680108F0B480EA0102D40F4200B2EBF6
:1046E000410F02D20246084611464A0042D0C30D8D
:1046F000DDB2C1F3C752AD1A202D35DAC1F3160170
:1047000041F4000204B15242C5F1200602FA06F15A
:104710002A411044B3EBD05F23D0C4B1012DA0EBEC
:10472000C35009DCF0BC4FF0004202EAC352DBB2D6
:1047300000F5000000F072B9400000F1807000EB5D
:10474000C350A0F1807040EAD170490009E04908E7
:1047500041EAC071A0EBC35000F50000400800EB37
:10476000C350F0BC00F051B96142012202EB41019B
:10477000001BF6E7F0BC704781F00041AAE780F02B
:104780000040A7E780EA010210B502F000434000B4
:1047900022D04A001FD0010E01EB1261C0F3560077
:1047A000C2F3560240F4000042F40002A0FB0220D3
:1047B00000047F39140400D0401C50EA124001D498
:1047C0004000491EC2B20C0604EBD010401C400849
:1047D000802A02D003E0002010BD20F00100002953
:1047E00000DA0020184310BD30B480EA010202F064
:1047F000004530F0004221F0004013D090B1C30DCD
:10480000D40DC2F31601C0F31600E41A41F40001FE
:1048100040F400027D34914201D3641C00E0490061
:10482000002C02DA30BC002070474FF40000002357
:10483000914201D3891A034340084FEA4101F7D15D
:1048400051B1914202D14FF0004105E002D24FF048
:10485000010101E06FF0010103EBC450284430BCBA
:1048600000F0D3B8002801DBC0F10040002901DBD3
:10487000C1F10041814201D80120704700207047FA
:10488000002801DBC0F10040002901DBC1F100413B
:10489000814201D20120704700207047002801DBCF
:1048A000C0F10040002901DBC1F10041814201D388
:1048B0000120704700207047002801DBC0F1004054
:1048C000002901DBC1F10041814201D9012070477B
:1048D00000207047002801DBC0F10040002901DB07
:1048E000C1F10041814201D1012070470020704791
:1048F00096230022114600F091B80EB540F23341E4
:1049000002910021CDE900110A460B46FFF76EFE29
:1049100003B000BD00F0004220F00040C10DC0F324
:10492000160040F400007F2901DA00207047962924
:1049300003DCC1F19601C84001E096398840002AA5
:10494000F4D04042704720F00040C10DC0F3160083
:1049500040F400007F2901DA00207047962903DC2B
:10496000C1F19601C840704796398840704770B5CC
:10497000C1F30A5201F000450024C1F3130140F2D3
:10498000FF3341F480119A4201DA002070BD40F2F9
:1049900033439A42A2F2334203DC5242FFF7F5FD61
:1049A00000E090402C43F1D0404270BD00F0004246
:1049B00030F000400AD0C10D01F56071C0F316005F
:1049C00042EA0151C20840071143704700200146E6
:1049D000704701F0004330B421F0004150EA010279
:1049E00006D00A0DA2F56072C1F31301002A02DCA1
:1049F00030BC00207047440F44EAC104C100E018F5
:104A000030BC00EBC250AFF300800029A8BF704754
:104A1000401C490008BF20F00100704710B4B0FAF4
:104A200080FC00FA0CF050EA010404BF10BC70478F
:104A300049B1CCF1200421FA04F411FA0CF118BFA9
:104A4000012121430843A3EB0C01CB1D4FEA006178
:104A50004FEA102042BF002010BC704700EBC3504B
:104A600010440029A4BF10BC7047401C490008BF77
:104A700020F0010010BC7047FEE77047B0B54E4C07
:104A8000A1690D4603F06EFE85420FD9EFF3108247
:104A900072B6A169A94205D12369A06101332361DE
:104AA000BFF35F8F02B962B6A94211D054E8061F66
:104AB000A94208D1BFF35F8F44E806022AB9BFF3C9
:104AC0005F8F012202E0BFF32F8F0022002AD8D08F
:104AD000B0BD00BF2DE9F04F4FF080554FF00054AE
:104AE000DFF8D8C04FF0070805EAD10504EA9204C0
:104AF000284320434FF0804404EA530440EA040E64
:104B00002D4C04F10C0BB8F1000F4BD054E8010F01
:104B1000451C44E80156002EF8D100F4707500F0F1
:104B20003F000CEB00194EEA853A4F4657F80C5FF0
:104B300028466D0116D400F0004545EA0A0545F007
:104B4000406657E8005F854206D147E8006028B913
:104B5000BFF35F8F012002E0BFF32F8F00200028FA
:104B6000E6D002E0A8F10108CDE723F0004086F08E
:104B7000004322F0004221F0004104F1080B03F051
:104B8000004528442A442944C9F80800C9E900120C
:104B900023F08060BFF35F8F57E8001F47E80001F4
:104BA0000029F9D15BE8000F01304BE80001002932
:104BB000F8D1BDE8F08F00BF401F0020C01A0020D0
:104BC0002DE9F041DFF8448000234FF0010E4FF053
:104BD000000CBCF1040F08BFBDE8F08120FA0CF70F
:104BE000FF070FD00F4697420CD803EBD70407F00E
:104BF0000706013718F804500EFA06F6354308F890
:104C00000450F0E70CF1010C2033E2E7C01E002055
:104C1000FEE700002DE9F843DFF82C9007462A2034
:104C2000984615460E46C847084C3846A0472846C1
:104C3000A0472B20C8473046A0474046A0472C201D
:104C40004946BDE8F8430847D1510008B55100086E
:104C50002DE9FE4F0C46A3EB010B111A0546002966
:104C6000029101DD012008E005D002984042029047
:104C70004FF0FF3001E000200290BBF1000F0190E7
:104C800001DD012607E019BFCBF1000B4FF0FF3625
:104C90004FF0000B002602985F464FF000084FF0DF
:104CA00000094FF0000A584588BF07461FFA88F0F0
:104CB0008742B8BFBDE8FE8FA8B2A1B202460B463C
:104CC000FFF7A8FF0C9800F075FA0AEB0B0008F14B
:104CD0000108B842C8BF34440299019A4944B94214
:104CE000C8BF1544B0EB070AD8BF8246B1EB07092D
:104CF000D8BF8946DAE700002DE9F04F89B00746B2
:104D0000129815461C460E46ADF80A00501E82B297
:104D1000581E83B23846FFF77DFF40494FF480505C
:104D20000DF10C084860A11B3E4C3D4EE81B4FF6B0
:104D3000FE7501FB00F706F10C0004F1440904F1D3
:104D4000580A0190306840F400603060484603F033
:104D500067F9504603F064F900204FF6FE7B4146A8
:104D6000ADF814000DF12200AF4238BFBB46ADF8DC
:104D700016B00490019803902B4806904FF44070B1
:104D8000ADF81C00484603F00DF910204146ADF87F
:104D900016B0ADF8140003208DF81D004FF480709C
:104DA000ADF819000DF10A000490504603F0FAF82E
:104DB000706840F002007060706840F00100706040
:104DC000606C40F001006064A06D40F00100A065DF
:104DD00020688004FCD54FF400504FF6FE756060EB
:104DE0007F1B606C20F001006064A06D20F001006A
:104DF000A065706820F002007060706820F001000B
:104E00007060306820F4006030609BD803494FF434
:104E10008050086009B0BDE8F08F00BF100C014061
:104E20000038004000000240000001012DE9FE4F63
:104E300014468A46834657084FF00008002500268E
:104E4000032E0DD0C6F10200C0B204F0EDFB0BEB57
:104E500005005146202200F0A4FA3D440136EFE758
:104E60004FF000084FF0FF3900250026032E08BF41
:104E7000BDE8FE8F59FA86F0032805D80BEB050034
:104E80005146202200F08DFA3D440136EEE7000045
:104E90002DE9F04F87B0119D1C46904600EB55025E
:104EA0004B1900F04AFA012029096F08109E4FF0B3
:104EB000000B7A0718BF00EB151101FB05F00690F7
:104EC000A8F1200033490023C2B2C2EB02100592C0
:104ED00001EB80100490344800EB0210039030483E
:104EE00000EB821002902C4800EB02200190069803
:104EF00083424CD0782D23D0102D1FD00598182D2B
:104F000000EB40000BD0202D14D0382D0BD0402DBD
:104F100012D00C2D3BD1254901EB800011E0214935
:104F200001EB00100DE005981C49C0EBC00001EB3F
:104F3000401006E0029804E0019802E0039800E0C7
:104F400004981D4618440BF108084FF0000A90F829
:104F50000090BAF1080F13D029FA0AF0C0072046D2
:104F600008BF304600F026F90BF1010B5FFA8BF019
:104F7000B0FBF7F101FB170020B10AF1010AE8E7E5
:104F8000C34601E04FF0000B6B1C119DAFE707B06B
:104F9000BDE8F08F9CA600085C4E01089C37010814
:104FA000DC1F01080C0E01081C08010828A20008DB
:104FB0002DE9FE4F07460D98994692460E4600256C
:104FC0004FF0000B4FF000084408BBF1030F08BF7F
:104FD000BDE8FE8FCBF10200C0B204F025FBBAFBA6
:104FE000F0F00A21B8F1000FB0FBF1F101EB810103
:104FF000A0EB410106D1BBF1010F03D8080412D088
:105000004FF00108DDE90C2041F030014B46CDE9BD
:1050100000207819CAB2314680B2FFF739FF254423
:105020000BF1010BD1E7DDE90C1030224B46CDE945
:1050300000107819314680B2FFF72AFF4FF00008C0
:10504000EDE72DE9FC47DDF82880994615460E4628
:1050500007464FF0000A4FEA58042A784AB1B8B21E
:1050600031464B46CDE900A8FFF712FF2744013532
:10507000F3E7BDE8FC8700002DE9F04F87B00C4650
:105080003A490546FFF77EFBFFF744FC0A26B0FBD2
:10509000F6F101EB8101A0EB410B4BF030000390E6
:1050A0002846FFF737FC81B200258C274FF01808FF
:1050B00043F286194FEA0B4BB1FBF6F1B1FBF6F266
:1050C0004FF0FF3602EB8202A1EB420201EB8101BD
:1050D000A0EB410042F03003120440F030014FEAEF
:1050E000004A0692DAB2C8B2059204900398C0B2A0
:1050F0000390052D37D056FA85F1032931D805EBF9
:105100004500DFE801F0021B0810069907EB80005C
:10511000F9B1059A18E007EB8000CDE900986B2102
:105120002E2280B21AE007EB8000BBF1000F10D0F6
:10513000039A80B26B21CDE900980FE007EB800065
:10514000BAF1000F05D0049ACDE9009880B26B2126
:1051500004E0CDE9009880B26B2130222346FFF7AE
:1051600097FE0135C5E707B0BDE8F08F000020418C
:105170002DE9FE4F1C469046894683465D08002671
:105180000FF2280A0027072F08BFBDE8FE8F781E00
:10519000C0B2052806D81AF800200BEB06004946D5
:1051A00000F0FFF82E440137EDE700BF56312E31F5
:1051B0002E30000010B504460A484FF4807101609B
:1051C000200A00F011F8E0B2BDE8104000F00CB881
:1051D000B0B5044C4FF48075656000F005F82560AB
:1051E000B0BD00BF1008014010B512494FF4805205
:1051F0004A60114A136823F002031360136823F016
:105200000103136000235468A40704D45C1CC82B5A
:105210002346F8D90AE0906000205368DB0704D1E8
:10522000431CC8281846F8D900E090684FF4805015
:10523000086010BD100C014004380040FEE77047C4
:105240004B218B22762300905A2001F07FBC0090E6
:10525000EC2063211322132301F078BC8AF820008C
:105260000A208AF8110070470246102043F2861186
:105270007047002000214FF4A072F023CDF8009079
:1052800001F064BC054620462946FFF7F9BAC9E992
:105290008D00C9F83C02C9F82402C9F81C02C9F8FB
:1052A000140270472046FFF707BB0162C1614161EC
:1052B0000161C160C16481640164C1637047BB2145
:1052C000422223230090802001F040BC2046FFF7BB
:1052D000E5BA064620464FF07E517047EC20832108
:1052E00013221323009401F031BC98F85002811E60
:1052F000022970470246202042F2E401CDE9001065
:10530000BE20212170471421002200232847006875
:10531000FFF700BB00210025FFF7CEBA0646204666
:10532000FFF7D8B920463946FFF7C6BA2946FFF736
:105330005BBA01462046FFF7A3BA013A013B92B29D
:105340009BB2FFF767BC4FF08441FFF7C3B921461A
:10535000FFF7C0BA2146FFF715BA2846FFF7BAB9DA
:1053600001208AF82000704798F80402012870474D
:10537000B85B00BA000CFFF71DBFBE2140222023FE
:1053800001F0E4BB206820F00100206010BD86F829
:10539000440204F114002847C6F8200204F110006A
:1053A00028474FF6FF73CDE9008480B2FFF770BD48
:1053B000C6F8180204F10E002847C6F8100204F1DE
:1053C0000C00284786F8080204F10A00284786F8EE
:1053D000060204F10800284742F224121823FFF7BE
:1053E000C7BE90F8501202201A29704790F8501248
:1053F0008A1E022A7047CDE9001040F2151070474E
:10540000387AFFF775BABE214022202300907047FA
:1054100000908020BB214222232301F097BB20462D
:10542000FFF778BA5146FFF7DFB90138746C8AF894
:10543000110040B200287047816495F804020128E9
:105440007047014620463047012180F84A12252145
:1054500080F850127047012180F847121F2180F810
:10546000501270478DF81CA0ADF81D80CDF8189033
:10547000704799F804020128704700BF00BF00BFC1
:1054800000BF00BF00BF00BF00BF00BF00BF70472C
:1054900043F286114FF6FF73CDE9001070479AF87A
:1054A000110001388AF8110040B20028704748F214
:1054B0000F430095204799F8500200F0FE010229A1
:1054C0007047FEB5044608461146FFF755F960617E
:1054D0006069E169FFF7FEF8E061E069616AFFF782
:1054E000CFF908B9606AE061E069FFF713FF00B91E
:1054F000E561D4E9005760692169FFF73DF9A061D2
:1055000038466669E169FFF73DF9616A02900191E9
:1055100002980199FFF7A6F908B90198029002983C
:10552000019981F00041FFF7B9F918B9019880F0AD
:105530000040029028463146FFF724F90299FFF710
:10554000C9F80546A068A169FFF71CF92946FFF7CD
:10555000C1F8206260692061206AA16AFFF782F9C0
:1055600008B9A06A2062206AFFF7D4FE00B925625C
:10557000206AFEBD704770472DE9F84FDFF80C8DAB
:1055800098F80100013888F80100000639D1DFF8E9
:10559000005D142088F8010095F80602012830D13A
:1055A000DFF80C4D94F82000C8B1012804D002287F
:1055B00017D194F8216007E001F0CCFB94F82100AA
:1055C000461CF0B2042807D201F0C4FB701C84F81A
:1055D0002100C0B20F2804D30020208401E001F094
:1055E000B1FB95F8020260B198F80300013888F821
:1055F0000300000605D1022084F82000282088F846
:10560000030098F80200013888F80200000640F014
:105610009884DFF89CAC0A2088F802009AF85000C1
:1056200070B99AF8510058B99AF8520040B99AF8EE
:10563000530028B99AF8540010B99AF8550060B18F
:10564000DFF8680C90F8FC11022904D029B9022176
:1056500080F8FC1101E0002101659AF8100050BBB0
:105660000120DFF8505C1421002214238AF8100076
:1056700008F13C00A84708F1500000210022142343
:10568000A84708F16400FFF73EFEDFF82C4C142118
:10569000002200232046A84704F11400FFF733FE40
:1056A00004F1280014214FF496720023A84704F156
:1056B0003C00FFF728FE00200FF600414FF0020BE0
:1056C0004FF0040E4FF080794FF0030C0026072EA8
:1056D00000F08A8051F826502B68AC889F68EB79DF
:1056E000042B59D827403C1BAF79B4FA84F46409E1
:1056F000DFE803F003311A2A0D00A74204D1E87352
:10570000288185F807B0A88100236B8145E0A74276
:1057100032D1AA89EC7C531CAB81ECB39AB2A24281
:105720003AD3A881042338E0A7422BD12A892B7CC5
:1057300001322A8192B29A422ED3AA7B0123288178
:10574000EB710132AA7328E0A7421ED1002385F82D
:1057500007B0AB6021E0A74225D12A896B7C0132DA
:105760002A8192B29A4217D3EA7BAAB985F807E058
:10577000C5F80C90032310E0002385F807B0EB7305
:105780002B810AE00023EB7107E06A89AB7C0132D0
:105790006A8192B29A4219D200230AEB06020136BC
:1057A00082F8503093E76A7C2B89688185F807B0CE
:1057B000934214D2AB7BA3B1012B07BF85F807C07E
:1057C0000023E871A87318BF05230AE0AA7BE871DB
:1057D000A873013AB2FA82F252095300DDE70223BC
:1057E000A873E8732881D8E79AF85000022810D0EF
:1057F00004281FD1DFF8B40AFFF7F8FD05D31F29ED
:1058000000F00E811A2940F01981012088F8070064
:1058100010E0DFF8980A90F850121A2900F2FB8085
:105820000122B44B8A401A4200F0F580002088F82B
:10583000070055E19AF85100042812D002281ED121
:10584000DFF8680A90F850121A2900F2DF8001226E
:10585000A84B8A401A4200F0D980022088F807003D
:1058600020E1DFF8480AFFF7C1FD05D31F2900F04A
:10587000DE801A2940F0EC80032088F807009AF8AF
:10588000520002280ED0032812D1DFF8200AFFF7B9
:10589000A8FD0BD8012202FA01F1964A114205D067
:1058A0000F2101E001200B2188F807108AF8200061
:1058B0009AF8530002280ED0032812D1DFF8EC0921
:1058C000FFF78FFD0BD8012202FA01F1894A11423C
:1058D00005D0102101E001200C2188F807108AF87A
:1058E00020009AF8540002280ED0032812D1DFF8C5
:1058F000BC09FFF776FD0BD8012202FA01F17D4ABF
:10590000114205D0112101E001200D2188F8071076
:105910008AF820009AF85500052800F052800328E4
:1059200041D0022840F08182DFF8805995F850027A
:1059300004382C2800F27782DFE810F05C01750251
:1059400060017502220175025E0175022701750270
:1059500048017502620175026F01750292017502BC
:10596000900175021101750275024D017502290140
:105970007502E000750274017502830175029701DA
:1059800075022D002D00750246017502A3017502F6
:105990000B0175024401102085F8500295F84B0266
:1059A00085F80C023FE2DFF8040990F850021A284B
:1059B00058D8012101FA00F04E49084252D0062081
:1059C00051E0DFF8E808FFF711FD11D201211A229A
:1059D00080F8502280F8461280F8441202218AF89A
:1059E0002010FF2180F8FD114349C0E903111CE29A
:1059F0001A2940F01A8290F8FF11002900F07580F2
:105A0000012940F0748000210322E1E70A1F142AD3
:105A10002FD8082022E70A1F142A48D8092006E7B1
:105A200090F8470201287FF405AF1820EEE690F8C1
:105A3000470201287FF423AF19201EE725297FF4B0
:105A4000F9AE90F84A0201287FF4F4AE2020DDE69A
:105A500025297FF414AF90F84A0201287FF40FAF94
:105A600021200AE70A20022188F807008AF820107E
:105A7000DBE11B39132915D8DFE811F05F011400B1
:105A80006F011400650114005B0114003D01140056
:105A900041011400170017001400150114009101B2
:105AA00014002901FFF75CFCE9E62420D6E61B3947
:105AB000132915D8DFE811F0450114005D01140029
:105AC000530114003F01140021011400340114009B
:105AD000170017001400010114007E0114001501C5
:105AE000FFF73EFCA6E62420A1E6022270E7002193
:105AF00070E700BF0C00000400007F4395F84702E8
:105B0000012800F00681002840F08D810820D5E9A9
:105B1000094185F85002D9486863E8626869FEF770
:105B20002BFE01462046FEF7D5FDD5490446FEF77B
:105B3000B5FED44900281CBF0024C4F2C824204666
:105B4000FEF790FE00281CBF0024CCF2C8246C6233
:105B500069E195F84D02012840F06581A1E095F8D2
:105B60004402012800F0EB80002840F05C8195F8A9
:105B7000FF01012800F0548100284FF0020050E19D
:105B8000012085F847021F204BE1232049E1062030
:105B900085F8500295F80402012885F84F0200F0BC
:105BA000EA80002840F03F810020CA4985F80402BD
:105BB0006869FEF7E7FDC849FEF716FEFFF7C3FB6D
:105BC000E86130E116202CE112202AE1012085F85D
:105BD0004A02252025E1042085F8500295F8440268
:105BE000012885F8460200F0D680002840F01B818D
:105BF0000020D1E01B2014E1212012E11D2010E142
:105C000095F80C02012800F0E080002840F00B819C
:105C1000002085F84B02272003E1002085F84E0282
:105C20002A20FEE00A2085F8500295F80602002896
:105C300085F8480200F0CE80012840F0F480012071
:105C4000C9E00C2085F8500295F84902012800F0BF
:105C5000C580002840F0E7800020C0E03020E0E070
:105C6000002085F84C022C20DBE08448A86495F8DD
:105C70004A02012800F0B680002840F0D4800E20AF
:105C8000CFE095F84C0260B1012840F0CC800120B3
:105C900085F84D022E2085F85002222088F8070052
:105CA000C1E01420BDE090F84E12012900F09E8062
:105CB00000297FF4F7AE012199E090F84E120129F6
:105CC00000F0988000297FF40BAF012193E090F859
:105CD0004D12012900F0928000297FF4E3AE0121EA
:105CE0008DE090F84D12012900F08C8000297FF49E
:105CF000F7AE012187E01B20B0E51B2097E590F867
:105D00004A12002900F0828001297FF4CBAE1F20C7
:105D1000A4E55A486863E862002085F8470282E0FB
:105D200090F84A12002976D001297FF4D9AE1E20BE
:105D30007DE51A2092E51A2079E512208EE51A20D9
:105D40006FE0122073E590F84712002900F080867A
:105D500001297FF4A7AE172080E513207EE590F897
:105D60004712002900F07B8601297FF4B9AE162086
:105D70005DE513205BE501204FF0424185F8040208
:105D8000E869FEF7A7FC5449FEF7FCFC5149FEF711
:105D90002BFD686147E0012085F8440243E090F85C
:105DA0004C12012900F0628600297FF47BAE0121AC
:105DB00000F05DBE90F84C12012900F05C860029CD
:105DC0007FF48EAE012100F057BE012085F84B0212
:105DD000282026E0002085F8060224E0012085F82E
:105DE000080220E0002085F84A021CE0002180F82B
:105DF0004E1257E6002180F84E1271E6002180F81D
:105E00004D124FE6002180F84D1269E6FFF71CFBAA
:105E10001A49816446E6FFF717FB184981645FE67B
:105E2000032085F85002FFF79BFA9AF856000228E3
:105E30001BD1FFF795FA0E2088F80700DFF8A04D78
:105E400094F80D020130C1B2032988BF012084F803
:105E50000D02C0B2032800F05B80022855D0012853
:105E600040F06680D4F8100254E098F80700242827
:105E700000F267800FF21001D1E810F000007F43BC
:105E80000000C8420000C8C231005103EA030E04FA
:105E9000630063008A036300BB03C40368044E0409
:105EA000E0028E0330001003A702CF03DE03950447
:105EB0006300630078048B021F03A0049B020403A9
:105EC00063006300CF02A503B602E904CD046300BA
:105ED000F70200BF000010410000A040AEE7DFF86D
:105EE000E80B0021DFF8F85CC161FFF7A5FA00F0CC
:105EF000F284002840F083856C69E14F20463946E2
:105F0000FEF7BEFCFFF7E5F9B6E3D4F8180201E0AE
:105F1000D4F8200294F804126061012908D1D9490B
:105F2000FEF730FCD849FEF75FFCFFF70CFAE061A2
:105F3000DFF8940B0021FFF7B8F98163252088F87A
:105F4000070098F80000D34C013888F800000006DC
:105F500040F0FF80E14E0020DFF82CAB782130606C
:105F6000D8F83400DAF84C205B2AACBFDAF84C20C1
:105F70005A22A0FB0110D317541A83410CDA8C1A51
:105F800060EBE27502F0EEFB24184D4102F0EAFBF3
:105F9000001B71EB0500F9DB082002F06BFB0446E7
:105FA000FEF7A6FCDFF8389CB04699F8FFB1C9F8B7
:105FB0003800BBF1010F04D140F69800844207D8A5
:105FC00009E0BBF1000F06D140F6FD00844202D388
:105FD000042089F80202D9F81450DAF84400D9F8FC
:105FE0000440D9F824602946FEF774FC0746204691
:105FF0003146FEF7C1FB044637B9DFF8CC0A002171
:10600000C161CAF844508164DFF8740A007A5845C7
:1060100019D0BBF1010F0AD0BBF1000F0ED1DFF890
:10602000A80A0021C161AC490420486006E0DFF8FD
:10603000980A00218164A8490420086099F8FF01AA
:10604000DFF83C1A0872DFF88C6A708D092817D8BF
:1060500096F82C0002F00EFBFEF74AFC0546708D08
:10606000471C46F82050308D7785FEF741FC0146ED
:10607000FFF773F9FEF74EFCB9B2B0FBF1F10EE099
:10608000308D0A25B0FBF5F1401A308596F82C00CA
:1060900002F0F0FA318D084481B2B1FBF5F13085A0
:1060A0008808FEF725FCC9F8040099F8020299F85F
:1060B000FC1110BB012920D1D9F814508849FFF7F1
:1060C0004CF9064620463146FEF7F6FB28B98549CD
:1060D000FFF743F9FFF72DF9A8B1DFF8EC09002528
:1060E0003146C5618564FFF7DDF8F0B999F8FF0125
:1060F000012811D0D8B97C4D17E00025A9B103299A
:1061000013D090B913E099F8FF0138B101280ED1EE
:10611000DFF8B4092C3003E0744D06E0DFF8A8097D
:1061200029462246FFF7CDF90546C9F83C50D9F873
:106130003C00FEF708FCC8F800004FF08040DFF894
:106140004089654C016841F0010101600A2088F82E
:106150000000B8F80A000138A8F80A00000426D1A7
:10616000102002F087FADFF8201948844FF4FA7003
:10617000A8F80A00488CFEF7C0FB5D4B4FF0663272
:10618000FEF7FAF85B4B0022FEF7F6F85A4A5B4B33
:10619000FEF74BF85A4A5B4BFEF760F95A4B002268
:1061A000FEF743F8FEF715FCDFF8341A0864D4F85C
:1061B000F803400612D4DFF8D008C17D0131C17563
:1061C000C9B2152919D3DFF8181A012281F8012262
:1061D000032281F8FC210021C1750EE0D4F8F803F8
:1061E00040060AD5DFF8F809DFF89C28002180F87E
:1061F0000112D175012180F8FC11DFF8E45995F8FE
:10620000FE6176B3012E32D1DFF87C780020797DF3
:106210003875002900F08380EC6C00212046FEF7E1
:1062200059FB002876D1012085F8FC01B88E013099
:10623000B88680B2B0F57A7F73D3B97D0020B88676
:106240000131B975C9B2062911D3B8752046FEF7D8
:10625000ADFB2E4A2E4BFDF7E8FFFEF7BAFBE864D4
:1062600005E0DFF824080121027D4175A2B195F80F
:10627000FC01022855D1DFF810080121C17455E056
:106280000000E143000010410000A0400000002099
:10629000002200201008014085F8FC110175002142
:1062A00081868175686CE8643BE000BF00220020B5
:1062B00000010020C5880008780000203C00002074
:1062C0005000002064000020780000208C00002096
:1062D000A0000020B4000020100801404000004051
:1062E0000000F0410000F0C100A08C4500401C46B9
:1062F00066660A400000303F295C8FC2F528F4BF73
:1063000033E197FA7953713F000039409A9999998E
:106310009999B9BF95F8FC010128AAD1002085F808
:10632000FC01DFF86407C07C012813D1286D4FF011
:106330007E51FEF7CFF9E8492865FEF7A1FA48B982
:10634000DFF8441700202865C874701E18BF0120AC
:1063500085F8FC01DFF83007DFF8F048C16B013148
:10636000C163A069804794F83D00012809D194F8E1
:106370003C0018B1013884F83C0002E0022084F8A7
:106380003D0094F84C0010B1013884F84C00BDE891
:10639000F88FDFF84C7897F80402012840F01B8250
:1063A000F869CE493C6BFEF795F9FEF76BFFCC49D7
:1063B00039E3DFF82C0890F80612012900F060821A
:1063C000002940F0628201215BE2DFF8140890F8B6
:1063D0000412002900F05E82012940F0618200F57C
:1063E0000B7100F11C0259E29AF81100DFF8F06716
:1063F000FFF71BF800F341820120BA49FEF72EFF98
:106400002046FEF73DFAB84905462046FEF762F9F8
:10641000B64C002D18BF04462EE2DFF8C467B34C1B
:10642000756C21462846FEF739FA002840F0DE80D8
:106430002846FEF7BBFAAE4AAE4BD2E0DFF8A047E3
:1064400094F80412D4F818020129606108D1AA490D
:10645000FEF798F9A449FEF7C7F9FEF774FFE0616B
:10646000DFF86406002102226AE1DFF8740790F881
:106470000C12002900F0168201297FF45FAD27215C
:10648000002211E2DFF8580790F80812002900F006
:10649000138201297FF452AD00210EE2DFF840079C
:1064A00090F80412002900F00E82012940F01182B8
:1064B00000F50A7100F11C0209E2FEF7F0FF3FF758
:1064C0003DAD0120DFF81897FEF7C8FEFEF7D1FFBB
:1064D00000F0388200287FF431ADD9F81460864985
:1064E000D9F828403046FEF74DF97F4DFEF71EFFE4
:1064F000FEF729FF8149C9F830003046FEF7EAF877
:106500007F490646FEF7E6F8FEF713FF07462046EA
:106510002946FEF7DFF8002F08BF304631E2DFF8EA
:10652000A8050021C16181649AF81120013A8AF816
:10653000112052B2002A3FF701AD0A22DFF8A096DF
:10654000C1618AF811208164FEF793FF00F01D827B
:10655000002840F03582D9F814506A492846FEF7E1
:106560008FF9614C064628462146FEF7B3F8664986
:10657000002E08BF0846C9F814005F49FEF702F96B
:106580002146FEF731F9FEF7DEFEC9F81C0017E2DE
:10659000DFF84C060421C0E1DFF8444694F8041209
:1065A000D4F820020129606108D15349FEF7EAF8C6
:1065B0004D49FEF719F9FEF7C6FEE061DFF8080560
:1065C00000210322BCE0DFF8186600210024756C6E
:1065D0002846FEF747F948B92846FEF7E7F9444A46
:1065E0004A4BFDF722FEFEF7F4F90446F4647464A6
:1065F000A4E4DFF8EC0590F850128A1C172988BF34
:10660000042207E0DFF8D80590F850128A1E052909
:1066100038BF182280F8502290E4DFF8C40590F8C3
:106620000412002900F06081012940F0638100F527
:106630000C7100F11C025BE1DFF8A40590F8441234
:10664000002900F05C8101297FF478AC002157E13A
:10665000DFF874040021DFF88855C161FEF7ECFE15
:1066600000F05481002840F0CA816C69284FFEF781
:1066700059FE1B4906462046FEF72CF8002E08BF9F
:1066800038461D496861FEF77DF81749FEF7ACF8FA
:10669000FEF759FEE861B2E1FEF701FF3FF74EACAD
:1066A000DFF8240400210A22DFF83455C1618AF89A
:1066B0001120FEF7C1FE00F08A81002840F09F8182
:1066C0006C691449FEF7EEFD0D49FEF727FE1049EF
:1066D000002E08BF0846D4E700803B45000014C3E5
:1066E000000080BF008078440000A04000C07944D2
:1066F0009A9999999999B93F000010410000C842B0
:106700000000A0C00080DE430000E1439999B9BFBA
:106710000000484300004D43DA4C94F80412D4F8CA
:1067200010020129606108D1DC49FEF72BF8DA4933
:10673000FEF75AF8FEF707FEE061E3480021012268
:10674000FEF7B3FD84F80D22FFF7F7BBCD4890F8B4
:106750004412012900F0E08000297FF4EFAB90F8AB
:10676000FF210221012A08BF0321D6E0C54F97F877
:106770000402012800F0D58000287FF4DFAB7D699A
:10678000C649BC6A2846FDF7FDFFC349FEF72CF851
:10679000FEF7D9FDBE493863FEF7DFFDFEF772FD57
:1067A000FEF797FD31E0B74890F80412002900F099
:1067B000C28001297FF4C2AB0021BDE0FEF76FFE6D
:1067C0003FF7BCAB0120AF4FFEF748FD97F804023E
:1067D000012800F01B8100287FF4B0AB7D69AF4930
:1067E000BC6A2846FDF7CEFFAB49FDF7FDFFFEF77B
:1067F000AAFDA8493863FEF7B0FD054620462946A4
:10680000FEF75AF8AD4906462046FDF763FF002E15
:1068100008BF284619E1F248A149A44AC0F820124D
:10682000A0494261012280F8522280F8082280F8B3
:106830000622C0F818129C49C0F8101200214162CB
:1068400080F8441280F804124164FFF777BB9AF88D
:106850001100E34EFEF7E9FD0FDC01208E49FEF743
:10686000FDFCFEF71FFD924905462046FDF732FF6D
:106870000446002D08BF2C467464F464FFF75EBB29
:10688000002180F8481280F80612FF2180F80712D4
:10689000FFF754BB00F5067100F1140212680A609C
:1068A000022128E02821012280F8501280F84B2292
:1068B00080F80C22FFF742BB012180F8491280F8D2
:1068C0000812FFF73BBB00F5047100F114021268D7
:1068D0000A6001210FE0EC697D4F20463946FDF743
:1068E000CFFFFEF7F6FC79E000F5087100F1140225
:1068F00012680A60032180F80D12FFF71FBB012107
:1069000080F8461280F84412FFF718BBEC696F4F0D
:10691000FEF708FD69495FE01A2180F85012FFF781
:106920000DBBF86966493C6BFDF7D4FEFEF7AAFC87
:10693000FEF7CFFC79E0012180F84F1280F80412B5
:10694000FFF7FCBAD9F81C005D49D9F83040FDF7D3
:10695000C1FE5C490546FDF7BDFEFEF7EAFC56495F
:10696000FEF7DCFC4FF04241002E08BF2846C9F874
:106970003000FDF7AFFE4849FDF704FF4749FDF73A
:1069800033FFC9F82800FFF7D9BAD9F81C40504D99
:1069900020462946FDF774FF4749FEF7BFFC4FF03C
:1069A0004241002E08BF2846C9F81C00FDF792FEA0
:1069B0003949FDF7E7FE3949FDF716FFC9F814001C
:1069C000FEF7CEFC002089F80D02FFF7B7BAEC699C
:1069D0003E4FFEF7A7FC3B4906462046FDF77AFEF0
:1069E0004FF04241002E08BF3846E861FDF772FEC5
:1069F0002949FDF7C7FE2949FDF7F6FE6861FEF754
:106A0000AFFC002085F80D02FFF798BAF869294914
:106A10003C6BFDF75FFE28490546FDF75BFE01462E
:106A2000FEF740FC224906462046FDF753FE4FF094
:106A30004241002E08BF28463863FDF74BFE164939
:106A4000FDF7A0FE1549FDF7CFFEB862FFF776BA55
:106A5000FEF701FD0D494163C162FFF723B8FEF760
:106A6000FAFC0A494163C162FFF73AB8002180F895
:106A70004C12FFF717B8002180F84C12FFF730B81E
:106A800000000020002200200001002000007F43C1
:106A90000000C8420000C8C20000A0400000104131
:106AA0000000B4430000A04300008C430000AA4350
:106AB0000000A0C0000014C300002442000080BFFA
:106AC00000005443000024C2CC0100200000C44355
:106AD00000805244240200201848C16941F08051CE
:106AE000C16117490A7842F004020A70C16921F0B5
:106AF0008051C161016841F00101016001688907AD
:106B0000FCD5416821F003014160416811F00C0F90
:106B1000FBD101680B4A114001600021416041F640
:106B20001071C1624FF4801101634FF41F01816045
:106B300005484FF000610160704700BF001002403F
:106B400050700040FFFFF2FE08ED00E02DE9F0413B
:106B5000234D02FB03F4640095F80C62069D012EA0
:106B600006D076B9023DEEB2562E0AD21E4E04E091
:106B7000023DEEB2552E04D81A4EEDB256F825500D
:106B800000E0002502440B44FEF7D7FB174F4FF0FF
:106B9000000814B32846B8EB143F0BD1214603F08C
:106BA00033F80026A64203D2FEF7E2FB0236F9E7ED
:106BB00000200FE04FF4805103F026F80026B6F5D0
:106BC000805F03D2FEF7D4FB0236F8E7A4F58050CD
:106BD0004FF4805425440446DBE7BDE8F08100BF54
:106BE00000220020B8A00008609F00088402002056
:106BF000BCB5154CE06880060CD52068800609D528
:106C00006168124D05F13000C9B202F05BFF4FF42C
:106C10008270A887E068400610D5206840060DD530
:106C20000A4D6FF040000DF10701206005F14000B2
:106C300002F035FF18B1002085F84D00BCBD9DF86D
:106C400007006060BCBD00BF003801407801002033
:106C5000FEE700000648BFF34F8F064A016801F4C3
:106C6000E06111430160BFF34F8F00BFFDE700BF3C
:106C70000CED00E00400FA05B0B54EF60451CEF27A
:106C800000014FF00072EFF3108072B60A6080F3DB
:106C9000108840F20000C2F20000816B4DF6836262
:106CA000C4F21B32A1FB022344F6D352C1F26202AA
:106CB000A1FB0212990C416391090163EFF3108467
:106CC00072B601F04FFD40F20015C2F20005C5E9B1
:106CD0001601BFF34F8FBFF36F8F01F043FDD5E96E
:106CE0001612401AE86440F2781184F310880020EC
:106CF000C2F20001C5E91800C5E91A00C5E91C0087
:106D0000C1E90000C1E90200C1E90400B0BD000012
:106D100010B500EB40010A284FF00702084B28BFCE
:106D20001E3902FA01F14FF00C0238BF1022D4587C
:106D30002143D150596B21F01F010843586310BD06
:106D40000024014002484FF400410160704700BF39
:106D50001410014002484FF400410160704700BF29
:106D60001010014088B110B5104A013000210429EB
:106D700009D000EB810302EB810401311B681BBACF
:106D8000C4F80432F3E7BDE8104070470649074AEB
:106D90000020042806D002EB80030130D3F804322F
:106DA0000B60F6E70868704700300240EC1F0020D7
:106DB00032490A68C2F38103314AF0B5DFE803F0D3
:106DC00002380A380B6D9B0532D5CB6A9B0148BF50
:106DD0002D4A2DE00B688C6A1B0C002C13D40C6818
:106DE0000D68C5F34175C4F383440DB90F2C43D12D
:106DF0002D0101352C44DB0702D00B689B0300D525
:106E0000204A624314E08C6A8D6A8E6ADB071D4B50
:106E1000C4F30314C5F3082506F0070603D00F6872
:106E2000BF0358BF134604FA06F26B43B3FBF2F2FA
:106E30000260164C0B68C3F30313E35C144CDA4096
:106E400042600B68C3F30223E35C22FA03F3C360DE
:106E50000B68C3F3C223E35C0424DA4082600B684E
:106E6000096804EA9363C1F38131194409A3595CA9
:106E7000B2FBF1F10161F0BD0225BBE70410024055
:106E800000127A0000093D00006CDC025C68010819
:106E90006C68010802040608020C08107CB5044660
:106EA00000204FF6FF75C6B20A2E09D8301901F03E
:106EB00029F9ADF80600B01CBDF80610A942F2D1C0
:106EC000BDF806007CBD00002DE9FE4FDFF80CBECA
:106ED0009BF8000001281FD0002841F015809BF886
:106EE0001C00DFF8FC8D013898F8054298F85052E4
:106EF0008BF81C0098F80402844200F006851D2DD2
:106F000040F0D284012800F0C984002840F0CC84ED
:106F10003E243F2000F0C4BCDFF8C49D99F8FF0177
:106F200018B101280AD1F24900E0F249D9F83C0031
:106F3000FDF75AFCFDF7EEFCABF8240099F850027F
:106F40001A2840F08B809BF8020050B900202621BF
:106F5000EA22B72300901D20FDF7CEFE01208BF81A
:106F6000020099F80202002840F0FD80D9F8046080
:106F7000E14D30462946FDF791FCDD4C00281CBF51
:106F80000026C4F2FA3630462146FDF76BFC002895
:106F90001CBF0026C4F2C826BBF824703046214628
:106FA0002A4602F08DFFABF836003846FDF7A0FC0C
:106FB00021460546FDF772FC00281CBF0025C4F2DF
:106FC000C825284600210026FDF74CFC002818BFE4
:106FD000002528462246002102F072FF4EF2284882
:106FE0004FF01F0A0025ABF83800CC2D3AD009EB42
:106FF000050705F11D00009684B297F8601097F818
:10700000613020462246FDF723FE97F82D1197F8B0
:107010002E31204622460096FDF71AFECB2D13D0C6
:1070200097F8623097F8611020462246CDF800802C
:10703000FDF70EFE97F82F3197F82E1120462246C5
:10704000CDF800A0FDF704FE97F86100013587F840
:10705000600097F82E0187F82D01C6E700208BF815
:10706000020080E0BBF83600DFF878AC002448F27C
:107070000F4689F82C01BBF8380089F8F9019F48C0
:1070800083469F488046E0B205283DD8210621D09E
:10709000FDF72EFC9B490746FDF774FB5946FDF7AB
:1070A00019FBFDF737FC26210246B7230096FDF7B2
:1070B000CFFD38465946FDF765FB4146FDF70AFB13
:1070C000FDF728FC01461D20EA2200960B46FDF73D
:1070D000BFFD17E01D202621EA2226230096D04777
:1070E0001D2026211D22B7230096D0471D20B72141
:1070F000EA22B7230096D047EA202621EA22B723C6
:107100000096D0470134BEE7DFF8DC4B0C250FF6C4
:10711000DC3240F25B102821FEF7C9F90FF6D032BD
:1071200040F253103C21FEF7C2F90FF6C83240F28C
:1071300053106421FEF7BBF90FF6BC3240F2531036
:107140008C21FEF7B4F90FF6B43240F25B10B42193
:10715000FEF7ADF90FF6A83240F26310DC21FEF71E
:10716000A6F9DFF878BB9BF80300D8BB0120D9F85B
:107170004410654CD9F814608BF80300D9F804006A
:10718000C9F84C10FEF7E6F8604DFEF7CFF8FEF7B1
:10719000DAF8C9F808003046FEF7DCF8FEF7C6F862
:1071A000FEF7D1F8C9F81C00D9F81002FEF7D2F8A2
:1071B000FEF7BCF8FEF7C7F8C9F82802D9F818029C
:1071C000FEF7C8F8FEF7B2F8FEF7BDF8C9F82C02D2
:1071D000D9F82002FEF7BEF8FEF7A8F8FEF7B3F8DC
:1071E000C9F8300299F8040299F80512814259D081
:1071F000012841D0002855D14C46434954F8140F7A
:107200008846FDF7BFFA41498A46FDF7EDFAFEF7D9
:107210009AF82546A060414655F8100DFDF7B2FAE0
:10722000FEF700F9FEF78FF844F80C0CD4F8FC01D7
:10723000D4F80472D4F80C624146FDF7A3FAFEF7C5
:10724000F1F8FEF780F8C4F8140238464146FDF71D
:1072500099FAFEF7E7F8FEF776F8C4F81802304618
:107260004146FDF78FFAFEF7DDF8FEF76CF8C4F83B
:107270001C0204F1140005E009F1080509F13000D1
:1072800009F11C04DFF8041D09F5047609F50872FC
:1072900009F50673C1E90444C1E90605C1E90856C8
:1072A000C1E90A3299F850021A2800F29E800121A1
:1072B000174A8140114200F0988099F80D1299F810
:1072C0000E02884256D003280BD0022805D0012890
:1072D00020D1362000903A2006E03720009082200E
:1072E00002E038200090CA20FEF747F823E000BFF4
:1072F0000000C842000034420000FA430000E841A8
:107300000000184200002442000010410000A0408C
:107310000C0000043620DFF8784CFEF774F83A20B1
:10732000A0473720FEF76FF88220A0473820FEF7ED
:107330006AF8CA20A04799F80D0203280BD002284A
:1073400005D001280CD1392000903A2006E03A20DF
:107350000090822002E03B200090CA20FEF70DF84A
:10736000D448FDF794FF00208BF8090099F80D022E
:1073700089F80E02B8B3D9F81400D9F81052FDF705
:10738000C9FA04462846FDF7C5FA84420BD0D9F85D
:107390001802FDF7BFFA844205D0D9F82002FDF7A4
:1073A000B9FA844216D1D9F81C00FDF7B3FA0446A5
:1073B000D9F82802FDF7AEFA844214D0D9F82C028D
:1073C000FDF7A8FA84420ED0D9F83002FDF7A2FAF0
:1073D000844208D09BF8090028B9B648FDF757FF4A
:1073E00001208BF8090099F850021A287DD8012154
:1073F00001FA00F0B049084277D0D9E98440FDF79E
:10740000A6FF30B1D9F82812D9F83402FDF762FA94
:10741000D8B9FEF72EF804D088B9DFF8700B406AAF
:1074200001E009F50A70FDF772FF02461020FEF731
:107430002FF84F20CD21FDF7BBFDD9F81042D9F828
:107440002802C9F81442C9F83402D9E98640FDF788
:107450007EFF30B1D9F82C12D9F83802FDF73AFA8C
:10746000D8B9FEF706F804D088B9DFF8200B806A97
:1074700001E009F50B70FDF74AFF02461020FEF708
:1074800007F89720CD21FDF793FDD9F81842D9F8D8
:107490002C02C9F81C42C9F83802D9E98840FDF726
:1074A00056FF30B1D9F83012D9F83C02FDF712FA84
:1074B000D8B9FDF7DEFF04D088B9DFF8D00AC06A7A
:1074C00001E009F50C70FDF722FF02461020FDF7E0
:1074D000DFFFDE20CD21FDF76BFDD9F82042D9F882
:1074E0003002C9F82442C9F83C029BF8040099F81C
:1074F000441298B901290BD069B999F8FE01012805
:1075000009D899F8FF210220012A08BF032000E0D2
:107510001A2089F8500201208BF8040099F85002D3
:10752000002944D099F85122824234D06149FF2485
:10753000009000204FF4A072D623002589F80E4257
:1075400089F8454289F8054289F8094289F80042DC
:1075500089F8FD41C9F81412C9F84810C9F8341067
:10756000C9F82C10C9F80C10C9F81810C9F81C1269
:10757000C9E98D11C9F83C12C9F824121A21FFF784
:10758000E5FA99F8500299F844128BF81C508BF8E0
:10759000054089F8510299F845228A4229D01B28D2
:1075A00027D1C1B1012921D13E243F2015E01A285D
:1075B000B8D80122404B82401A42B3D099F8FE213C
:1075C000012AAFD899F8FF210220012A08BF032021
:1075D00089F85002A6E73F243E20FDF738FEFDF76C
:1075E0007DFE99F8441299F8500200E01B2089F8BA
:1075F000451221280FD199F80602012803D0B8B905
:107600003E243F2001E03F243E20FDF720FEFDF711
:1076100065FE99F850022A280BD19B205621FDF7D0
:10762000DBFE9B208821FDF7D7FE99F8500200E091
:10763000212099F8081299F809228A4217D02328A4
:1076400015D199F84902012803D068B93E243F209A
:1076500001E03F243E20FDF7FAFDFDF73FFE99F8DB
:10766000081299F8500200E0232089F809125221EB
:10767000142818BF162818D100917520B821582257
:107680002223FFF763FA99F850022E2804D14A20EA
:10769000FDF715FE99F850021F2814D199F84702FA
:1076A00060B101286DD14A2009E01828EDD153219D
:1076B000E2E700BF00007F430C0000044B20FDF711
:1076C000A7FE99F8500225280BD199F84A0218B163
:1076D000012856D14A2000E04B20FDF799FE99F889
:1076E00050022C2814D199F84C0220B1012848D11D
:1076F0004F244A2001E04E244B20FDF789FE8420D0
:10770000842138221E230094FFF720FA99F85002B2
:107710002E2809D14F20842138221E230090842056
:10772000FFF714FA99F85002302801D02A2804D122
:107730004B20FDF7C4FD99F8500200F0FE0002282E
:107740001FD199F8FC0199F8FD11814219D098B91F
:10775000322044217822FDF769FBFA205C211022B7
:10776000FDF764FB40204B219622722300905F209E
:10777000FFF7ECF999F8FC01012189F8FD0189F87E
:10778000581099F8020299F80312814206D1881E16
:10779000032849D8DFE800F01E2A1236012189F8B3
:1077A0000302052889F858103ED8DFE800F0033DB1
:1077B000131F072BFF2089F8510235E0FDF77BFEF0
:1077C00004D14620FDF73CFD99F850021A282BD130
:1077D000462022E0FDF76FFE04D14220FDF730FD88
:1077E00099F850021A281FD1422016E0FDF763FED7
:1077F00004D14420FDF724FD99F850021A2813D132
:1078000044200AE0FDF757FE04D14820FDF718FD9B
:1078100099F850021A2807D14820009041203721BA
:107820008B227623FFF792F99BF80100012802D101
:1078300099F8072216E0572000214FF4A0721A236E
:1078400000900020FFF782F940F20910082143F26E
:1078500086120C23FDF78CFCFF2201208BF801001F
:1078600089F8072299F8061200208A4200F04A831C
:1078700099F85022212A00F045833D20012908BFB4
:107880003C200090F720032113221523FFF75EF917
:1078900099F8060289F80702002033E33F243E20CE
:1078A000FDF7D5FCFDF71AFD98F8FC0138B3FDF79C
:1078B0005BFD05D018BBFDF718FD0BD2342003E0AB
:1078C000FDF713FD0AD235200090FA20582113222B
:1078D000162312E01F2812D1322402E01F280ED1F5
:1078E0003324E1205A21122212230094FFF72EF9AB
:1078F000E1208121122212230094FFF727F998F842
:10790000044298F8505288F8054298F8FC612EB964
:107910001A2D1CBFD8E90101C8E903019BF91C001D
:107920005F46002818DD98F8FF0198F80012BB4662
:10793000814200F0B48098F8501201F0FE01022953
:1079400040F0AD80012800F08F80002840F09C803E
:107950001020DFF848268AE0012C20D1D8F804B0A6
:10796000D849D8F824905846FCF70CFFE549FCF7B5
:107970003BFFFDF7E8FC8246C8F8080048460021B6
:10798000FCF7A8FF002840F0DC80CE494846FCF711
:10799000F9FEDC49FCF728FFFDF7D5FC05E0D8F837
:1079A0002490D8E901BA89F00040FCF7B3FF3946CA
:1079B00038723220012D08BF0A201A2D08BF0A2074
:1079C00008775946D8F80C00FCF784FF30B1D8F896
:1079D00010005146FCF77EFF0028A4D1A81EC8E97C
:1079E00003BA022831D246F0020003289BD198F84E
:1079F0000802002800F0A780012894D15846494683
:107A0000FCF7BAFED8F81460BF4981463046FCF74F
:107A100061FE01464846FCF741FFBC490546304639
:107A2000FCF758FE002D40F08E8001464846FCF7DA
:107A300019FF002840F08780002C00F07F82012C85
:107A40007FF471AFD8F81C00E0E01A2D7FF46BAF23
:107A500098F8FE01012840F08080002C00F056824A
:107A6000012C00F0C3805EE710200FF22852009036
:107A70004FF48C70B4214FF6FF73FDF7E2FA98F8DB
:107A8000FF0188F800020AE01020DFF81025B42179
:107A90004FF6FF7300904FF48C70FDF7D2FA9BF80D
:107AA000060088B1FDF721FC27D31A2837D01F28FC
:107AB00040F0CD8098F80402002876D0012840F0EC
:107AC000C680D8F81C0072E0D8E90510FCF702FF68
:107AD00058B1D8E90710FCF7FDFE30B198F8FC0169
:107AE00098F8FD11814200F0D680012064218BF8C6
:107AF0000600DFF898048181CDE09BF8070000289C
:107B000040F0A58001208BF80700FDF72DFC59D02F
:107B1000002840F09480DFF87404006954E09BF87A
:107B20000700002840F0938001208BF80700FDF744
:107B30001BFC77D0002840F08280DFF850044069B9
:107B400072E0394635E7002C57D0012C7FF4EBAEBC
:107B5000FDF756FC0146504656E098F80802C0B3BF
:107B600001287FF4E0AE58464946FCF705FED8F8F8
:107B70001490654906464846FCF7ACFD0146304680
:107B8000FCF78CFE614905464846FCF7A3FD05BBA2
:107B900001463046FCF766FED8B9012C00F0D981C9
:107BA000002C7FF4C0AE4846B3E1D8F81400FCF7CF
:107BB000B1FE02461820FDF76BFCBE205821FDF7F0
:107BC000F7F944E008F11C00FDF7A1FBFDF792FB7B
:107BD00031E0012C0AD0002C7FF4A5AEFDF710FC9B
:107BE0000146DFF8A803006A006803E0FDF708FC1F
:107BF00001465046FCF76EFD8BE1FDF701FC0146A6
:107C0000DFF88803C0690068FCF764FDFCF782FEBA
:107C10000246782000214FF6FF73CDE90010442082
:107C200044217FE108F11C00FDF771FBFDF71CFB0F
:107C3000FDF7E1FB5A214FF4FC63FDF7B9F9D8F8E1
:107C40001400D8F81C10C8F81800C8F82010CF4E3F
:107C5000B089471ED8E90550B7812946FCF73AFE9E
:107C600030B1D8E90740FDF772FB002840F0E18011
:107C7000FDF77AFB0AD1C3492846FCF783FDC249C8
:107C8000FCF7B2FDFDF75FFBC8F81C006420B08173
:107C900000208BF80700DFF8F49299F8040001380F
:107CA00089F80400000640F08E80642089F8040002
:107CB00098F8FF01012807D050BBD8F83C00AF4925
:107CC00005E000BF00001041D8F83C00AC49FCF7CB
:107CD0008BFD0446CBF840001CE000BF00010020F3
:107CE00000220020514C00084350000825000000ED
:107CF00031303000373500003530000032350000BB
:107D0000300000000000A0400000A0410000A0C121
:107D1000DBF840402046FDF7FDFA10B90024CBF80F
:107D200040509BF80500FCF7E3FD01462046FCF7B8
:107D3000D1FD002847D198F8500200F0FE0002283B
:107D40003DD1FDF76CFB42F2E4016228009128BFAF
:107D50006220052898BF052083212522C0F16400F8
:107D60004843642180B2B0FBF1F51820282105F1C9
:107D700027042346FCF7C0FF562021460C220B2384
:107D800000901820FEF7E2FE43F69F5005F1320105
:107D90002422AF2300901820FCF7AEFFDBF8400050
:107DA000FCF7B8FD0246102000214FF6FF73CDE925
:107DB00000100820BE21FDF7FBF8DBF84040FDF77E
:107DC0002EFB8BF8050098F8500208F1300408F1FA
:107DD00028061F281BD1D8E90A10FCF77BFD20B12B
:107DE000D8E90C10FCF776FD90BB98F8470208F133
:107DF000340508F12C0798B1012818D1FDF7B4FA21
:107E000028D0A0B9D9F818004FF4FC6929E008F18E
:107E10001C0108F114022546374616460C462FE091
:107E2000FDF7A2FA1AD010B9D9F8180017E01F20F0
:107E300026E038047FF42FAFFDF757FA75D298F893
:107E4000040200287ED0012840F0938020467BE089
:107E500000251DE04FF4FC69204602E020464FF665
:107E6000FF79FDF754FA0246182043F286114B467B
:107E7000CDE90010BE207F21FDF79AF898F8500256
:107E800031682538B0FA80F03960216829604509E9
:107E9000D8E91140FDF75BFA88BB85B398F84A0230
:107EA000012803D038B94FF6FF7101E04FF4FC61AF
:107EB0002046FDF7E1F83A4D00244FF0180943F24F
:107EC0008616BE27042C16D0611EC8B2022810D810
:107ED000C90004EB44004FF6FF73CDE90069C9B255
:107EE00007EB800025FA01F180B2CAB26B21FCF7E2
:107EF000CFFF0134E6E7D8F84400C8F848009BF803
:107F0000000001308BF80000BDE8FE8F1F48006ABA
:107F10000068FCF7FFFCFDF7A7F94EF22843FDF7D8
:107F20006AFAA221FDF744F8FDE41A2821D198F855
:107F3000040288B101281CD120460FE013480069D3
:107F4000006863E630690068FCF7E4FCFDF7D2F9ED
:107F50000BE0D8F81C00DCE770690068FCF7DAFC7D
:107F6000FDF782F9FDF747FA5A214FF4FC63FDF75C
:107F70001FF80020ABF806008DE600BF0000344279
:107F80000000C842000010410000A0400000002096
:107F90004D6B00085332343500000000746801084E
:107FA0004D696E0002684BF6EF731A4002600A8951
:107FB00003681A4302604A7C036802F0030223F458
:107FC000405343EA02320260CA7B036802F00302B4
:107FD00023F4406343EA822202608A7B036802F052
:107FE000030223F4407343EA022202604A7B0368DF
:107FF00002F0010223F0800343EAC21202600A7B0E
:10800000036862F3861303600A7C036862F3451316
:1080100003604A8942600A6882604968C1607047AB
:10802000016821F00101016000210160416081606F
:10803000C16040F2FF4100EA01020B49B2F5816FD5
:1080400004D3D208902A0ED801F5806100F0FC001C
:1080500014220838B0FBF2F00F22800002FA00F080
:108060000A68104308607047040002400448017821
:1080700009B90121017003484AF6AA21016070473D
:10808000841A00200030004050B100220023282B29
:1080900002D0C2500433FAE780F82C10002181622C
:1080A0007047000010B52B4C226842F0010222609C
:1080B00001804FF4801000F017F8FDF763B900BF9E
:1080C00008480168C9071CBF0020704701684907BC
:1080D00044BF012070470068C0064FF0020058BF3F
:1080E000032070470C200240B0B50446FFF7E8FFBC
:1080F0000025013C45F1000118B911B1FFF7E0FF7F
:10810000F7E7B0BD81B00168D0F801008DF800102C
:108110008DF801009DF801009DF8001041EA002053
:10812000ADF80200BDF8020001B0704710B5094C6F
:10813000216841F0020121606060206840F0400049
:1081400020604FF08040FFF7CFFF206820F0020052
:10815000206010BD102002402DE9FE4FDFF850B71F
:108160009BF80A00032800F29680DFE800F00296F0
:1081700009759BF80B00002800F04881012041E1BF
:10818000B848DFF8DC55B84900F10A0481469BF88D
:108190000F00884610F0010708BF01F10804D5F868
:1081A0001002FCF7B7FBDFF87464FDF74AF909F138
:1081B0000C04002F08BF08F10A04D5F81802FCF7D8
:1081C000A9FBFDF73EF909F10E04002F08BF08F1E5
:1081D0000C04D5F82002FCF79DFBFDF732F909F1FC
:1081E0001004002F08BF08F10E04686CFCF792FB26
:1081F000FDF727F909F11200002F08BF08F1100060
:1082000095F84412B04709F11400002F08BF08F197
:10821000120095F80C12B04795F844028BF80E0046
:1082200095F80C02ABF83000D5F81002FCF772FBA1
:10823000ABF82A00D5F81802FCF76CFBABF82C0061
:10824000D5F82002FCF766FBABF82E00686CFCF753
:1082500061FB8BF80D00D2E082489BF80F20824929
:108260001630D20708BF01F11400BBF83210FFF737
:1082700019FF7E48C16841F08001C16001208BF880
:108280000A00BBF832000130ABF832009BF80F0057
:1082900001308BF80F00BDE8FE8FBBF82600FCF71D
:1082A00027FBDFF8BC840146D8F81400FCF712FB6A
:1082B00000284FD0BBF82800FCF71AFB0146D8F87D
:1082C0002400FCF707FB002844D098F804029BF830
:1082D0000C1081423ED1D24898F8061242798A4267
:1082E00038D198F808128079884233D19BF80D0074
:1082F000FCF7FEFA0146D8F84400FCF7EBFA48B365
:10830000BBF82A00FCF7F4FA0146D8F81002FCF793
:10831000E1FAF8B1BBF82C00FCF7EAFA0146D8F80C
:108320001802FCF7D7FAA8B1BBF82E00FCF7E0FA68
:108330000146D8F82002FCF7CDFA58B198F844026B
:108340009BF80E10814205D198F80C02BBF8301052
:108350008142A0D0B048B349E64E0160B2493446EC
:1083600001609BF80F0010F0010708BF04F580645E
:108370002046FFF7DBFED8F81400FCF7CBFAA74D38
:1083800001462046A847B41C002F04BF4FF6024404
:10839000C0F60304D8F82400FCF7BCFA01462046D6
:1083A000A847301D9B4C002F08BFA01C98F8041252
:1083B000A847B01D002F08BF201D98F80612A84737
:1083C00006F10800002F08BFA01D98F80812A84762
:1083D00098F804029249D8F824408BF80C0098F8D9
:1083E0000602487198F808028871D8F81400FCF762
:1083F00091FAABF82600FDF712F8ABF828009BF8CD
:108400000A0001308BF80A00BDE8FE8FB94C204607
:10841000FEF744FD4FF6FF75A84211D004F58060C9
:10842000FEF73CFDA8420BD004F11600FFF76AFEF0
:10843000044678481430FFF765FE844205D80DE005
:108440002046FEF72BFDA84202D000F023F928E0D9
:1084500004F58060FEF722FDA84209D000F04CF937
:108460001FE000BF00F8030802FC030804200240DC
:10847000BB486F4A6D49C0F818226E4AC0F82012F6
:108480004161C0F81022012280F8082280F80622FB
:10849000002280F80422426280F84422426480F87C
:1084A0000C22AF4F64497C69FCF7FCFE18B96349A4
:1084B000FCF70CFF08B95D4C7C6197F80402604939
:1084C000022824BF002087F8040297F80662022ED3
:1084D00024BF012687F80662019097F808A2BAF136
:1084E000020F24BF4FF0010A87F808A2D7F8448092
:1084F0004046FCF7E1F920B940460021FCF7CEF9EF
:1085000018B94FF00008C7F8448097F80A0202280B
:1085100024BF002087F80A0297F80B0210B1002050
:1085200087F80B02D7F8249046494846FCF7C4F96F
:1085300020B945494846FCF7B1F918B94FF0000990
:10854000C7F824900294D7F810423B49FCF7AAFEE2
:1085500018B93A49FCF7BAFE10B9364CC7F81042C0
:108560000094D7F818423449FCF79CFE18B93349F7
:10857000FCF7ACFE10B92E4CC7F81842D7F82052C1
:108580002D492846FCF798F920B92C492846FCF7D4
:1085900085F910B9254DC7F8205297F844020228F2
:1085A00024BF002087F8440297F80C12022924BF48
:1085B000002187F80C128BF80E00ABF83010019AEE
:1085C00001208BF80B0087F8530248468BF80C20EB
:1085D000134A82F806A05671FCF79CF9ABF8280004
:1085E0000298FCF797F9ABF826002846FCF792F9B9
:1085F000ABF82E00FCF713FFABF82C000098FCF74B
:1086000089F9ABF82A004046FCF784F98BF80D0095
:10861000BDE8FE8F02FC030804200240A58000088C
:108620000000002023016745AB89EFCD0000BE4369
:108630000000AF430000A0430000E14300004843B6
:1086400000C079440000C8420000C8C210B5074C01
:108650000749206840F001002060994801604FF40C
:108660008010FFF741FDFCF78DBE00BF10200240D7
:10867000384B544180B5FEF74BFB0548816841F407
:108680008001816001688907FCD5C06C80B280BD23
:108690000024014070B5174C304D2046A847FCF728
:1086A00027F92F4E7061A01CA847FCF721F97062D2
:1086B000201DA84786F80402A01DA847FCF787FEE6
:1086C000FCF780FEFCF714F9FCF777FEFCF710F9D5
:1086D000FCF76EFEFCF70CF9FCF75EFEFCF708F900
:1086E000706404F11200A847FCF751FE86F80C02F2
:1086F00070BD00BF00F8030870B5174C174D204639
:10870000A847FCF7F5F8164E7061A01CA847FCF7C7
:10871000EFF87062201DA84786F80402A01DA84744
:10872000FCF755FEFCF74EFEFCF7E2F8FCF745FEC1
:10873000FCF7DEF8FCF73CFEFCF7DAF8FCF72CFE61
:10874000FCF7D6F8706404F11200A847FCF71FFE8E
:1087500086F80C0270BD00BF00FC0308058100080C
:108760000022002010B54EF21403CEF20003EFF306
:10877000108C72B618685968D3F8F02C401A4FF074
:10878000000E6EF1000152010BD518685968401AAD
:1087900019686EF10002401842F10001013041F108
:1087A000000140F20012C2F20002D2E9182340F2A6
:1087B000781EC2F2000E8018DEE900245941821AA8
:1087C00071EB040204DADEE900018CF3108810BDBD
:1087D000CEE900018CF3108810BDF0B58B790A88C2
:1087E000032B0AD05BB94979282913D0182912BF65
:1087F00001F00F01026108210EE000210CE00C796C
:10880000C97903F0080304F0040401F003012344D0
:10881000194401E042610821130616D000230F24F9
:108820000025082D11D022FA05F6F6070AD00768B0
:1088300004FA03F627EA0606066001FA03F607685B
:108840003E43066004330135EBE7B2F5807F17D372
:10885000120A00230F240025082D11D022FA05F654
:10886000F6070AD0476804FA03F627EA06064660C8
:1088700001FA03F647683E43466004330135EBE7EF
:10888000F0BD00000A48807F022818BF704710B56D
:10889000084C09482060094820600948FFF746FC59
:1088A000FFF7D4FEE06840F08000E06000F0C6FE14
:1088B000000100200420024023016745AB89EFCD71
:1088C0000038000800B3B0B54B241425447403F1FC
:1088D0001304002B18BFB4FBF5F3C37402F11303A8
:1088E000002A18BFB3FBF5F2827401F113020029CC
:1088F0000B4618BFB2FBF5F303741A06BDE8B0408F
:1089000002D109B1012101747047000088B05D48AF
:108910005D4E5E4F00F500607060386840F0010009
:10892000386038688007FCD5786820F003007860EC
:10893000786810F00C0FFBD138685549084055494C
:1089400038600020786041F61070F8624FF48010B3
:1089500038634FF41F00B86014200860786A40F054
:1089600001007862786A8007FCD5386840F480306E
:10897000386000203968890304D4411CB0F5405F99
:108980000846F7D3386880034FF00000F2D5386806
:1089900040F00100386038688007FCD578684821CD
:1089A00040F480307860786820F400307860F86AAD
:1089B00061F310200121F862F86A61F307100221C7
:1089C000F862F86A61F30200F862F86A40F0004069
:1089D000F862386840F08070386038688001FCD5F3
:1089E0007868042120F0F0007860786861F3CD2089
:1089F0007860786861F30A2002217860786D40F031
:108A000030007865786861F3010078607046FCF7A3
:108A100034FD86467046FCF730FD8646786800F0E7
:108A20000C000828FAD1786D20F03000786578685D
:108A3000C0F381011848022909D000294BD1796D72
:108A4000890548D5396B890148BF144843E07968E6
:108A5000FA6A090C002A25D47A687B68C3F341734B
:108A6000C2F3834213B90F2A40F089851B010133F9
:108A70001A44C90702D07968890300D508485043D1
:108A800029E000BF0038000804ED00E000100240BB
:108A9000FFFFF2FE0020024000127A00006CDC02B0
:108AA00000093D00FA6AFB6AFC6AC9070449C2F37F
:108AB0000312C3F3082304F0070407D002E000BF49
:108AC00000093D007D68AD0358BF014602FA04F07D
:108AD0005943B1FBF0F0DFF8B83ADFF8B82A4FF0AD
:108AE000000A4FF00408FB4C98637968C1F3031146
:108AF000515CF94AC840914698630223786940F076
:108B000001007861786940F040007861B86940F010
:108B10000100B861B86940F00400B861B86940F07C
:108B20000800B861B86940F01000B861B86940F059
:108B30002000B861B86940F08000B861B86940F4BD
:108B40000070B861B86940F48050B861B86940F409
:108B50008040B861F86940F00100F861F86940F0C0
:108B60000200F861F86940F48040F861DB48115870
:108B700063F3124111504FF6FF014FF0FF32B0681E
:108B80000840D7490843B060B06886F814A0B068C0
:108B900086F815A0B06886F816A0B06886F81BA005
:108BA000B06886F81CA0B06886F81EA0B068C0F354
:108BB0000220C11E80F0070038BF5146042828BF9C
:108BC000404602FA00F0C04388400001F077B068E8
:108BD000C44880F800A02020C4F8F40001A8FEF7E3
:108BE000E7F82068DFF8B0B940F0040020604FF4E7
:108BF0007A700299B1FBF0F001386060C4F808A007
:108C0000206840F003002060B74802904FF4104005
:108C1000019001AD48462946D847B449C020ADF877
:108C20000980019001F540600E462946D847B04CB6
:108C30004FF45E702946ADF8098001902046D84770
:108C40004FF40041AB4A30464FF4C058A146716121
:108C500040F61416A650C4F81480A74CCDE90114B0
:108C60002946D847CDE901649B4E29463046D8476E
:108C700048462946CDE90184D8474FF4C0404FF417
:108C80004174294601909948ADF80940D847012020
:108C900029464FF00108ADF8094001903046D84709
:108CA00040F284402946ADF8094001904846D84733
:108CB000924C2046FFF7B4F940F20110CDF80CA019
:108CC000CDE901AAADF814A004904FF48040ADF8AE
:108CD0000C0001A92046FFF765F9C4F804A0C4F808
:108CE00008A0C4F80CA0864DB146206840F00100F1
:108CF00020604FF400700795069006AC3046214680
:108D0000D8474FF48060214606907E48079006467B
:108D10004846D84701A8FEF74BF803987A4A4FF423
:108D2000E1314FF6FF7300EB80004000B0FBF2F240
:108D3000B0FBF1F102EB8200A1EB40000428734884
:108D400088BF013250F8041C9943114440F8041CB8
:108D5000016821F480510160416821F44051416073
:108D6000016841F008010160016841F004010160FF
:108D7000016821F400710160016821F480610160E3
:108D8000816821F480718160816821F400718160C3
:108D9000016841F020010160016841F0400101607B
:108DA000016841F40051016020200295019001AC5E
:108DB00048462146D84740202146CDE9010648468D
:108DC000D84780202146CDE901054846D847504C78
:108DD0008DF81F8040F201184FF48079FCF742FBB8
:108DE00006A9204600F09AFE2068414E40F040005F
:108DF00020604FF400500295019001AC30462146AE
:108E0000D8474FF48040214601903E4802903046BA
:108E1000D8474FF400402146CDE901053046D847F8
:108E20003C4C0125FCF71EFB8DF81F5006A904F5EC
:108E3000006000F073FED4F8000840F04000C4F871
:108E40000008354802900220019001AC22482146DA
:108E50008046D8470320214601950125B2468DF86A
:108E60000A003046D84778682C4C65F38F3078601C
:108E7000786820F080507860206840F4000020601E
:108E800054F8040C20F4807044F8040C206820F09E
:108E900002002060206820F400602060606A20F4F6
:108EA000700060620820FDF733FF206820F000703A
:108EB0002060206840F460202060206840F480102A
:108EC000206054F8040C20F4006044F8040C00F016
:108ED00027B800BF10E000E00008014030F8FFFFB5
:108EE0000003FA0525E400E0000400010010014041
:108EF000000C014014FCFFFF0004100208000240B7
:108F00000004080200040002009411000C38014023
:108F100000300140003000400004030108240140FB
:108F2000206840F001002060206840F008002060C8
:108F300020680007FCD4206840F00400206020680E
:108F40004007FCD4E34F082001904046029701A956
:108F5000FFF743FC4FF08046DF4C4FF001094FF024
:108F6000000B306820F070003060306820F44070F2
:108F70003060306820F08000306042F20F70A062F4
:108F800040F21F106062206940F0010020616068BB
:108F900020F080006060206820F0700020600720D2
:108FA000ADF81D90CDF819B08DF8180006A94FF056
:108FB000804000F0ADFEC4F83CB0A06920F4006031
:108FC000A061A06920F48060A061306840F00100D9
:108FD0003060A06840F00100A0600220CDE90107E8
:108FE00001A95046FFF7F9FBD4F8FC03BB4E20F073
:108FF0007000C4F8FC03D4F8FC0320F44070C4F8FB
:10900000FC03D4F8FC0320F08000C4F8FC0341F218
:10901000F7107062C6F820B0F06840F00100F06010
:10902000306820F080003060D4F8000420F0700038
:10903000C4F800040620ADF81D908DF818004FF418
:109040008030CDF8190004F57F7006A900F060FEAD
:10905000C6F838B04FF0FF31DFF84825DFF8483563
:10906000DFF85075DFF83459706920F400607061E2
:10907000706920F480607061DFF83465D4F8FC0317
:1090800040F00100C4F8FC039548DFF820458160FA
:10909000016821F0180101609249C160016821F066
:1090A00060010160016821F080010160016841F008
:1090B000010101608C4945F255500860486820F074
:1090C00007004860092088604AF6AA200860DFF897
:1090D000EC0DDFF8CC14C5E90667C5E9084380F854
:1090E00084B0C0E90067C0E90243C0E90421DFF8A9
:1090F000C804C5E90A216421A0472A6ADFF8BC0434
:109100000A2190472A6ADFF8B804052190472A6AA5
:10911000DFF8B004012190472A6ADFF8AC0401218E
:1091200090472A6ADFF8A404C8219047DFF8A044DA
:1091300001212046FEF7A8FF04F130000821FEF7C8
:10914000A3FFDFF890046949694A6A4C4FF07E53E7
:10915000DFF88464C0F820B0C0F81CB0C0F814B0C8
:10916000C0F810B0C0F80CB0416281626249C0F82A
:109170004CB0C0F848B0C0F840B0C0F83CB0C0F83F
:1091800038B00165C0E9004382605C4A5C4CC0E9CC
:109190000B43426341655B484FF400644AF800406A
:1091A000C820B0477820C8F81040B047DFF82C44FA
:1091B0001120A0477820B0473620A0473620A0478E
:1091C000DFF81C647020B0473A20A0470520B04764
:1091D000B220A0470C20B0470C20B0470020B04779
:1091E0003320B0473320B047B720A0473520B047E1
:1091F000BB20A0471920B047C020A0472C20B04773
:10920000C220A0470120B047C320A0470D20B0478F
:10921000C420A0472020B047C620A0470F20B04759
:10922000D020A047A420B047A120B047E020A0470D
:10923000D020B0470020B0470520B0470F20B047EE
:109240001020B0472820B0473420B0475020B04706
:109250004420B0473A20B0470B20B0470620B04723
:109260001120B0472020B047E120A047D020B047D0
:109270000020B0470520B0470A20B0470B20B04778
:109280001620B0473220B0474020B0474A20B047B0
:109290002B20B0471B20B0471C20B0472220B047EE
:1092A0001F20B0472120A0472920A047CD4905F124
:1092B000300000F0E5FBCC4905F1400000F0E0FB98
:1092C000B648CA4900F500602865AE4802688A427F
:1092D00025D119E000040802040000400804004001
:1092E00008300240B71DC1040030004000A08C458A
:1092F000000020410000484200401C460000A04001
:109300000000484314FCFFFFB949A04C6160B94913
:109310006160FEF70BFF206940F0800020610020B3
:1093200000214FF4A072F023CDF800B0FBF7E4FC6D
:10933000FBF79FFFFBF79DFFAF4C0220AF4E4FF4B2
:10934000CD71B92284F8FC0140F20120C4E909BBC7
:10935000A4F854B0C4F84CB0C4F844B0E6616661F7
:10936000C4F804B084F800B084F857B0C4F830B042
:10937000C4F838B0A4F801B2A4F8FE0104F160000A
:10938000FBF782F99E48804A4FF0007184F84092C2
:1093900084F80CB2A4F80AB284F8089284F8069211
:1093A00084F804B284F852B2C4F8206284F80FB290
:1093B000A4F80DB284F844B2A4F853B2C4E90FBBC8
:1093C000DFF8CCA1C4F818028E48C4F8100240F2AD
:1093D0000110A4F85002EFF3108072B611608A49B0
:1093E00080F31088DAF83800B0FBF1F1CAF83410D5
:1093F0004FF47A71B0FBF1F0CAF83000EFF310844B
:1094000072B6FFF7AFF9DFF8348BC8E91601BFF386
:109410004F8FBFF36F8FFFF7A5F9D8E91612DFF86A
:10942000EC91401A8021C8F84C00794884F31088E8
:10943000C8E918BBC8E91ABBC8E91CBBC5E900BB31
:10944000C5E902BB89F800B0C5E904BBFBF723F905
:10945000704A4FF6FF76182141F2210389B1147842
:1094600086EA04266FF0070444B137B27000002F7B
:1094700048BF83EA460006460134F5E70139013268
:10948000ECE7D9F820006449884218D1B9F80210F5
:10949000B0B2814215D1D9F81C00411CC9F81C108A
:1094A000A0B15E490020B0F5806F21D00A18D368C2
:1094B0005C0144BF23F04063D3601030F3E7C9F888
:1094C00020100120A9F80260C9F81C0053480024AC
:1094D0004FF48061C9E90144C9F80C4089F80140A2
:1094E000FBF7D9F8DAF83800C9F81840C9E90440A0
:1094F0004B4C00200021FE22A0470F20EF21EF223D
:10950000A0470420FE21FE22A047FBF7B7FA454CF6
:10951000D9F81430D9F81C2001462046FBF7DAFAB6
:1095200099F8000050B9012089F80000FBF7A6FA6D
:109530000146601C00220023FBF7CCFADAF8300069
:10954000D8F84C2040F6B8315B2AACBFD8F84C2094
:109550005A22A0FB0110D317541A83410CDA8C1A3B
:1095600060EBE276FFF7FEF824184E41FFF7FAF8B9
:10957000001B71EB0600F9DBE8698047FCE702237A
:10958000FFF776BA0038000804ED00E00020024042
:10959000000000205C680108DB8700080030014003
:1095A000459E0008719E0008B19D0008859D000839
:1095B000A19E0008119E00086D80000885880008A3
:1095C00059810008C96E0008E99700084196000813
:1095D00024020020CC010020259F0008D151000862
:1095E000E95100088412002084160020384B5441B1
:1095F00023016745AB89EFCD002200200000BE4368
:109600000000AF430000A04340420F00401F002075
:10961000C01E002010A200086B27A5E1C01A002080
:10962000C14B000800FF00030121020604BF0846E9
:10963000704701EB810101384900F6E7FDF70AFBAD
:10964000F8B55F48D04A0168C9050DD4917E002362
:10965000D37601319176C9B202291AD3594C01212E
:10966000937684F8FE1113E0D37E002191760133C6
:10967000D376DBB2022B0CD3547E524BD176012C25
:1096800083F8FE1104D1FF2183F805120021117720
:1096900051760168090705D50168C90602D4012180
:1096A00000270AE00168090702D40168C90602D44C
:1096B0000221012701E000270021424E86F8FF1118
:1096C0000021006840064FF0000007D4AE490A7E32
:1096D00001320A76D1B2062904D3012186F801129B
:1096E000A949087696F8FC01012821D17468364909
:1096F000FBF7D8FD0546002818BF012509D13349DD
:10970000FBF7E4FD002887F0010118BF01200842A3
:109710000ED1B6F854000130A6F8540080B20A28E1
:109720000FD31FB92A49FBF7BDFD78B3052006E02A
:1097300096F802120020A6F85400042901D086F8F9
:1097400002029148234D817C21B90121817441F2AB
:109750002B002860346C2049FBF7B8FD50B91F4935
:10976000FBF7A0FD50B91E49FBF7B0FD30B141F247
:10977000111001E041F29B102860F8BD1949FBF778
:10978000A5FD0028F9D141F22B00F5E7104920464C
:10979000FBF776F8002818BF0120054201D003200E
:1097A000CDE70A49FBF792FD0028CAD196F8FE01E1
:1097B0000028C6D196F802020428C2D00220BEE7D3
:1097C000080C014000220020008009440000704283
:1097D00000002F4440040040000048420000344292
:1097E0000000204200000C422DE9F843664D687FDE
:1097F00001306877C0B205285FD3DFF8908198F810
:10980000000001283CD0002855D1614F0A200026D5
:1098100087F808010220C7F80961C7F80D61A7F8A9
:109820001161A7F806015B48C7F8020107F58170CE
:10983000FDF798FAFDF7AAFAA8645748DFF85C919B
:10984000016809F1400441F001010160F02087F84E
:109850001701A86C010E87F8160187F81311010C87
:10986000000A87F8141187F81501162E0ED0B819C2
:1098700090F80211204600F025F9C0B90136F4E74E
:109880004248022105F11E08017011E099F84D00CF
:1098900001280CD00DF10301204600F000F9D9F8A1
:1098A00050009DF803104160012089F84D0000BF71
:1098B000022088F8000000206877384F97F83D00B4
:1098C00002285BD1DFF8C880002407F1300508F1D9
:1098D00001094E462846314600F0E1F8002804BF51
:1098E000013401360228F5D1002088F8014187F8BB
:1098F0003D00E0B2162845D198F80100D1283DD1AD
:1099000098F81600F02839D14846FDF72BFAFDF7F4
:109910003DFA21490A6842F001020A6098F81210E3
:10992000B1EB106F2AD198F81320C0F307418A4297
:1099300024D198F81410C0F3072291421ED198F850
:109940001510C0B2814219D198F8022098F803107E
:1099500098F80500012A08BF012905D0022A08BF8E
:10996000012906D000BF09E00028F7D107480021EF
:1099700003E00028F6D105480121017004480021C8
:1099800080F80111BDE8F88300010020C800002024
:10999000EC1F0020D10101000830024078010020B6
:1099A0002DE9F04F81B04EF21400CEF2000040F2EB
:1099B00000150668EFF3108A72B6C2F20005D5E909
:1099C00018014FF00108B8F1010250EB060206F150
:1099D000010741F10001384442F2584BC5E9180132
:1099E000C2F2000BDBF80000B8F1010140F20009FF
:1099F00056EB0001C2F200094FF00001D9F8302007
:109A000007EB000441F1000120460023FAF7DCFBDC
:109A1000D5E91A2312185941C5E91A21D9F830108D
:109A2000002300FB1140B8F10101CBF8000042F225
:109A30005C4B8AF31088EFF3108A72B6C2F2000B07
:109A4000DBF80000D9F8342056EB00014FF000019C
:109A500007EB000441F100012046FAF7B5FBD5E918
:109A60001C2312185941C5E91C21D9F8341000FBF8
:109A70001140CBF800008AF3108801B0BDE8F08FE8
:109A8000816000214FF480630022016083809A424C
:109A900028BF70478368995401328388F7E742886A
:109AA0000388934204BF0220704783689A5C0A705F
:109AB000428881880132B2FBF1F303FB112141801E
:109AC00000207047B0B502888388541CB4FBF3F5BE
:109AD00005FB13434488A34204BF0120B0BD836843
